:020000040800F2
:10000000C84C00200D03000833300008D32C000832
:10001000313000088F070008013800080000000098
:100020000000000000000000000000004D02000879
:10003000FD0C000800000000A9020008793000084B
:1000400027030008270300082703000827030008E8
:1000500027030008270300082703000827030008D8
:1000600027030008270300082703000827030008C8
:1000700027030008270300082703000827030008B8
:10008000AD080008B9080008270300089D0700080C
:10009000910700082703000827030008270300082A
:1000A000270300085531000827030008270300082C
:1000B0002703000827030008270300082703000878
:1000C0002703000827030008270300082703000868
:1000D0002703000827030008F53700082703000856
:1000E0002703000827030008270300082703000848
:1000F0002703000827030008270300082703000838
:100100002703000827030008270300082703000827
:100110002703000827030008270300082703000817
:100120002703000827030008C50800082703000864
:10013000270300082703000827030008B507000865
:10014000A907000827030008270300082703000861
:1001500027030008270300082703000827030008D7
:1001600027030008270300082703000827030008C7
:1001700027030008270300082703000800000000E9
:1001800027030008270300082703000827030008A7
:100190002703000827030008270300082703000897
:1001A00000000000000000002703000800F002F833
:1001B00000F03CF80AA090E8000C82448344AAF1C5
:1001C0000107DA4501D100F031F8AFF2090EBAE8C3
:1001D0000F0013F0010F18BFFB1A43F0010318477B
:1001E000E84C0000084D0000103A24BF78C878C1E0
:1001F000FAD8520724BF30C830C144BF04680C602D
:10020000704700000023002400250026103A28BF74
:1002100078C1FBD8520728BF30C148BF0B60704778
:100220001FB504F0A3FD1FBD10B510BD00F0A6F969
:100230001146FFF7F5FF03F0A7FB00F0C4F903B484
:10024000FFF7F2FF03BC00F0CBF900002C4B19685C
:100250000868B0E8F04F80F30988BFF36F8F4FF064
:10026000000080F311887047000000000848006813
:10027000006880F308884FF0000080F3148862B6AD
:1002800061B6BFF34F8FBFF36F8F00DF00BF00BFBA
:1002900008ED00E0DFF80C00016841F47001016036
:1002A000704700BF88ED00E0EFF30980BFF36F8F68
:1002B000134B1A681EF0100F08BF20ED108A20E9BA
:1002C000F04F106009B44FF0500080F31188BFF375
:1002D0004F8FBFF36F8F04F09BF84FF0000080F357
:1002E000118809BC19680868B0E8F04F1EF0100FBB
:1002F00008BFB0EC108A80F30988BFF36F8F704796
:10030000A4000020EFF305807047000009488047F3
:1003100009480047FEE7FEE7FEE7FEE7FEE7FEE7E7
:10032000FEE7FEE7FEE7FEE704480549054A064BFF
:100330007047000045310008AD010008C8460020A4
:10034000C84C0020C8480020C848002053EA020CCE
:1003500000F069802DE9F04B4FF00006002B1FBF25
:10036000B3FA83F503FA05F424FA05F65E4012BFEA
:100370001643B2FA82F502FA05F4C5F120051EBF54
:1003800022FA05FC44EA0C04203556EA044C4FEAF4
:10039000144418BF641C4FF000084FF0000990424D
:1003A00071EB030C39D3002919BFB1FA81F701FAB7
:1003B00007F6B0FA80F700FA07F6C7F120071EBF6C
:1003C00020FA07FC46EA0C062037B6FBF4FCA7EB44
:1003D0000507103F07F01F0BCBF120060CFA0BFBB3
:1003E0002CFA06F644BFB3460026202FA4BF5E4673
:1003F0004FF0000B5BEA060C08BF4FF0010B19EB46
:100400000B09ABFB027C48EB0608C01B06FB02CCC9
:100410000BFB03CC71EB0C01C1E70B4602464146D6
:100420004846BDE8F08B13B54FF000004FF00001D7
:10043000AFF30080BDE81C407047032A40F23080D3
:1004400010F0030C00F0158011F8013BBCF1020F15
:10045000624498BF11F801CB00F8013B38BF11F896
:10046000013BA2F1040298BF00F801CB38BF00F8AD
:10047000013B11F0030300F02580083AC0F008802A
:1004800051F8043B083A51F804CBA0E80810F5E70E
:10049000121D5CBF51F8043B40F8043BAFF30080F1
:1004A000D20724BF11F8013B11F801CB48BF11F866
:1004B000012B24BF00F8013B00F801CB48BF00F836
:1004C000012B704710B5203AC0F00B80B1E81850EE
:1004D000203AA0E81850B1E81850A0E81850BFF42E
:1004E000F5AF5FEA027C24BFB1E81850A0E81850CD
:1004F00044BF18C918C0BDE810405FEA827C24BF21
:1005000051F8043B40F8043B08BF7047D20728BFAE
:1005100031F8023B48BF11F8012B28BF20F8023BFD
:1005200048BF00F8012B70474FF0000200B513469A
:1005300094469646203922BFA0E80C50A0E80C5003
:10054000B1F12001BFF4F7AF090728BFA0E80C50B4
:1005500048BF0CC05DF804EB890028BF40F8042BAD
:1005600008BF704748BF20F8022B11F0804F18BF1A
:1005700000F8012B7047704770477047754600F0D0
:100580002BF8AE4605006946534620F00700854625
:1005900018B020B5FFF7C8FEBDE820404FF00006B8
:1005A0004FF000074FF000084FF0000B21F007015B
:1005B000AC46ACE8C009ACE8C009ACE8C009ACE89E
:1005C000C0098D46704710B50446AFF30080204641
:1005D000BDE81040FFF733BE004870476846002072
:1005E00001491820ABBEFEE726000200704700005C
:1005F0000A4C0B4D03F044FD226801210948904745
:10060000226802210848904700F024F800F06CFBB3
:10061000686A03F043FE03F053FDEBE72800002077
:1006200068000020E8060020100700208AB0084E6D
:100630006C464FF0FF3707AD3A466946306804F024
:1006400005F909AB2A46211D009800F06CFBF3E781
:100650007000002010B53F4C3F482DED048B94EC0A
:10066000050A00F0B3F914343C4894EC050A143C34
:1006700000F0ACF914343A4894EC050A143C00F04C
:10068000A5F91434374894EC050A00F09FF99FED62
:10069000368ADFED368A9FED369A2F48B0EE483A1B
:1006A000F3EE042AB1EE042AF0EE681AB0EE481A0E
:1006B000F0EE490AB7EE000A483002F0BBFC2748CA
:1006C000B0EE483AF3EE042AB1EE042AF0EE681ACE
:1006D000B0EE481AF0EE490AB7EE000A483002F0D0
:1006E000A9FC1F48B0EE483AF3EE042AB1EE042A02
:1006F000F0EE681AB0EE481AF0EE490AB7EE000ABA
:10070000483002F097FC1748B0EE483AF3EE042A5E
:10071000B1EE042AF0EE681AB0EE481AF0EE490A7B
:10072000B7EE000A483002F085FC1249042000F0C0
:1007300021F91049052000F01DF90E49062000F0AE
:1007400019F9BDEC048B0720BDE81040094900F001
:1007500011B900000000002034020020CC0200206B
:1007600064030020FC030020CDCCCC3D0000000041
:1007700017B7D1381007002008B504F0A3F900908E
:1007800000F012FA0221684603F042FDF8E7FEE7A6
:10079000014800F032BC0000E8060020014800F0EB
:1007A0002CBC0000E8060020014800F026BC000038
:1007B00010070020014800F020BC000010070020B6
:1007C00010B50446491EC8B200EB400101EB001011
:1007D0000E49002201EB800101230A614A614A624D
:1007E000C1E906230A604A608A600B622046CA603B
:1007F00000F002FB08B100F082FA204600F078FE1B
:100800002046BDE81040022100F07BBA2C010020F8
:1008100010B58AB00C9C009192B102930021CDE9F1
:100820000321082205928DF818102168079161684C
:10083000002308911A46694603F0F8FE0AB010BD7D
:100840000193EBE7044D8AB04FF0FF34224669462E
:10085000286803F0FBFFF9E7680000208EB0124E15
:100860004FF0FF3709AD3A4605A9306803F0EEFFB7
:10087000059C042C05D0052C03D0062C01D0072C98
:10088000F1D1142229466846FFF71CFE0DF1180C21
:10089000B2EE041A9CE80E00F3EE040AB2EE090A66
:1008A000204600F0A7F8DEE76C000020014800F0C9
:1008B000ADBE000070080020014800F0A7BE000097
:1008C000D0080020014800F0A1BE00001008002060
:1008D00001681823CAB2103AB2FBF3F2054B6FF36A
:1008E0000901032A9B5CC36500D9091D816508467F
:1008F000704700003C4E000810B5014600208B698F
:100900008A6A4FF0C07453B1B3F5005F15D072B16D
:10091000012A0CD0022A0AD0032A09D104E01AB114
:10092000012A06D0022A03D1C96AC90100D50120D3
:1009300010BDC96AA142FAD010BD002AF7D0012A21
:10094000F2D0022AF3D0032AF3D010BD30B50468E8
:10095000256825F480252560046863608368402B42
:10096000036803D099600068C26030BD9A60006877
:10097000C16030BD10B58AB00022082304920290F5
:10098000CDE905238DF81C20FF228DF820208DF85D
:1009900021208DF824208DF822208DF825208DF837
:1009A00023208DF82620FC228DF8272008AA00920B
:1009B000044A03460448546800220068A0470AB06D
:1009C00010BD0000280000207000002080ED0D0AFE
:1009D000BDEEE10AC0ED0B0A80ED0C1A10EE101A04
:1009E000BDEEC20A80F8401010EE101A80F84110D7
:1009F000704700000FB42DED040B70B5664C2DED63
:100A0000028BF0EE608A0A9DF0EE400A2D1F9DF8E1
:100A1000440054F825100009B0EE418A91ED010A16
:100A2000BCEEC00A10EE102A0A8454F82510088083
:100A3000BDF8450040BA00EE100A54F82500B8EEA3
:100A4000400A80ED060A9DF847009DF84810000115
:100A500040EA111000EE100A54F825001021B8EEFB
:100A6000400A80ED070A9DF8490000EE100A54F88C
:100A70002500B8EE400A80ED040A54F8250090EDF8
:100A8000060ABDEEC00A10EE100AB1EE600A03F0CD
:100A900093FA54F8250080ED010A54F825009FEDE3
:100AA0003F1ADFED3F0A0C2140EE010AC0ED010ABA
:100AB00054F82500F0EE680A90ED070ABDEEC00A72
:100AC00010EE100AB1EE680A03F076FA54F8250029
:100AD0000C21F0EE480A80ED020A54F8250090ED52
:100AE000040ABDEEC00A10EE100AB1EE480A03F087
:100AF00063FA54F8250080ED050A54F825109DF896
:100B00004A00087354F825109DF84B00487354F8B8
:100B10002500018CD0ED010A00EE101A2149B8EE33
:100B2000400A30EEC00A10EE102A8A4202D9028F23
:100B3000521C028754F82500028CD0ED010A00EE09
:100B4000102AB8EE400A30EE600A10EE102A8A42EF
:100B500002D9018F491E018754F82500B0F93810D9
:100B6000D0ED010A490300EE101AB8EEC00A30EECB
:100B7000800A80ED0F0A54F8250030F8441F491C04
:100B8000018054F82510012081F84200BDEC028B51
:100B900070BC5DF824FB00003C000020CDCCCC43B1
:100BA000000080450020CBC5F0B4494849490026E3
:100BB00006700888C0F30A05A1F11600A5F5806546
:100BC00005804A786D1DD3088A7843EA4213C3F33F
:100BD0000A04A4F580644480CB78920942EA830237
:100BE0000B7942EA8322C2F30A02A2F58062828074
:100BF0005B084F790A2D43EAC713C3F30A03A3F531
:100C00008063C38000D80680641D0A2C00D846800B
:100C1000521D0A2A00D886805B1D0A2B00D8C68088
:100C2000BA090272C7F301134372CB8843810B895F
:100C300083814B89C3810B7B03744B7B4374CB89CA
:100C40004382098AA1F5806109B2818201F525718B
:100C5000B1F5A56F00D98682032A32D1B0F906100A
:100C6000DFED1D0A00EE101A1D49F8EEC01A9FEDC7
:100C70001B0AB0EE401A01EEA01A81ED001AB0F97D
:100C8000042001EE102AF8EEC11AB0EE401A01EE6F
:100C9000A01A81ED021AB0F9022001EE102AF8EE36
:100CA000C11AB0EE401A01EEA01A81ED041AB0F993
:100CB000000001EE100AB8EEC11A01EE200A81ED23
:100CC000060AF0BC12220349064801F094BD000058
:100CD0003A000020220200208D97C6400000804587
:100CE0000C0100208007002012220249024801F076
:100CF00082BD00002202002080070020704772B6EB
:100D0000FEE790F82020012A07D0022A05D0416A88
:100D100041F48021416201207047006842690A4322
:100D2000426100207047F0B590F820500468A46834
:100D3000012D05D0022D03D0416A41F4802157E0F6
:100D400014F0406F01D1E5004FD5C4F301640125D3
:100D5000A5401D608D684FF4C0739DB1CE683543CA
:100D60004E6845EAC605066803EB0417F5514FF4D3
:100D7000C275076805EB04150E697E51097D0129CE
:100D800005D009E00E88CD6845EA4655EBE70168D5
:100D90004E5946F480764E511179D579567941EA0B
:100DA000056195792D0445EA062529434FF4C67659
:100DB000056806EB0416A9511178D57841EA05615A
:100DC000957852782D0445EA022211434FF4C475F8
:100DD000026805EB04155151006803EB04114258F9
:100DE00042F0010242500020F0BD416A41F400117E
:100DF00041620120F0BD000010B590F82020012ACA
:100E000007D0022A05D0416A41F4802141620120C5
:100E100010BD3B48D0F8002242F00102C0F8002289
:100E2000D0F8002222F47C52C0F80022D0F8002230
:100E30004B6A42EA0322C0F800220A7D02F01F0337
:100E400001229A40D0F81C329343C0F81C32CB697F
:100E5000B3B9D0F80C329343C0F80C328C894B688C
:100E600064F31F434C6900EBC404C4F840320C899E
:100E70000B6864F31F434C6900EBC404C4F84432AC
:100E8000CB69012B16D1D0F80C321343C0F80C32C9
:100E90000C884B6864F31F434C6900EBC404C4F82E
:100EA00040320C89CB6864F31F434C6900EBC404E7
:100EB000C4F844328B69002BD0F804320ED01343AF
:100EC000C0F804320B69002BD0F8143208D0134359
:100ED000C0F81432096A012904D008E09343EFE70F
:100EE0009343F5E7D0F81C121143C0F81C12D0F858
:100EF000001221F00101C0F80012002010BD000016
:100F000000640040704770B590F82040012C05D077
:100F1000022C03D0416A41F4802128E0046809B31F
:100F20002469A40720D04FF4D874056804EB011499
:100F30002D5915F00405956005682D591AD0ED0856
:100F4000556005682C5904F00204D4604FF4DA743B
:100F5000056804EB01142E5906F00F06082E0CD379
:100F600008250DE0E468DCE7416A41F400114162C4
:100F7000012070BD6D0D1560E3E72D5905F00F05DB
:100F8000156105682D59C5F30725956105682C592C
:100F9000240C54614FF4DC72046802EB0112A45873
:100FA0001C700468A458240A5C700468A458240CBB
:100FB0009C700468A258120EDA704FF4DE72046856
:100FC00002EB0112A4581C710468A458240A5C7135
:100FD0000468A458240C9C710468A258120EDA719B
:100FE000006829B1016941F020010161002070BD54
:100FF000C16841F02001C160F8E72DE9F05F0546C6
:10100000006800244669D0F804908768D0F80CB0D6
:10101000D0F810A0D0F81880F10748D0F90714D004
:1010200001218160B80703D5284600F08EFA0CE054
:10103000780702D54FF4006407E0380702D54FF473
:10104000805402E0284600F07FFAF80516D529689A
:101050004FF480708860B80503D5284600F077FA11
:101060000CE0780502D544F4005407E0380502D5B9
:1010700044F4804402E0284600F068FAF80316D5EC
:1010800029684FF480308860B80303D5284600F003
:1010900060FA0CE0780302D544F4004407E038031A
:1010A00002D544F4803402E0284600F051FA3007BB
:1010B00007D55FEACB6004D52968102044F400749A
:1010C000C86070074FF0080707D55FEA0B7004D5BA
:1010D0002868C760284600F0A9F9B00706D5286837
:1010E000C068800702D0284600F0A2F9700607D534
:1010F0005FEACA6004D52968102044F4806408615E
:10110000B00607D55FEA0A7004D52868076128464B
:1011100000F0EAF9F00606D528680069800702D0D9
:10112000284600F0E2F9B00308D55FEAC96005D5AA
:10113000296810204860284600F0D8F9F00307D548
:101140005FEA097004D528684760284600F002FA73
:10115000300446D55FEA497040D5F00504D55FEA12
:10116000C87001D044F00104B00504D55FEA88706E
:1011700001D544F00204700504D55FEA487001D53A
:1011800044F00404300529D518F0700F26D008F07B
:101190007000402815D006DC102809D020280AD07D
:1011A000302816D10AE050280ED0602811D10EE068
:1011B00044F008040DE044F010040AE044F0200478
:1011C00007E044F0400404E044F0800401E044F40B
:1011D00080742868816921F0700181612968042088
:1011E0004860002C05D0686A204368622846FFF7F3
:1011F00089FEBDE8F09F70B5040003D094F820008C
:1012000010B104E0012070BD204600F081F8206894
:10121000016841F00101016000F08AFC05460526E5
:1012200004E000F085FC401B0A2811D820684068C3
:10123000C007F6D02068016821F00201016000F0CB
:1012400077FC05460BE000F073FC401B0A2806D92A
:10125000606A40F40030606284F82060D2E7206861
:1012600040688007EFD4207E0128206801683DD0C7
:1012700021F080010160607E01282068016838D07B
:1012800021F040010160A07E01282068016833D070
:1012900021F020010160E07E0128206801682ED045
:1012A00041F010010160207F01282068016829D0E9
:1012B00021F008010160607F01282068016824D0C6
:1012C00021F004010160D4E902010843D4E90412C9
:1012D000114308436168491E08432168C861002022
:1012E0006062012084F82000002070BD41F0800180
:1012F000C0E741F04001C5E741F02001CAE721F015
:101300001001CFE741F00801D4E741F00401D9E72B
:10131000F0B587B0044614216846FFF705F93E4B47
:101320003E48DFF8F0E01968D4F800C03B4A0325D6
:101330000226092710300024491CF4452AD11960DF
:10134000012907D1016841F000710160006800F0D7
:1013500000700590106840F0080010601068CDE93A
:10136000005600F00800CDE9047069462C48CDE92C
:10137000024500F0BDFA00220521132000F070FCA8
:10138000132000F05FFC00220521142000F068FC0F
:1013900014203BE0DFF88CE0F44539D1D0F800C0F0
:1013A0004CF0806CC0F800C0D0F800C001290CF0EF
:1013B000806CCDF814C0196007D1016841F000714C
:1013C0000160006800F000700590106840F00200B5
:1013D0001060106802AB00F0020005904FF440501E
:1013E000CDE9000683E8B00069460F4800F080FAB6
:1013F000002205213F2000F033FC3F2000F022FCBA
:1014000000220521402000F02BFC402000F01AFCB7
:1014100007B0F0BD0064004090000020303802406A
:10142000000C0240006800400004024070470000C9
:10143000F8B5274B02680021264C9A4200D00121C2
:101440002170C9B201EB4102234E02EB011106EB00
:10145000810202F1440300212832FFF754FD207875
:1014600006F1980500EB400101EB001106EB81014C
:1014700000EBC00005EB80001C222831FFF722F8AA
:10148000207800EB400202EB001206EB820300EB37
:10149000C001D3E9112305EB8101C1E9072388B11C
:1014A0000E4800236A46006803F070F9009800288F
:1014B00007D00B494FF080500860BFF34F8FBFF348
:1014C0006F8FF8BD294600236A460648EBE7000007
:1014D00000640040300000202C0100206C0000203F
:1014E00004ED00E06800002070477047704700007E
:1014F00070B5044690F82000012804D0606A40F4DA
:101500000020606218E0022084F820002068016852
:1015100021F00101016000F00BFB05460EE000BF69
:1015200000F006FB401B0A2808D9606A40F400302E
:101530006062052084F82000012070BD20684068AA
:10154000C007EDD1606270BD70477047704770474B
:101550007047704770472DE9F0410446876D00F0F1
:10156000E7FA064694F835000025022806D08020C8
:10157000606584F834500120BDE8F081206801687E
:1015800021F0160101602068416921F0800141616C
:10159000206C08B9A06C20B12068016821F0080116
:1015A00001602068016821F0010101600CE000F099
:1015B000BFFA801B052807D920206065032084F826
:1015C000350084F83450D7E720680068C007EED1B2
:1015D00094F85C103F208840B860012084F8350002
:1015E00084F834500020C7E790F83510022903D062
:1015F0008021416501207047052180F83510006881
:10160000016821F001010160002070472DE9F843D5
:1016100004464FF00009CDF8009063484FF416518E
:10162000A56D0068B0FBF1F72E6894F85C100820F7
:1016300000FA01F131420FD021680A6852070BD538
:101640000A6822F004020A6094F85C108840A860DE
:10165000606D40F00100606594F85C104FF0010887
:1016600008FA01F0304208D021684969090604D51A
:10167000A860606D40F00200606594F85C10042082
:101680008840304208D021680968890704D5A860DD
:10169000606D40F00400606594F85C101020884094
:1016A000304218D021680968090714D5A86020685D
:1016B0000168490304D50068000308D5A16C07E060
:1016C0000168C90503D4016821F008010160216C9B
:1016D00009B12046884794F85C10202088403042A9
:1016E00031D021680968C9062DD5A86094F8350065
:1016F00005282068016806D0490347D50068000323
:101700001DD4616C1CE021F0160101602068416964
:1017100021F080014161206C08B9A06C20B12068E3
:10172000016821F00801016094F85C103F208840B6
:10173000A86084F8358084F83490216D1FE0E16B57
:1017400009B120468847606D00282BD0606DC00726
:1017500014D0052084F835002068016821F00101CB
:1017600001600098401C0090B84203D820680068CF
:10177000C007F6D184F8358084F83490E16C0029F4
:1017800010D001B02046BDE8F04308470168C90504
:10179000D5D4016821F01001016084F8358084F807
:1017A0003490CCE7BDE8F883A00000202DE9F0419B
:1017B000044600F0BDF906465CB1022084F835000D
:1017C000002584F834502068016821F0010101608F
:1017D0000DE00120BDE8F08100F0AAF9801B05288A
:1017E00005D920206065032084F83500F2E72068E1
:1017F0000068C007F0D12268116820480140D4E990
:1018000001031843D4E9033633431843636918438B
:10181000A3691843E3691843236A18430843616ABC
:10182000042903D1D4E90B1319430843106020683D
:101830004069666A20F0070130460E4301270428FC
:101840000CD1A06A0643E06A40B12046FFF754F885
:1018500020B14020606584F83570BAE720684661A1
:101860002046FFF735F894F85C203F2191408160D5
:10187000656584F835700020ACE700003F8010F00B
:101880002DE9F0410446866D90F8340000250128CA
:101890000DD0012084F8340094F835700020012F19
:1018A00007D084F8340002252846BDE8F0810220E4
:1018B000FBE7022784F8357060652046FFF746F89D
:1018C00094F85C103F208840B0602068016841F0C7
:1018D00016010160206C20B12068016841F0080108
:1018E00001602068016841F001010160DCE700004F
:1018F0002DE9F84FDFF8F8A10022012403254FF06D
:101900000F090AF1040BAAF1040E00BF0B6804FAD8
:1019100002F63340B34270D10F7907F00307012F6D
:1019200001D0022F16D187684FEA420805FA08FC59
:1019300027EA0C07D1F80CC00CFA08FC4CEA070C9B
:10194000C0F808C04768B7430E79C6F30016964042
:101950003E4346600E79F643B6070AD0C7684FEAA1
:10196000420C05FA0CF6B7438E6806FA0CF63E43B5
:10197000C6600E7906F00306022E10D1D60800EBE1
:101980008608D8F8206057074FEAD76C09FA0CF799
:10199000BE430F6907FA0CF73743C8F82070066892
:1019A0004FEA420C05FA0CF7BE430F7907F0030724
:1019B00007FA0CF7374307604E6816F4403F1CD017
:1019C0004C4E376847F480473760366822F003078B
:1019D00006F480460096484E07EB060CDCF80868D3
:1019E00097073F0F09FA07F826EA0806DFF80C8187
:1019F000404503D14FF0000841E072E0DFF800817C
:101A0000404502D14FF0010839E0DFF8F880404549
:101A100002D14FF0020832E0DFF8EC80404502D1FD
:101A20004FF003082BE0DFF8E480404502D14FF08F
:101A3000040824E0DFF8D880404502D14FF00508C3
:101A40001DE0DFF8D080404502D14FF0060816E0D7
:101A5000DFF8C480404502D14FF007080FE0DFF8FF
:101A6000BC80404502D14FF0080808E0DFF8B080A4
:101A7000404502D14FF0090801E04FF00A0808FA8A
:101A800007F848EA0608CCF80888DAF800605746F4
:101A9000D1F804C09E435FEACC2C00D51E433E60C3
:101AA000DBF800605F46D1F804C09E435FEA8C2CEF
:101AB00000D51E433E60DEF800607746D1F804C0D2
:101AC0009E435FEA8C3C00D51E433E60084F083FB2
:101AD0003E68D1F804C09E435FEACC3C00D51E436B
:101AE0003E60521C102AFFF411AFBDE8F88F0000D1
:101AF000083C0140443802400030014000000240F0
:101B00000004024000080240000C024000100240A5
:101B10000014024000180240001C02400020024055
:101B2000002402400AB1816170470904FBE700000C
:101B300001488068704700009400002002488168D6
:101B40000278114481607047940000200B4810B562
:101B5000016841F400710160016841F48061016035
:101B6000016841F480710160032000F099F80F20B2
:101B700000F006F800F04AF8002010BD003C0240DA
:101B800030B505461C4887B00024016841F00101CA
:101B90000160006806A900F00100009001A800F0B3
:101BA00063F900F091F915494000B0FBF1F11548D7
:101BB000134A491E026040F2E732C0E90324C0E93B
:101BC0000114846100F0C2FB040012D10D4800F042
:101BD000FFFB04000DD1192000F034F8102D07D2BE
:101BE00000222946192000F03BF80748056000E074
:101BF000012407B0204630BD4438024040420F0067
:101C00000000014030090020980000200C4882B0FC
:101C1000016841F480410160006800F48040009058
:101C20000748001F016841F08051016000680022F0
:101C300000F0805000900F21901E02B000F010B80C
:101C400044380240002809DB00F01F0201219140C6
:101C50004009800000F1E020C0F80011704700004A
:101C6000F0B40E4B1B680C46C3F30223C3F1070507
:101C7000042D00D90425191D072901D2002300E0F5
:101C8000DB1E012606FA05F1491E214099409E40BF
:101C9000761E16403143F0BC01F0BCBD0CED00E0F7
:101CA000064900F0070208684FF6FF03184040EAB3
:101CB0000220034A10430860704700000CED00E06A
:101CC0000000FA052DE9F8431748016841F08051FA
:101CD00001600068154F00F08050012600903E64BE
:101CE000FFF726FF05464FF47A78114C05E000BF58
:101CF000FFF71EFF401B40450DD86068C003F7D5B5
:101D00007E64FFF715FF0546464607E0FFF710FF24
:101D1000401BB04202D90320BDE8F883606880030D
:101D2000F4D50020F8E700004038024000000E42E1
:101D3000007000402DE9F0470E46050065D0DFF841
:101D40001481D8F80000F7B200F00F00B04207D2BB
:101D500088F80070D8F8000000F00F00B04254D1AD
:101D600028683D4C810712D5400703D5206840F410
:101D7000E05020602878000703D5206840F46040D8
:101D800020602068A96820F0F000084320602878CF
:101D9000C0072DD0304968680839012812D00228C0
:101DA00013D0032811D00968890700292DDA21688A
:101DB00021F0030101432160FFF7BAFE814641F2A1
:101DC000883A0EE009688903EFE709688901ECE7C2
:101DD000FFF7AEFEA0EB0901514502D90320BDE893
:101DE000F0872068696800F00C00B0EB810FEFD13C
:101DF000D8F80010404601F00F01B14207D9077032
:101E0000006800F00F00B04201D00120E7E7287819
:101E1000400705D52068E96820F4E05008432060B9
:101E20002878000706D52068296920F4604040EA38
:101E3000C100206000F058F82168084AC1F303117E
:101E4000515CC8400649086006480068FFF798FEE4
:101E50000020C4E7003C024008380240444E00081D
:101E6000A0000020980000200F2202600C4A136896
:101E700003F003034360136803F0F0038360136807
:101E800003F4E053C36012684FF4E05303EAD20254
:101E900002610448006800F00F000860704700000D
:101EA00008380240003C02400448054900680968BF
:101EB000044AC1F38221515CC8407047A000002051
:101EC00008380240544E0008044805490068096873
:101ED000044AC1F34231515CC8407047A000002061
:101EE00008380240544E0008154810B5006810F03C
:101EF0000C02144813D01449042A0FD0082A0ED11A
:101F00000F4C241F2268236802F03F025B0207D5B2
:101F10002068C0F38810A0FB010106E0084610BD50
:101F20002168C1F38811A1FB00010023FEF70EFA1E
:101F30002168C1F30141491C4900B0FBF1F010BD1B
:101F4000083802400024F400001BB7002DE9F84FC8
:101F500004006ED02078DFF84C93C007A9F1040587
:101F60004AD009F104000168C1F38101012908D0B8
:101F70000068C0F3810002280AD1D9F800004002AD
:101F800006D52868800337D560680028E1D033E0A3
:101F90006068B0F5803F10D0B0F5A02F286810D051
:101FA00020F480302860286820F480202860606851
:101FB000A8B1FFF7BDFD06460DE0286840F480306B
:101FC000F4E740F480202860F7E700BFFFF7B0FD9A
:101FD000801B642873D828688003F7D50CE0FFF7CE
:101FE000A7FD064605E000BFFFF7A2FD801B6428A1
:101FF000F0D828688003F7D42078DFF8AC82800717
:102000004FF0000A3ED5A748001D016811F00C0FE3
:1020100008D00068C0F3810002280BD1D9F8000075
:10202000400207D42868800716D5E068012800D14F
:1020300012E033E1E068B8B10120C8F80000FFF712
:1020400077FD064605E000BFFFF772FD801B022802
:10205000C0D828688007F7D52868216920F0F800E3
:1020600040EAC10028600DE0C8F800A0FFF760FD5D
:10207000064604E0FFF75CFD801B02281FD8286895
:102080008007F7D42078000722D5864F87486169FA
:10209000703771B101210160FFF74AFD064604E087
:1020A000FFF746FD801B022809D838688007F7D55E
:1020B0000EE0C0F800A0FFF73BFD064605E082E019
:1020C000FFF736FD801B02287DD838688007F7D4DB
:1020D0002078400768D5DFF8CCB100270BF13C0B26
:1020E000DBF80000C0000BD4DBF8001041F0805199
:1020F000CBF80010DBF80000012700F080500090C2
:102100006B4E3068C00510D4306840F48070306089
:10211000FFF70EFD009005E0FFF70AFD0099401A59
:10212000022850D83068C005F6D55E4EA0686C36DF
:1021300001280FD00528306810D020F00100306051
:10214000306820F004003060A068B8B1FFF7F0FC00
:1021500000900FE0306840F00100F4E740F0040028
:102160003060F7E7FFF7E4FC0099411A41F288304C
:10217000814266D830688007F4D50EE0FFF7D8FCBE
:10218000009007E0FFF7D4FC0099411A41F2883033
:10219000814256D830688007F4D42FB1DBF80010A4
:1021A00021F08051CBF80010A069C8B33D49091D4A
:1021B0000968C1F3810102294AD00228504607D09C
:1021C000C8F8600000E03CE0FFF7B2FC04463BE0EA
:1021D0004746C8F86000FFF7ABFC064605E000BFC5
:1021E000FFF7A6FC801B02282BD828688001F7D4B3
:1021F000D4E907010843A16A2E4A490802EB0141CC
:10220000626A41EA8211084394F82C1040EA0161A5
:10221000C9F8001001203866FFF78AFC044606E082
:102220003EE000BFFFF784FC001B022809D82868A5
:102230008001F7D534E000BFFFF77AFC001B0228CD
:1022400002D90320BDE8F88F28688001F4D427E084
:102250000128F7D0D9F80000E26900F4800191422A
:102260001CD1226A00F03F01914217D147F6C0719C
:10227000626A0140B1EB821F10D1A26A4FF0FF33B6
:1022800000F4403103EB5202B1EB024F06D194F857
:102290002C1000F07060B0EB016F01D00120D1E78D
:1022A0000020CFE70438024000004742800E47423A
:1022B000007000400000FFFF7047704770B590F855
:1022C0003C20012A32D0012480F83C40022280F8D0
:1022D0003D2003685A689D6822F070060A68324300
:1022E0005A60134B02689A4214D0B2F1804F11D059
:1022F000104B9A420ED0104B9A420BD00F4B9A4281
:1023000008D00F4B9A4205D00E4B9A4202D00E4B8A
:102310009A4204D1496825F080031943916080F8FE
:102320003D40002180F83C10084670BD022070BD81
:10233000000001400004004000080040000C004084
:1023400000040140004001400018004010B50400A6
:1023500003D094F83D0010B107E0012010BD00202B
:1023600084F83C00204600F01FF8022084F83D006D
:10237000211D206800F0F4FE012084F8460084F856
:102380003E0084F83F0084F8400084F8410084F85F
:10239000420084F8430084F8440084F8450084F83F
:1023A0003D00002010BD000008B5006806498842C5
:1023B00008D10648016841F008010160006800F09A
:1023C0000800009008BD0000000C004040380240AA
:1023D00090F83D10012901D001207047022180F8BA
:1023E0003D100168CA6842F00102CA6000681149E4
:1023F000884214D0B0F1804F11D00F4988420ED0DE
:102400000E4988420BD00E49884208D00D498842B7
:1024100005D00D49884202D00C49884204D1816818
:1024200001F00701062903D0016841F001010160B4
:1024300000207047000001400004004000080040F8
:10244000000C004000040140004001400018004022
:1024500070B5044690F83C000025012817D00126ED
:1024600084F83C60022084F83D002068826822F0F5
:10247000770222F47F4282600868502838D00DDC51
:1024800020284FD005DC90B3102811D14AE002205B
:1024900070BD302846D040280AD13BE060282FD0BC
:1024A00070280DD0B0F5805F03D0B0F5005F12D07A
:1024B000012584F83D60002084F83C00284670BD6A
:1024C000CB68D1E90121206800F0B2FE2068816864
:1024D00041F0770109E0CB68D1E90121206800F0E3
:1024E000A7FE2068816841F480418160E1E719E03E
:1024F000CA684968206800F06FFF5021206806E034
:10250000CA684968206800F078FF6021206800F000
:1025100099FECEE7CA684968206800F05DFF402157
:102520002068F4E7226801461046F0E770472DE97D
:10253000F04104460068C66805694FF00007A90726
:1025400013D5B10711D5F91E01610120207720684C
:1025500080698007204602D0FFF7E8FF04E000F022
:10256000A9F8204600F03BF92777680716D57007D1
:1025700014D521686FF004000861022020772068DC
:10258000806910F4407F204602D0FFF7CFFF04E0BF
:1025900000F090F8204600F022F92777280715D59B
:1025A000300713D521686FF00800086104202077F8
:1025B0002068C0698007204602D0FFF7B7FF04E01B
:1025C00000F078F8204600F00AF92777E80616D5DB
:1025D000F00614D521686FF01000086108202077FC
:1025E0002068C06910F4407F204602D0FFF79EFFAC
:1025F00004E000F05FF8204600F0F1F82777E807E4
:1026000008D0F00706D021686FF00100086120466D
:1026100000F0E6F8280608D5300606D521686FF0E8
:10262000800008612046FFF747FE680608D570065F
:1026300006D521686FF040000861204600F0DAF806
:10264000A8060AD5B00608D521686FF020000861F9
:102650002046BDE8F041FFF730BEBDE8F081000044
:1026600010B586B0044614216846FDF75DFF0E499B
:102670002068884215D10D480021026842F080028E
:102680000260006800F0800005904FF4E050009078
:102690000220CDE90101CDE9031069460448FFF7A6
:1026A00027F906B010BD0000000C00403038024091
:1026B000001C0240704770B5044690F83C000026AC
:1026C0000D4601280FD0012084F83C006AB1042A8D
:1026D0001DD0082A2FD00C2A3FD00126002084F8D4
:1026E0003C00304670BD022070BD206800F0B2FD95
:1026F0002068816941F0080181612068816921F0C9
:1027000004018161206881692A69114311E0206810
:1027100000F0D0FD2068816941F40061816120688A
:10272000816921F480618161206881692A6941EAB7
:1027300002218161D2E7206800F0F2FD2068C169C2
:1027400041F00801C1612068C16921F00401C16143
:102750002068C1692A69114311E0206800F014FE65
:102760002068C16941F40061C1612068C16921F438
:102770008061C1612068C1692A6941EA0221C161A1
:10278000ACE710B5040003D094F83D0010B107E0A9
:10279000012010BD002084F83C00204600F01EF807
:1027A000022084F83D00211D206800F0D9FC0120A2
:1027B00084F8460084F83E0084F83F0084F8400026
:1027C00084F8410084F8420084F8430084F844000F
:1027D00084F8450084F83D00002010BD7047704724
:1027E00000680349884201D1FFF7A8B9704700008B
:1027F00000000140704738B5044690F84200202898
:1028000001D0022038BD51B14AB10120206300201F
:102810006063204600F09EFF216B012901D001205A
:1028200038BD21680A684968009121680C3151E877
:10283000002F42F0100241E80023002BF5D138BDF3
:1028400000680349884202D102490120087070479C
:10285000004800403A00002070470000F8B50168C9
:1028600004460868CA684B6910F00F0F4FF0000566
:1028700059D003F0010602F49077374365D0C107C1
:1028800005D0D10503D5616C41F0010161644107B8
:1028900005D5D90703D0616C41F00201616481075D
:1028A00005D5D90703D0616C41F0040161640107CB
:1028B00007D502F02001314303D0616C41F00801DB
:1028C0006164616C00293AD0800604D5900602D577
:1028D000204600F057FE20684069616CC0F380100C
:1028E000090700D460B3204600F017FE2068406955
:1028F000400621D52068143050E8001F21F0400127
:1029000040E80012002AF5D1E06BA8B172490165D8
:10291000E06BFEF769FE002811D0E06B016D01B09D
:10292000BDE8F040084783060FD593060DD5204635
:10293000BDE8F84000F026BE2046FFF78DFFF8BD49
:102940002046FFF789FF6564F8BD266B2023012E22
:102950007ED1C6067CD5D6067AD508684868009030
:1029600048694FF0020640064DD5E26B106840689A
:102970004FF480770004000C3AD0A18D814237D902
:10298000E085D069B8422DD020680C3050E8001F97
:1029900021F4807140E80012002AF5D1206814303B
:1029A00050E8001F21F0010140E80012002AF5D193
:1029B0002068143050E8001F21F0400140E8001268
:1029C000002AF5D184F84230256320680C3050E8A5
:1029D000001F21F0100140E80012002AF5D1E06B41
:1029E000FEF7B9FD6663A08DE18D401A81B206E065
:1029F000A18D8142A8D1D069B842A5D16663204695
:102A0000FFF71EFFF8BDA08DE18D401A81B2E08D69
:102A10000028F7D00029F5D020680C3050E8002FAE
:102A200022F4907240E80027002FF5D1206814307E
:102A300050E8002F22F0010240E80027002FF5D1D6
:102A400084F84230256320680C3050E8002F00E005
:102A500006E022F0100240E80023002BF3D1CDE77E
:102A600005062BD5150629D594F841002128C9D192
:102A7000A068B0F5805F01D12069B0B1206A411C27
:102A80002162216800784860E08C401E0004000C40
:102A9000E084B7D12068C16821F08001C16020685E
:102AA000C16841F04001C160F8BD206A0088C0F3F0
:102AB00008004860206A801C2062E5E74006F3D5E4
:102AC0005006F1D5CA68204622F04002CA6084F858
:102AD000413000F0FDF8F8BD1F34000870B5040067
:102AE00004D094F84100002510B106E0012070BD2B
:102AF00084F84050204600F023F8242084F8410058
:102B00002068C16821F40051C160204600F09CFD9E
:102B10002068016921F4904101612068416921F038
:102B20002A0141612068C16841F40051C1606564B7
:102B3000202084F8410084F842006563002070BDC5
:102B40002DE9F04786B0064614216846FDF7ECFCF7
:102B5000554B3168554802250327072200244FF0C2
:102B600000694FF4806A994246D1504914310B688C
:102B700043F010030B60096801F010010591016832
:102B800041F002010160016801F002010591016854
:102B900041F001010160006802AB00F00100059006
:102BA0008020CDE90005904683E8900169464048C1
:102BB000FEF79EFE2802CDE9000502AB694683E8D8
:102BC00090013C48FEF794FE3C4D3B482860C5E927
:102BD0000194C5E9034A6C613804AC61C5E907405A
:102BE00028466C62FEF7E2FD08B1FEF788F8F5634F
:102BF000AE6306B0BDE8F087314B9942F9D12B495D
:102C000010310B6843F400330B60096801F40031A4
:102C10000591016841F0080101600068029400F02C
:102C2000080005906020CDE90005CDE903726946F2
:102C30002448FEF75DFE214D234860354F4628604D
:102C4000C5E90194C5E9034A6C61AC61EC612C6291
:102C5000D04628466C62FEF7A9FD08B1FEF74FF892
:102C6000F563AE63154D1848C0351830E5E8020726
:102C70004020A5E81101114845F81449C030AC6165
:102C8000EC612C626C62FEF791FD08B1FEF737F83B
:102C9000B563002205212620AE63FEF7E1FF262062
:102CA000FEF7D0FFA5E700000010014030380240D9
:102CB000000402400000024040640240100800206E
:102CC00000440040000C024088600240704770479A
:102CD0007047FEE70F4810B50D49016009214160BA
:102CE00000214FF480328160C0E903121201426179
:102CF000017641768176C17601774177FEF77BFADE
:102D0000002803D0BDE81040FDF7F9BF10BD00005A
:102D100000640040E80600200F4810B50D4901602E
:102D20000921416000214FF480328160C0E9031223
:102D300012014261017641768176C1760177417751
:102D4000FEF759FA002803D0BDE81040FDF7D7BFC1
:102D500010BD00000068004010070020154808B5AD
:102D6000016841F480010160016801F48001009173
:102D7000016841F4001101600068002200F40010B5
:102D8000009005211020FEF76BFF1020FEF75AFF80
:102D9000002205211120FEF763FF1120FEF752FFEC
:102DA000002205213A20FEF75BFFBDE808403A20EB
:102DB000FEF748BF3038024010B5B2B000222421DF
:102DC000202001F0CDFB2E4C002224212060402049
:102DD00001F0C6FB606000222421202001F0C0FB2E
:102DE000A0601C2227496846FDF76CFB002168465D
:102DF00000F0F3FD234960621C221C3107A8FDF797
:102E000061FB002107A800F0E8FD1E49E0601C22DC
:102E100038310EA8FDF756FB00210EA800F0DDFDAD
:102E2000184920611C22543115A8FDF74BFB0021E5
:102E300015A800F0D2FD134960611C2270311CA856
:102E4000FDF740FB00211CA800F0C7FD0D49A06163
:102E50001C228C3123A8FDF735FB002123A800F0AC
:102E6000BCFD0849E0611C22A8312AA8FDF72AFB15
:102E700000212AA800F0B1FD206232B010BD000090
:102E800068000020784D000830B587B014216846EE
:102E9000FDF74AFB1A480024016841F00101016076
:102EA000016801F001010591016841F00201016032
:102EB000016801F002010591016841F0080101601B
:102EC000016801F008010591016841F0800101608D
:102ED00000680C4D00F08000059000223C2128463F
:102EE000FEF720FE3C200090012001900220CDE959
:102EF000020469462846FEF7FBFC07B030BD00001F
:102F000030380240001C024010B58EB000240794F7
:102F1000089409940A940B941C2168460C94FDF7BC
:102F200003FB25482349C0E90014611EC0E90241A2
:102F300004618461FFF70AFA08B1FDF7E0FE4FF47F
:102F40008050079007A91C48FFF782FA08B1FDF7E7
:102F5000D6FE1948FFF715FC08B1FDF7D0FE0B941B
:102F60000BA915480C94FFF7A9F908B1FDF7C7FEA6
:102F70006020CDE900040294002269460E480494C2
:102F8000FFF799FB08B1FDF7BAFE042269460A482B
:102F9000FFF791FB08B1FDF7B2FE0822694606482B
:102FA000FFF789FB08B1FDF7AAFE0348FFF758FBBE
:102FB0000EB010BD000C0040380700200C4810B5C2
:102FC0000A4901600B494160002181600C22C16007
:102FD000C0E904128161C161FFF780FD002803D0C0
:102FE000BDE81040FDF78BBE10BD00000010014091
:102FF00080070020A08601000C4810B50A49016036
:103000004FF4E1314160002181600C22C160C0E9D0
:1030100004128161C161FFF761FD002803D0BDE8A2
:103020001040FDF76CBE10BD00440040C8070020F2
:10303000FEE7FEE780EC040A9FED0E0A80ED040A2D
:1030400080ED050A80ED060A80ED070A80ED0B0A87
:1030500080ED090A80ED0A0A80ED0F0A80ED100A62
:1030600080ED110A80ED120A80ED130A303080ECF9
:10307000032A70470000000010B5502080F311882B
:10308000BFF34F8FBFF36F8F01F022FD18B10449DA
:103090004FF080500860002080F3118810BD0000C0
:1030A00004ED00E030B593B030216846FDF73CFAFE
:1030B00014210CA8FDF738FA20480025016841F0DA
:1030C00080510160006800F0805011901C48016838
:1030D00041F4404101600068022400F44040119036
:1030E00001200090000401908001CDE906400620F7
:1030F0000890B420CDE9090404200B906846FEF73F
:1031000025FF08B172B6FEE7FEF7DCFD08B172B626
:10311000FEE70CA90F2081E831004FF4A0500F907A
:103120004FF48050109005210CA8FEF703FE0028F4
:1031300001D072B6FEE713B030BD00004038024047
:10314000007000400248016841F47001016070475E
:1031500088ED00E00148FFF7EAB9000030090020DF
:10316000F0B50268274B284D284E294F294C4FF0C7
:10317000804C984209D0604507D0A84205D0B042A3
:1031800003D0B84201D0A04204D122F0700E4A68A8
:1031900042EA0E0298421BD0604519D0A84217D0CF
:1031A000B04215D0B84213D0A04211D01A4DA84257
:1031B0000ED01A4DA8420BD0194DA84208D0194D77
:1031C000A84205D0184DA84202D0184DA84203D1FC
:1031D00022F44075CA682A434D6922F080022A43CE
:1031E0008D68C5620D688562984201D0A04201D108
:1031F00009690163016841F0040101600121416135
:103200000260F0BD000001400004004000080040E2
:10321000000C004000040140004001400044014017
:103220000048014000180040001C00400020004001
:1032300010B5846842EA032224F47F440A432243FF
:10324000826010BD826822F070020A4342F00701DA
:1032500081607047F0B5036A026A22F001020262DF
:1032600042688469124E24F073050C682C4323F0E5
:1032700002058B682B430D4DA84201D0B04205D109
:1032800023F00807CB683B4323F00403A84201D096
:10329000B04205D14D6922F4407215438A692A4330
:1032A00042608461496841630362F0BD00000140EF
:1032B00000040140F0B5026A036A23F010030362C0
:1032C000436884690D6824F4E64444EA05248D6863
:1032D00022F0200242EA05120F4D104EA84201D002
:1032E000B04206D1CF6822F0800242EA071222F0F3
:1032F0004002A84201D0B04207D14D6923F4406397
:1033000043EA85038D6943EA850343608461496824
:1033100081630262F0BD0000000001400004014032
:10332000F0B5026A036A23F4807303624368C469D8
:1033300022F4007224F073050C68124E2C438D6841
:1033400042EA05220E4DA84201D0B04206D1CF6814
:1033500022F4006242EA072222F48062A84201D0ED
:10336000B04207D14D6923F4405343EA05138D69F8
:1033700043EA05134360C4614968C1630262F0BD5A
:10338000000001400004014030B5046A026A22F4E2
:10339000805202624268C3690D6823F4E64343EA3F
:1033A00005238D6824F4005444EA0534084DA842EE
:1033B00002D0084DA84204D14D6922F4804242EA6D
:1033C00085124260C36149680164046230BD000037
:1033D000000001400004014010B5036A046A24F0B3
:1033E00001040462846924F0F00444EA021423F026
:1033F0000A020A438461026210BD10B5036A046ABE
:1034000024F010040462846923F0A00324F47044BF
:1034100044EA023243EA01118261016210BD10B533
:10342000806B0021C185FFF717FA10BD70B5846B62
:103430002068406994F84110C0F3C010002521298C
:1034400004D118B1E584204600F08EF82068406968
:1034500094F84210C0F38010222904D118B1E585F8
:10346000204600F05AF8606C40F01000606420467E
:10347000FFF7F2F970BD10B50146806B0968096865
:103480004FF00002C9052ED4C28501680C3151E805
:10349000003F23F4807341E80034002CF5D101682B
:1034A000143151E8003F23F0010341E80034002CBF
:1034B000F5D10168143151E8003F23F0400341E8A1
:1034C0000034002CF5D1202180F84210016B012935
:1034D00009D101680C3151E8003F23F0100341E8A5
:1034E0000034002CF5D14263016B012902D0FFF7B3
:1034F000EDFB10BD818DFFF7A3F910BD10B5806BFA
:1035000001214163016B012902D0FFF7E0FB10BDEF
:10351000818D4908FFF794F910BD01680C3151E81D
:10352000002F22F4907241E80023002BF5D10168AE
:10353000143151E8002F22F0010241E80023002B52
:10354000F5D1016B012909D101680C3151E8002F37
:1035500022F0100241E80023002BF5D1202180F851
:10356000421000210163704701680C3151E8002FBF
:1035700022F0C00241E80023002BF5D1202180F881
:103580004110704708B590F84210222901D002205E
:1035900008BD82684FF480539A4201D1016921B17C
:1035A000816A9A421BD04AB10AE00268816A526875
:1035B000C2F308020A80816A891C08E0026972B1BC
:1035C0000268526802F07F020A70816A491C8162B7
:1035D000C18D491E0904090CC18503D01BE0026896
:1035E0005268F1E70168CA6822F02002CA600168E7
:1035F000CA6822F48072CA6001684A6922F0010236
:103600004A61202180F8421000214163026B012AA7
:1036100003D0FFF75BFB002008BD016301680C319C
:1036200051E8002F22F0100241E80023002BF5D1D1
:1036300001680A68D20602D50A6849680091818D3E
:10364000FFF7FEF8E7E7000070B50446006801697F
:10365000E26821F44051114301612169A068E269E7
:1036600008436169114308432168CA6849F20C6341
:103670009A430243CA6020684169A26921F44071FB
:103680001143416131492068884202D03049884263
:1036900002D1FEF719FC01E0FEF706FCE269002307
:1036A000192164253226B2F5004F626828D0A0FBAC
:1036B0000101930F9200FCF749FE0146B0FBF5F0C3
:1036C0006FF01802504301EB800006EB0010B0FBD6
:1036D000F5F000F0F002B1FBF5F002EB0012B1FBE7
:1036E000F5F06FF01803584301EB800006EB001073
:1036F000B0FBF5F000F00F0021681044886070BD49
:10370000A0FB010192185B41FCF720FE0146B0FBD3
:10371000F5F00201B1FBF5F06FF01803584301EB2F
:10372000800006EBC000B0FBF5F000F0F80002EB03
:103730004002B1FBF5F0584301EB800006EBC000FE
:10374000B0FBF5F000F00700D6E7000000100140E4
:103750000014014038B5816204468285002013467A
:103760006064222284F84220E56B1F4AEA63E56B1D
:103770001E4A2A64E56B1E4AEA64E26B10650A463B
:103780002168E06B091DFEF77BF830B11020606402
:10379000202084F84200012038BD2068016840687C
:1037A0000090206948B120680C3050E8001F41F4B7
:1037B000807140E80012002AF5D12068143050E8EA
:1037C000001F41F0010140E80012002AF5D12068F5
:1037D000143050E8001F41F0400140E80012002A78
:1037E000F5D1002038BD000077340008FD34000812
:1037F0002D3400080148FFF731B80000C807002049
:10380000FEE708B501F05EF900900A21684600F075
:10381000FFFCFAE70907090E002804DB00F1E020AD
:1038200080F80014704700F00F0000F1E02080F8ED
:10383000141D70470C4910B5020E0A70C0F30743FF
:1038400013FB02F34B80C0F3072414FB02F48C80BB
:10385000C0B210FB02F20548CA8001684A630168E1
:103860008C630068C36310BD320000203009002063
:103870002DED0A8B424E9FED438A4FF47A77002458
:1038800056F82400050E00EE105AC0F30743C0F3AB
:103890000722B8EE40AA00EE103AC1B206EB84004F
:1038A000F8EE409A00EE102A4068B8EE409A00EE1A
:1038B000101A4FEA106CF8EE408A00EE10CAF8EECB
:1038C000400A00EE105AC0F30745B8EE400A70EE09
:1038D000C01A00EE105A5FF00005F8EE400A00EE44
:1038E000103AC0F30723C0B2B8EE400AC1EE88AA6E
:1038F00070EEC00A00EE103AB8EE401A00EE102A40
:10390000B8EE400A80EE88BA31EE401A00EE100A96
:10391000B8EE402A00EE101AB8EE400A32EE400A25
:10392000C1EE08BA80EE08CA3AEE2AAA79EE8B9A5E
:1039300039EE2B9ABCEECA0A10EE100ABCEEE90A68
:10394000010610EE100ABCEEC90A41EA004110EE71
:10395000100A78EE8C8A41EA0020BCEEE80A10EEEC
:10396000101A0843FFF766FF012000F02AF86D1CCB
:10397000ADB2BD42D8D3641CA4B2062C80D37EE77E
:103980004C00002000007A44FEF7E0F8FFF78AFBC5
:10399000FFF77AFAFFF7E2F9FFF79CF9FFF7BCF9B6
:1039A000FFF7B2FAFFF70AFBFFF726FBFFF704FA6F
:1039B00000F00EF8FEE701460020842900D0C81C64
:1039C000704710B500B9012000F0FCFB002010BDCD
:1039D00010B500F0DFFC002010BD7FB50D46044699
:1039E0004169B0F9080081B1A16971B1FFF7E3FF46
:1039F000D4E905128DE80700D4E900102B462269AE
:103A000001F027F8039004B070BDFFF7D4FF03A9BD
:103A1000CDE90001208A2B4682B2D4E9001000F0E3
:103A2000EBFF012801D00020EDE70398EBE7000051
:103A30002DE9F041184C0F460546E6682068001D48
:103A400000F0CEFA38B9206890F82C100120884098
:103A5000216981432161681C07D137B12168BDE824
:103A6000F0410E48091D00F0FFBA20683544B54208
:103A70004560216805D2A06BBDE8F041091D00F04A
:103A8000DBBA606B091D00F0D7FAA06A854200D24C
:103A9000A562BDE8F0810000A4000020540A0020C7
:103AA0002DE9F041054600F0EBFA2E4CA068401CD1
:103AB000A06020682C4F10B1606940B32DE02560F4
:103AC000A068012829D1002606EB860007EB8000BC
:103AD00000F0A4FA761C072EF6D323488C3000F0B1
:103AE0009DFA2148A03000F099FA1F48B43000F048
:103AF00095FA1D48C83000F091FA1B48DC3000F000
:103B00008DFA19488C3060631430A06305E020689A
:103B1000E96AC06A884200D82560606A401C606219
:103B2000E96A0120226988401043206101EB81008D
:103B300007EB8000291D00F097FA00F0C1FA6069D8
:103B400000280CD02068E96AC06A884207D2074979
:103B50004FF080500860BFF34F8FBFF36F8FBDE809
:103B6000F0810000A40000207809002004ED00E0AE
:103B700030B4026C0B46002A0BD0C1681144C160FE
:103B80008468A14201D30168C16030BC1846FCF7CB
:103B900054BC30BC70472DE9F041856B1746044694
:103BA0000026026C82B1C7B1E068FCF746FCE16810
:103BB000206C091AE1602268914202D2A168081AB9
:103BC000E060022F16D017E02068A8B9A06800F0C6
:103BD000E5FF06460020A0600EE06068FCF72DFCC3
:103BE000216C606808446060A168884204D3206842
:103BF000606001E005B16D1E6D1CA5633046BDE837
:103C0000F08110B5044690F8510058B101280CD04D
:103C100002280FD0502080F31188BFF34F8FBFF3DD
:103C20006F8FFEE7206B00F05FFA2046BDE8104082
:103C300000F05ABA10BD000010484FF4705142070E
:103C400006D0C01D0D4920F00700411AC1F5705182
:103C50000B4A00230144C2E900030839183A21F055
:103C6000070111604B600B600B1AC0E900139360F1
:103C70004FF000405360506170470000680A002018
:103C8000F8000020144E154CA6F1C8074FF08058DC
:103C9000DFF84C9012E000BF00F0F2F9F068C56860
:103CA000281D00F09DF9A068401EA0606068401EBD
:103CB000606000F005FA2846FFF7A3FF606800285F
:103CC000EAD138680128F9D9C9F80080BFF34F8FCD
:103CD000BFF36F8FF2E70000400A0020A40000202D
:103CE00004ED00E00346009829B10260C0E90F31FD
:103CF000012100F057BC0060F8E72DE9F0479A4633
:103D0000DDE9098481466FF00303206B03EB820237
:103D10001044089E20F00707780707D0502080F352
:103D20001188BFF34F8FBFF36F8FFEE7002561B19E
:103D3000002023180A5C83F834200A5C12B1401C6E
:103D40001028F6D384F8435001E084F83450072E4D
:103D500000D30626E662C4E91165201D00F069F96A
:103D600004F1180000F065F92461C6F107006462EF
:103D7000A061E56484F8505052464946384600F048
:103D800005F92060B8F1000F01D0C8F80040BDE887
:103D9000F087000030B5114900E011460A68824200
:103DA000FBD34B685C18844203D1406818444860D8
:103DB000084643681C18944209D1084C183C2468F2
:103DC000A24209D052681A4442600A68126802602E
:103DD000814200D0086030BD0460F9E7F80000209F
:103DE00010B5044600F04CF9A06B28B15FF0000458
:103DF00000F066F9204610BD0124F9E70648416B42
:103E0000096829B1416BC968C9684968816270470E
:103E10004FF0FF31FAE70000A40000200848406896
:103E2000401C4FF0500080F3118804D0BFF34F8F37
:103E3000BFF36F8FFEE7BFF34F8FBFF36F8FFEE7C8
:103E4000000100202DE9F041044600F019F994F931
:103E5000455004F1240609E0606A48B1304600F09C
:103E6000E9FE08B100F078FA6D1E6DB2002DF3DCAA
:103E70004FF0FF3684F8456000F022F900F000F9B9
:103E800094F9445004F1100709E0206948B138461C
:103E900000F0D0FE08B100F05FFA6D1E6DB2002D8B
:103EA000F3DC84F84460BDE8F04100F009B900009B
:103EB0002DE9F0410546002700F0A2FA324E3068A5
:103EC00008B9FFF7B9FE706905424ED1C5B3083590
:103ED00068070ED005F00700C0F108000544680728
:103EE00007D0502080F31188BFF34F8FBFF36F8F3F
:103EF000FEE72DB37068854237D823481830014655
:103F00000C6801E020460C466168A94202D2216893
:103F10000029F7D131688C4227D0076821680160F9
:103F200060680837411B10290FD96019420708D073
:103F3000502080F31188BFF34F8FBFF36F8FFEE7E0
:103F400013E041606560FFF725FF61687068401A03
:103F50007060B268904200D2B06070690143002086
:103F6000C4E90001F068401CF06000F09DFE780795
:103F700007D0502080F31188BFF34F8FBFF36F8FAE
:103F8000FEE73846BDE8F081E000002010B5031FD1
:103F90004FF080741C601B1F21F001011960191F74
:103FA000044B0B6014390A60091F6FF00202443899
:103FB0000A6010BD1D3E000801EE100A70EEC00A36
:103FC0000120B8EEC11A8840401E21EE201A00EEF2
:103FD000900AF8EEE01AC1EE210A30EE800A70472E
:103FE000D0E9013201699A60D0E901235A604A6838
:103FF000824201D182684A60002202610868401E44
:104000000860086870470000034B036003F1540028
:1040100008608020106070479404002000F10801BF
:104020004FF0FF32C0E90112C1600161002101605F
:10403000704700210161704730B50B685A1C02D0EF
:1040400000F1080202E0026904E022465468256893
:104050009D42FAD953684B6099608A60516008614B
:104060000168491C016030BD42684A6093688B60FA
:1040700093685960916008610168491C016070474C
:10408000502080F31188BFF34F8FBFF36F8F0A4921
:104090004868401C486001280CD10848006810F0AE
:1040A000FF0F07D0502080F31188BFF34F8FBFF36D
:1040B0006F8FFEE7704700000001002004ED00E074
:1040C0000849486828B1401E486001D180F3118832
:1040D0007047502080F31188BFF34F8FBFF36F8F6D
:1040E000FEE700000001002070B500282AD0164D20
:1040F000A0F1080460686969084207D1502080F384
:104100001188BFF34F8FBFF36F8FFEE722683AB17C
:10411000502080F31188BFF34F8FBFF36F8FFEE7FE
:104120008843606000F06CF9606869680844686002
:104130002046FFF72FFE2869401C2861BDE870402B
:1041400000F0B2BD70BD0000E00000204FF0E020A4
:1041500000210161816105494FF47A720968B1FB60
:10416000F2F1491E4161072101617047A000002062
:1041700010B5FCF7C7F8114910280ED300F1E02064
:1041800090F8F0030A78904207D2502080F311880B
:10419000BFF34F8FBFF36F8FFEE709480068896850
:1041A00000F4E060884207D9502080F31188BFF303
:1041B0004F8FBFF36F8FFEE710BD0000000100209E
:1041C0000CED00E010B5020014D00F48006B38B1C0
:1041D000502080F31188BFF34F8FBFF36F8FFEE73E
:1041E00000F00EF900211046FFF722FC00F05CFD04
:1041F000002807D105494FF080500860BFF34F8F6A
:10420000BFF36F8F10BD0000A400002004ED00E09C
:1042100070B50D4604000BD095B11E4A106BB8B1B5
:10422000502080F31188BFF34F8FBFF36F8FFEE7ED
:10423000502080F31188BFF34F8FBFF36F8FFEE7DD
:10424000502080F31188BFF34F8FBFF36F8FFEE7CD
:1042500000F0D6F8D26823685919934204D98B42EA
:104260000AD9914202D807E08B42FAD9881A216014
:104270000021FFF7DDFB00E0216000F015FD0028C4
:1042800007D105494FF080500860BFF34F8FBFF34F
:104290006F8F70BDA400002004ED00E070B50546EE
:1042A000FFF7EEFE254C05B92568281DFFF798FE9F
:1042B00058B9E86A224A00EB800152F8211021B96E
:1042C00001218140206988432061A86A18B105F165
:1042D0001800FFF785FE606A401C60622068854216
:1042E00008D11748291DC830FFF7BEFE6068401C82
:1042F000606007E0A068401EA0602846FFF781FCD0
:10430000FFF77CFDFFF7DCFE6069002814D0206811
:10431000854211D1206B38B1502080F31188BFF352
:104320004F8FBFF36F8FFEE706494FF08050086054
:10433000BFF34F8FBFF36F8F70BD0000A40000204C
:104340007809002004ED00E002490A6A0260C968A9
:1043500041607047A400002001490120C8617047F6
:10436000A400002010B50C4650B109490968183165
:10437000FFF762FE2046BDE810400121FFF758BB61
:10438000502080F31188BFF34F8FBFF36F8FFEE78C
:10439000A400002010B586B00024039405AA04A947
:1043A00003A80494FFF730FEDDE903010094CDE992
:1043B000011000230EA11048059A00F04AFB0F4996
:1043C0000028C86211D0502080F31188BFF34F8FAE
:1043D000BFF36F8F4FF0FF30886201204861CC60DF
:1043E00006B0BDE8104000F041B806B010BD0000B6
:1043F00049444C4500000000853C0008A400002012
:104400000248016B491C016370470000A4000020B2
:104410001448016B11B10121C16170470021C161D4
:104420000169B1FA81F1C1F11F0101EB81020E496D
:1044300051F822306BB101EB820101F108034A68A7
:1044400052684A609A4201D152684A60D16801605C
:104450007047502080F31188BFF34F8FBFF36F8FE9
:10446000FEE70000A4000020780900201CB53748B2
:104470000168374A914207D1502080F31188BFF379
:104480004F8FBFF36F8FFEE700683149491E8842A6
:1044900007D1502080F31188BFF34F8FBFF36F8F88
:1044A000FEE72C4908780190FF20087008788DF805
:1044B00000009DF800009DF8002000F0F000904200
:1044C00007D0502080F31188BFF34F8FBFF36F8F59
:1044D000FEE79DF80000204C00F0500020700720FF
:1044E000A06005E09DF8002052008DF80020401EDD
:1044F0009DF800201206F5D4A060032807D05020B4
:1045000080F31188BFF34F8FBFF36F8FFEE74FF437
:104510004070A060019808700C482030016841F498
:1045200070010160016841F070410160FFF70EFE0B
:1045300000206060FBF7AEFE0848016841F0404192
:104540000160FBF793FE00201CBD000000ED00E0C1
:1045500071C20F4100E400E00001002034EF00E0F0
:10456000F8B517460E46050013D005FB06F0483097
:10457000FFF79EFC04000AD0002084F8460004F1F6
:1045800048023B46314628460094FFF7ABFB2046E5
:10459000F8BD502080F31188BFF34F8FBFF36F8FAA
:1045A000FEE7000070B50D46040025D0FFF768FD5A
:1045B000D4E90F20216802FB0011A1600021A16352
:1045C000216861600A46D4E90F01401E00FB012109
:1045D000E16021464FF0FF3001F8440F487004F1CC
:1045E00010008DB1FFF71AFD04F12400FFF716FD4E
:1045F000FFF766FD012070BD502080F31188BFF3E6
:104600004F8FBFF36F8FFEE721690029F0D000F0D4
:1046100011FB0028ECD004494FF080500860BFF334
:104620004F8FBFF36F8FE3E704ED00E02DE9FF4705
:1046300082B01D468A464FF00008040003D0BAF14C
:10464000000F08D011E0502080F31188BFF34F8F86
:10465000BFF36F8FFEE7206C38B1502080F31188D4
:10466000BFF34F8FBFF36F8FFEE7022D0AD1E06BD0
:10467000012807D0502080F31188BFF34F8FBFF37C
:104680006F8FFEE700F010FA3F4F4FF000094FF038
:10469000805648B9049838B1502080F31188BFF390
:1046A0004F8FBFF36F8FFEE7FFF7EAFCA06BE16B64
:1046B000884207D3022D05D00498D0B1B8F1000F7D
:1046C0001AD01EE02A4651462046FFF764FA616A76
:1046D00019B104F1240000F0ADFA20B13E60BFF33F
:1046E0004F8FBFF36F8FFFF7EBFC012006B0BDE8E3
:1046F000F087FFF7E5FC22E06846FFF725FE4FF064
:104700000108FFF7DDFCFFF77BFEFFF7B9FC94F92A
:104710004400401C01D184F8449094F94500401CA9
:1047200001D184F84590FFF7CBFC04A9684600F05E
:1047300029F930B12046FFF785FB00F0B5FA0020DB
:10474000D4E7FFF79DFCA06BE16B884213D1FFF724
:10475000B7FC04F110000499FFF704FE2046FFF7B0
:1047600071FB00F0A1FA00289ED13E60BFF34F8F8D
:10477000BFF36F8F98E7FFF7A3FC2046FFF762FBBC
:1047800000F092FA90E7000004ED00E02DE9F04718
:104790001F4690468946040003D0B9F1000F08D0A7
:1047A00011E0502080F31188BFF34F8FBFF36F8F5C
:1047B000FEE7206C38B1502080F31188BFF34F8F93
:1047C000BFF36F8FFEE7022F0AD1E06B012807D0FD
:1047D000502080F31188BFF34F8FBFF36F8FFEE738
:1047E000FFF7C6FC5020EFF3118680F31188BFF36A
:1047F0004F8FBFF36F8FA06BE16B884206D3022F00
:1048000004D0002086F31188BDE8F08794F9455064
:10481000A06B3A4649462046FFF7BDF9681C04D014
:104820006D1C84F845500120ECE7606A0028FAD03E
:1048300004F1240000F0FEF90028F4D0B8F1000FD4
:10484000F1D00121C8F80010EDE700002DE9F7478D
:10485000002683B08A46040003D0BAF1000F08D0C6
:1048600011E0502080F31188BFF34F8FBFF36F8F9B
:10487000FEE7206C38B1502080F31188BFF34F8FD2
:10488000BFF36F8FFEE700F00FF9DFF8F4804FF011
:1048900000094FF0805748B9059838B1502080F38F
:1048A0001188BFF34F8FBFF36F8FFEE7FFF7E8FB71
:1048B000A56BC5B151462046FFF75AF96D1EA56399
:1048C000206950B104F1100000F0B4F928B1C8F823
:1048D0000070BFF34F8FBFF36F8FFFF7F1FB012025
:1048E00006B0BDE8F087059808B11EB106E0FFF7F5
:1048F000E7FB27E06846FFF727FD0126FFF7E0FB0F
:10490000FFF77EFDFFF7BCFB94F94400401C01D18A
:1049100084F8449094F94500401C01D184F84590F6
:10492000FFF7CEFB05A9684600F02CF800282046CA
:104930000AD0FFF787FA00F0B7F92046FFF750FAE0
:104940000028B3D00020CBE7FFF74AFA90B104F17A
:1049500024000599FFF706FD2046FFF773FA00F0E3
:10496000A3F90028A2D1C8F80070BFF34F8FBFF39E
:104970006F8F9BE72046FFF765FA00F095F995E702
:1049800004ED00E02DE9F0410C46050011D0C4B162
:10499000FFF776FB174BDA686E682068911B471C9F
:1049A00017D02F681B6A9F4219D0964217D801244E
:1049B00010E0502080F31188BFF34F8FBFF36F8F4B
:1049C000FEE7502080F31188BFF34F8FBFF36F8F46
:1049D000FEE70024FFF774FB2046BDE8F081884223
:1049E00005D9401A20602846FFF7AEFCF1E7002009
:1049F0002060DCE7A40000202DE9FF5F8346DDE9AD
:104A00000E87994616468A469000FFF751FA050030
:104A10001CD05420FFF74CFA040014D0002025636A
:104A200084F85100CDE90240CDE900874B4632467B
:104A300051465846FFF761F92046FFF731F801204B
:104A400004B0BDE8F09F2846FFF74EFB4FF0FF3063
:104A5000F6E7F0B585B0DDE90B640A9DA6B1DCB1DF
:104A6000542700972663022684F85160002604AF7D
:104A7000CDE90246CDE90057FFF73FF92046FFF7A1
:104A80000FF8049805B0F0BD502080F31188BFF3F3
:104A90004F8FBFF36F8FFEE7502080F31188BFF375
:104AA0004F8FBFF36F8FFEE70548416919B1006B67
:104AB00018B10020704701207047022070470000A5
:104AC000A40000200148C06870470000A400002036
:104AD0002DE9F0412F4C0026206B28B1A069401C25
:104AE000A0613046BDE8F081E5686D1CE56013D13A
:104AF000606B006838B1502080F31188BFF34F8F8E
:104B0000BFF36F8FFEE7606BA16B6163A063206AE8
:104B1000401C2062FFF772F9A06ADFF87C808542B2
:104B200009D3606B0068A0B1606BC068C768786823
:104B3000854211D2A0622068C06A00EB800158F85B
:104B40002100012800D90126E0690028C9D00126EA
:104B5000C7E74FF0FF30EDE7381DFFF741FAB86ABD
:104B600018B107F11800FFF73BFAF96A0120226932
:104B700088401043206101EB810108EB8100391D61
:104B8000FFF772FAF86A2168C96A8842C9D3012618
:104B9000C7E70000A40000207809002070B50400D9
:104BA0004FF0000140D0214D2868844207D05020AA
:104BB00080F31188BFF34F8FBFF36F8FFEE7A06CB8
:104BC00038B1401EA064636CE26A9A422CD040B1B6
:104BD0002AE0502080F31188BFF34F8FBFF36F8F0F
:104BE000FEE7201DFFF7FCF9114A012150B9E06AE8
:104BF00000EB800352F8233023B92B6901FA00F04F
:104C000083432B61606CE062C0F10700A061E06A41
:104C10002B6981401943296100EB800002EB800081
:104C2000211DFFF721FA0121084670BDA4000020D4
:104C3000780900202DE9F041C068C468ACB104F1E6
:104C400018000746FFF7CCF9154D286B0126A0B1D7
:104C500039461448FFF708FAE06A2968C96A8842A9
:104C60001CD90120EE61BDE8F081502080F311884D
:104C7000BFF34F8FBFF36F8FFEE7201DFFF7B0F933
:104C8000E16A2A6906FA01F01043286101EB81000C
:104C90000449B43901EB8000211DDBE70020E2E785
:104CA000A40000202C0A00202DE9F0472C4D002400
:104CB0002746286B38B1FFF7E3F9286B401E2863BD
:104CC000286B40B146E0502080F31188BFF34F8F2E
:104CD000BFF36F8FFEE7A968224E0120D1B3A6F182
:104CE000B40980463068E8B1F068C46804F118007F
:104CF000FFF776F9201DFFF773F9E06A2A6908FAD1
:104D000000F11143296100EB800109EB8100211DB5
:104D1000FFF7AAF9E06A2968C96A8842E2D3C5F8B0
:104D20001C80DFE70CB1FFF769F8AC6944B1464677
:104D3000FFF7CEFE00B1EE61641EF9D10020A8613C
:104D4000E86938B10849012738070860BFF34F8F79
:104D5000BFF36F8FFFF7B4F93846BDE8F087000066
:104D6000A40000202C0A002004ED00E04FF0407069
:104D7000E1EE100A70470000AC4E0008F105000893
:104D800000000000000000008000000000000000A3
:104D900000000000844E00084508000803000000E1
:104DA0000000000080000000000000000000000083
:104DB000984E00085D080008030000000400000091
:104DC000000100000000000000000000744E000818
:104DD0002D06000803000000000000000001000094
:104DE00000000000000000005C4E00087138000860
:104DF0000100000000000000800000000000000032
:104E000000000000B84E000803380008030000004E
:104E10000000000080000000000000000000000012
:104E2000604E000879070008030000000000000041
:104E30000001000000000000000000000006101645
:104E4000000610160000000000000000010203042C
:104E50000607080900000000010203046C656400F5
:104E600041726D5F436F6E74726F6C5F5461736BF0
:104E70000000000043616E5F53656E645461736BA4
:104E80000000000043616E315F52656365697665BD
:104E90005461736B0000000043616E325F526563C2
:104EA000656976655461736B00000000537461722C
:104EB000745461736B000000566F666141737369CF
:104EC00073745461736B0000E84E0008000000200A
:104ED0000C010000E8010008F44F00080C0100205C
:104EE000BC4B0000040200080000803F00000000EE
:104EF00000000000000000000000803F0000803F34
:104F00000000000000000000000000000000803FE2
:104F1000C1070008110800080000000000000000A0
:104F20000000000034020020CC02002064030020B6
:104F3000FC030020FF0000FF00FF00000000FFFF57
:104F4000FF00000000FF00FF0000FF00FF0000FF67
:104F50000000000000000000000000000000000051
:104F60000000000000000000000000000000000041
:104F70000000000000000000000000000100000030
:104F800010000000000000000024F40000000000F9
:104F90000000000000000000000000000000000011
:104FA0000000000000000000000000000000000001
:104FB00000000000000000000000000000000000F1
:104FC00000000000000000000000000000000000E1
:104FD00000000000000000000000000000000000D1
:104FE000000000000000000000000000AAAAAAAA19
:044FF00000000000BD
:04000005080001AD41
:00000001FF
