:020000040800F2
:10000000606C002029030008A1490008433E000855
:10001000A9480008D90900081D7800080000000060
:10002000000000000000000000000000690200085D
:10003000A910000800000000C5020008D5550008FE
:100040004303000843030008430300084303000878
:100050004303000843030008430300084303000868
:100060004303000843030008430300084303000858
:10007000B90D0008430300084303000843030008C8
:10008000430300084303000843030008E90900088C
:10009000DD09000843030008430300084303000888
:1000A00043030008AD56000843030008430300085B
:1000B0004303000843030008430300084303000808
:1000C00043030008430300084303000843030008F8
:1000D0004303000843030008430300085D5B000876
:1000E00043030008430300084303000843030008D8
:1000F00043030008430300084303000843030008C8
:1001000043030008430300084303000843030008B7
:1001100043030008430300084303000843030008A7
:100120004303000843030008C50D0008430300080B
:10013000430300084303000843030008010A0008C2
:10014000F50900084303000843030008E14A0008DA
:100150004303000843030008D10D000843030008CF
:100160004303000843030008430300084303000857
:100170004303000843030008430300080000000095
:10018000430300084303000800F002F800F05CF8A5
:100190000AA090E8000C82448344AAF10107DA45E2
:1001A00001D100F051F8AFF2090EBAE80F0013F0D8
:1001B000010F18BFFB1A43F00103184768950000B0
:1001C000889500000A444FF0000C10F8013B13F032
:1001D000070408BF10F8014B1D1108BF10F8015BA0
:1001E000641E05D010F8016B641E01F8016BF9D193
:1001F00013F0080F1EBF10F8014BAD1C0C1B09D1EA
:100200006D1E58BF01F801CBFAD505E014F8016B5B
:1002100001F8016B6D1EF9D59142D6D370470000ED
:100220000023002400250026103A28BF78C1FBD8FF
:10023000520728BF30C148BF0B6070471FB508F098
:10024000A7FE1FBD10B510BD00F0A6F91146FFF7BF
:10025000F5FF07F067FB00F0C4F903B4FFF7F2FF06
:1002600003BC00F0CBF900002C4B19680868B0E81B
:10027000F04F80F30988BFF36F8F4FF0000080F3D9
:10028000118870470000000008480068006880F38B
:1002900008884FF0000080F3148862B661B6BFF39F
:1002A0004F8FBFF36F8F00DF00BF00BF08ED00E08E
:1002B000DFF80C00016841F470010160704700BF75
:1002C00088ED00E0EFF30980BFF36F8F134B1A68DE
:1002D0001EF0100F08BF20ED108A20E9F04F1060CB
:1002E00009B44FF0500080F31188BFF34F8FBFF374
:1002F0006F8F08F05BF84FF0000080F3118809BCA5
:1003000019680868B0E8F04F1EF0100F08BFB0EC95
:10031000108A80F30988BFF36F8F7047B400002004
:10032000EFF30580704700000948804709480047FF
:10033000FEE7FEE7FEE7FEE7FEE7FEE7FEE7FEE795
:10034000FEE7FEE704480549054A064B70470000F2
:100350009D5600088901000860660020606C00203E
:10036000606800206068002053EA020C00F0698099
:100370002DE9F04B4FF00006002B1FBFB3FA83F5B9
:1003800003FA05F424FA05F65E4012BF1643B2FAEA
:1003900082F502FA05F4C5F120051EBF22FA05FC1C
:1003A00044EA0C04203556EA044C4FEA144418BFC2
:1003B000641C4FF000084FF00009904271EB030CF1
:1003C00039D3002919BFB1FA81F701FA07F6B0FA5B
:1003D00080F700FA07F6C7F120071EBF20FA07FCD6
:1003E00046EA0C062037B6FBF4FCA7EB0507103FE6
:1003F00007F01F0BCBF120060CFA0BFB2CFA06F6CC
:1004000044BFB3460026202FA4BF5E464FF0000B2A
:100410005BEA060C08BF4FF0010B19EB0B09ABFBB5
:10042000027C48EB0608C01B06FB02CC0BFB03CC8E
:1004300071EB0C01C1E70B46024641464846BDE858
:10044000F08B13B54FF000004FF00001AFF30080C8
:10045000BDE81C407047032A40F2308010F0030CC6
:1004600000F0158011F8013BBCF1020F624498BF07
:1004700011F801CB00F8013B38BF11F8013BA2F1A4
:10048000040298BF00F801CB38BF00F8013B11F01F
:10049000030300F02580083AC0F0088051F8043BBF
:1004A000083A51F804CBA0E80810F5E7121D5CBF2C
:1004B00051F8043B40F8043BAFF30080D20724BF5F
:1004C00011F8013B11F801CB48BF11F8012B24BFF3
:1004D00000F8013B00F801CB48BF00F8012B704742
:1004E00010B5203AC0F00B80B1E81850203AA0E8CF
:1004F0001850B1E81850A0E81850BFF4F5AF5FEA03
:10050000027C24BFB1E81850A0E8185044BF18C9B5
:1005100018C0BDE810405FEA827C24BF51F8043B5C
:1005200040F8043B08BF7047D20728BF31F8023BB0
:1005300048BF11F8012B28BF20F8023B48BF00F844
:10054000012B70474FF0000200B5134694469646C3
:10055000203922BFA0E80C50A0E80C50B1F12001D6
:10056000BFF4F7AF090728BFA0E80C5048BF0CC084
:100570005DF804EB890028BF40F8042B08BF7047E2
:1005800048BF20F8022B11F0804F18BF00F8012B54
:100590007047704770477047754600F02BF8AE46BD
:1005A00005006946534620F00700854618B020B57F
:1005B000FFF7C8FEBDE820404FF000064FF00007EF
:1005C0004FF000084FF0000B21F00701AC46ACE8FB
:1005D000C009ACE8C009ACE8C009ACE8C0098D4668
:1005E000704710B50446AFF300802046BDE81040C8
:1005F000FFF733BE0048704700660020014918200D
:10060000ABBEFEE726000200704700002DED0E8B0A
:10061000534CDFED54BA9FED54CADFED54CA9FED41
:1006200054DA41F28836B500DFED52DA9FED52EA36
:10063000DFED529A9FED52AADFED52AA9FED52BA1A
:10064000524F4FF47A7842F2107900BF07F0E6FC7F
:10065000226801214E489047226802214D48904768
:10066000B0EE6B8AF0EE4C8AB0EE6C9AB2EE042AD1
:10067000F0EE481AB3EE091AF0EE680AB0EE490A35
:10068000454807F041F9B2EE042AF0EE481AB3EEFD
:10069000091AF0EE680AB0EE490A404807F034F94A
:1006A000F0EE4D8AB0EE082AF0EE681AB1EE041AA8
:1006B000FBEE0E0AB3EE0E0A394807F025F9B7EE45
:1006C000002AF0EE681AB0EE481AFAEE040AB2EE0A
:1006D000040A344807F018F9B0EE6D8AB0EE4E9A6D
:1006E00032462946B3EE0E1AF0EE480AB0EE490A39
:1006F0002D4803F0A7FB32462946B3EE0E1AF0EE62
:10070000480AB0EE490A294803F09CFBB0EE693A6A
:10071000F0EE4A2AB0EE6A2AF6EE001AB6EE001A99
:10072000F0EE680AB0EE4B0A214804F009FC42469C
:100730004946B0EE081AF6EE000AB2EE0E0A1D485F
:1007400003F080FB00F06CFA00F0A4FCB86B07F03B
:1007500073FD07F083FC012007F001F976E7000044
:1007600030010020CDCCCC3D0000C8C20000C84202
:100770000AD7233C000000000000204200002F4464
:100780000000FA4500409C4600004842000000205E
:10079000640500208C0500209C600020DC600020A7
:1007A0001C6100205C610020BC6400200C650020FE
:1007B0005C650020B06500208AB0084E6C464FF0A2
:1007C000FF3707AD3A466946306808F00DF809ABC7
:1007D0002A46211D009800F03FFEF3E708000020A4
:1007E00070B50C46050008D0022C06D9FF22611E08
:1007F00000F012FE291901F8010C70BDF0B585B0AA
:1008000000202D4C039004900190029020882B4DE5
:10081000010A8DF80C108DF80D006088294E010A30
:100820008DF80E108DF80F00A08840F20F13010A0A
:100830008DF810108DF811002089010A8DF8121022
:100840008DF8130003A800906F6800221C493068DF
:10085000B847608940F21F13010A8DF804108DF823
:100860000500E07D8DF80600617E9DF8070001F02F
:1008700001010843217B01F0010140EA4100217E92
:1008800001F0010140EA8100A17D01F0010140EA8F
:10089000C1008DF807000C488088010A8DF8081007
:1008A0008DF8090001A800906C68002204493068A6
:1008B000A04705B0F0BD00007C62002030010020A0
:1008C0008C05002008000020E8620020DDE903120A
:1008D00088B243BA0C48090C49BAC381018491B269
:1008E00049BA09B200EE101ADFED080A110CB8EE91
:1008F000C00A01F00102C1F3400180EE201A80ED30
:10090000041A8276418470477C62002000007A4499
:100910002DE9F0412B4D2D4EA5F130042DED028B2C
:100920004FF47A77296960689FED278A081AB0F535
:10093000C87F23D33069A268801A00D5404232288C
:1009400018DAE868B0B92078A0B901202070E16019
:10095000F780B6F902001E4900EE100A1D48F8EEB5
:10096000C00AB0EE480A04F01BFABDEEC00A10EE51
:10097000100AF082286960603069A0602078002841
:1009800008D02869E168401A962807D30020207013
:1009900030696861BDEC028BBDE8F081F780B6F983
:1009A00002000B4900EE100A0A48F8EEC00AB0EE49
:1009B000480A04F0F5F9BDEEC00A10EE100AF08204
:1009C000E8E700002C02002000007A44E8620020E2
:1009D0001C610020B0650020FEE70000014800F027
:1009E000A4BE000064050020014800F09EBE000087
:1009F00064050020014800F098BE00008C0500202E
:100A0000014800F092BE00008C05002010B504469D
:100A1000491EC8B200EB400101EB00100E49002254
:100A200001EB800101230A614A614A62C1E90623A0
:100A30000A604A608A600B622046CA6000F074FD5A
:100A400008B100F0C3FB204601F0EAF82046BDE8FB
:100A50001040022100F0EEBC9C61002010B58AB06D
:100A60000C9C009192B102930021CDE90321082250
:100A700005928DF81810216807916168002308918C
:100A80001A46694607F0A0FD0AB010BD0193EBE7D6
:100A9000002070470020704710B500220449054827
:100AA00005F05EFA0449034805F04DFA002010BD38
:100AB000A8140020CC070020A80C002038B504465C
:100AC00001460C4805F03FFA0A4805F015FA0A48B5
:100AD00000236A462146006807F026FE009838B1D8
:100AE00006494FF080500860BFF34F8FBFF36F8F00
:100AF000002038BDCC0700200C00002004ED00E0F1
:100B000000207047094A10B5D2F8BC22D2F814224E
:100B10000AB1012010BD0A460146044805F020FA3A
:100B2000BDE81040014805F095BA0000CC07002050
:100B30008EB0134E4FF0FF3709AD3A4605A9306825
:100B400007F052FE059CA4F20520012806D81422C5
:100B500029466846FFF7C4FC0A4809E0A4F500717D
:100B60000739EAD1142229466846FFF7B9FC06483E
:100B7000DDE90612D0F800C02046089BE047DCE71C
:100B8000000000206C010020640100208EB0174E90
:100B9000174D4FF0FF3940F20F170DF124084A4668
:100BA00005A9306807F020FE9DF83000059C00F094
:100BB0000F002880BC4208D1142241466846FFF746
:100BC0008FFC0C48D0F804C009E00128E7D11422BA
:100BD00041466846FFF784FC0748D0F80CC0DDE9C1
:100BE00006122046089BE047D9E7000004000020D9
:100BF0007A0200203C010020480100200748002123
:100C00000068B0F8442022B180F84610A0F84410E3
:100C10007047012280F84620F8E7000044010020D8
:100C20000F4810B590ED0B0A0E481049F2EE040A79
:100C300080ED030A80ED010A9FED0B0A81ED090AA0
:100C400080ED040AB1EE080A143003F04FFF0848A3
:100C5000002102220176C2754176C17610BD0000E6
:100C6000A06200207864002000000000C401002081
:100C70007C62002070B539483A4A3B4BB0F9061007
:100C8000057B374802EE101A384CD0ED041AB8EE46
:100C9000C22A90ED060AF2EE060ABAEE061A02EE33
:100CA000210A012D10EE101A80ED060A04D091429F
:100CB00018DDC0ED060A1BE0914202DDC0ED060A18
:100CC00005E010EE101A994201D980ED061A94ED54
:100CD000040AD0ED061A012130EE210A84ED030A40
:100CE00041610DE010EE101A994201D980ED061A0B
:100CF000416909B1012903D190ED060A84ED030A87
:100D0000E168914202DDC4ED030A03E0994201D992
:100D100084ED031A90ED020A154DBDEEC00A10EEE7
:100D2000101A05F8401F90ED030ABDEEC00A10EE40
:100D3000101A697090ED010A05ED040A90ED000AA1
:100D40000A4805ED030A94ED030A143003F0E6FEA9
:100D500094ED030A05ED050A70BD00007C620020D9
:100D6000C401002000003041000030C17864002040
:100D7000A0620020FFF77EBF90ED000A90ED011AFF
:100D8000F0EEC00AB0EEC11AF4EEC10AF1EE10FAAC
:100D900004D29FED070A80ED000A70479FED051A07
:100DA000F0EE400A40EE410AC0ED000A7047000034
:100DB00000000000CDCC4C3E014800F0BFBF000059
:100DC00024070020014800F0B9BF0000640600209D
:100DD000014800F0B3BF0000C406002001681823DA
:100DE000CAB2103AB2FBF3F2054B6FF30901032AC2
:100DF0009B5CC36500D9091D8165084670470000EA
:100E0000D090000810B5014600208B698A6A4FF027
:100E1000C07453B1B3F5005F15D072B1012A0CD084
:100E2000022A0AD0032A09D104E01AB1012A06D005
:100E3000022A03D1C96AC90100D5012010BDC96ABF
:100E4000A142FAD010BD002AF7D0012AF2D0022A1E
:100E5000F3D0032AF3D010BD30B50468256825F41B
:100E600080252560046863608368402B036803D095
:100E700099600068C26030BD9A600068C16030BD92
:100E800008B507F0EDFD009000F006F80521684672
:100E900007F08CF9F8E700002DE9F041DFF8C8C150
:100EA0002DED028B9CF80000012873D16F480026BD
:100EB0008CF800600188A0F11605C1F30A04A4F5BE
:100EC00080642C8041786434CA08817842EA4112F7
:100ED000C2F30A03A3F580636B80C278890941EAF3
:100EE0008202017942EA8122C2F30A02A2F58062FB
:100EF000AA8049084779C82C41EAC711C1F30A0101
:100F0000A1F58061E98000D82E805B1D0A2B00D8F6
:100F10006E80521D0A2A00D8AE80491D0A2900D8C9
:100F2000EE80B9092972C7F301176F72C2886A810E
:100F30000289AA814289EA81027B2A74427B6A740F
:100F4000C2896A82008AA0F5806000B2A88200F59A
:100F50002570B0F5A56F00D9AE82454C454A4FF0DB
:100F600001086773012F02D0032F06D006E0424B21
:100F700083F80C8082F8048000E016713F48032952
:100F800090ED000ABDEEC08A05D0022926D00129C5
:100F900054D055E05CE0EFB3E8882080A888404258
:100FA000608026736888E08028882081A88AA080D5
:100FB00018EE100A022F608104D0032F05D0012FF4
:100FC00008D045E00220A07500E0A6756676CCF852
:100FD00024603DE0A67584F8198039E038002FD0F0
:100FE000E8882080A88840426080B5F9020007F0B8
:100FF000BAFE9FED231B53EC112B07F0CBFE07F03D
:1010000083FEE08028882081404684F80C8018EE1A
:10101000101A00E014E061811B49022F91ED000AD3
:101020001A4981ED040A04D0012F02D0032F03D006
:101030000EE0A67560760BE0667609E0032F0ED011
:10104000267326806680A6802681E6800320607352
:101050000F480068BDEC028BBDE8F041004703F08B
:101060003BF903F0D7FFF3E774010020666400202A
:101070007C620020740200201C020020200100205D
:101080009A9999999999C93F240100207864002080
:101090003C01002012220249024802F060BC00001C
:1010A000666400201C06002070470000364810B51A
:1010B000017B364C012902D1407B01280AD0002057
:1010C000E080B4F9020000EE100AF8EEC00A9FEDCD
:1010D000300A4EE0A068401FA06094ED040AF8EECC
:1010E000C00A00EE100A2B48B8EEC00A03F0D3FE87
:1010F000BDEEC00A10EE100A00B2E080B4F9021092
:1011000000EE101A2449F8EEC00A00EE100A234837
:10111000B8EEC00A03F044FEBDEEC00A42F2107100
:1011200010EE100AE082B4F90400084444F621618C
:10113000884227D3A06800F57A70A06094ED040A75
:10114000F8EEC00A00EE100A1248B8EEC00A03F02A
:10115000A2FEBDEEC00A10EE100A00B2E080B4F9A3
:10116000021000EE101AF8EEC00A00EE100AB8EEF7
:10117000C00A0949094803F013FEBDEEC00A10EE8B
:10118000100AE08210BD00001C020020E86200206E
:10119000000000005C6500201C610020B06500209C
:1011A000094810B5017B012902D1407B012803D0F9
:1011B000BDE8104004F0EAB903F0F4FBFFF7A8FB28
:1011C000BDE8104003F0D8BC1C02002072B6FEE758
:1011D0007047000010B500F049F81E481E4C90ED15
:1011E000000AF1EE400ABDEEC00AFDEEE00A10EE84
:1011F000101A10EE900A00B2A4F88800A4F8A81003
:1012000034F9821F00EE101A1449F8EEC00A00EEFD
:10121000100A1348B8EEC00A03F0C2FDBDEEC00AC2
:10122000104910EE100AA082B4F9200000EE100A56
:10123000B4F92600F8EEC00A00EE100A0A48B8EE2B
:10124000C00A03F0ADFDBDEEC00A10EE100AA08684
:1012500010BD000068020020086300209C60002090
:10126000BC640020DC6000200C6500200848417E42
:10127000084811B1084AD26812B19FED080A03E08C
:10128000012903D19FED060A80ED000A7047000096
:101290007C620020680200202C0200200000000078
:1012A00000C0C145F0B50446002500F1200103F05F
:1012B0004DF894ED080A04F1300104F1280003F020
:1012C000F5FA94ED090A04F13C0104F1340003F04D
:1012D000EDFA94F93000434EC0EBC002D4ED0A1A87
:1012E000D4ED0D0A94F93C0006EB820303EB800178
:1012F00061EEA02A91ED000A01EE105A94F93D101A
:1013000094ED0B3A02EE801A94ED0E0A03EB810382
:1013100021EE802AD3ED001A94F93130C3EBC303D8
:1013200002EE211A06EB830663EE201A06EB800715
:1013300023EE003AD7ED000A06EB8106294F01EEB5
:10134000A01A96ED000AC43707EB820606EB800C64
:1013500006EB810603EE001ADCED000A00EE105ADF
:1013600002EEA00AD6ED000A07EB830606EB800723
:1013700006EB810602EE200AD7ED000A01EEA00A74
:10138000D6ED000A184E06EB820202EB800703EE50
:10139000200AD7ED003A00EE905A02EB810242EEAD
:1013A000A30AD2ED002A06EB830202EB800042EE94
:1013B000220A90ED002A02EB810041EE820AD0ED74
:1013C000001A43EE210AF0EE081A81EE212A80EE7F
:1013D000211A84ED002A80EEA10A84ED011A84ED21
:1013E000020AF0BDF090000878920008094A21B185
:1013F000012904D002290BD108E0D16800E09168EE
:10140000C14011F0010F03D0012070471169F7E7C7
:1014100000207047C863002010B5054C04E000BFF1
:1014200010F8013B5340E25C491EF9D2104610BD52
:101430003C93000890F82020012A07D0022A05D00A
:10144000416A41F48021416201207047006842698D
:101450000A43426100207047F0B590F820500468BC
:10146000A468012D05D0022D03D0416A41F48021EA
:1014700057E014F0406F01D1E5004FD5C4F301648B
:101480000125A5401D608D684FF4C0739DB1CE68E5
:1014900035434E6845EAC605066803EB0417F55167
:1014A0004FF4C275076805EB04150E697E51097D7E
:1014B000012905D009E00E88CD6845EA4655EBE7DD
:1014C00001684E5946F480764E511179D579567996
:1014D00041EA056195792D0445EA062529434FF433
:1014E000C676056806EB0416A9511178D57841EA4D
:1014F0000561957852782D0445EA022211434FF494
:10150000C475026805EB04155151006803EB041122
:10151000425842F0010242500020F0BD416A41F4BD
:10152000001141620120F0BD10B590F82020012A81
:1015300007D0022A05D0416A41F48021416201208E
:1015400010BD3B48D0F8002242F00102C0F8002252
:10155000D0F8002222F47C52C0F80022D0F80022F9
:101560004B6A42EA0322C0F800220A7D02F01F0300
:1015700001229A40D0F81C329343C0F81C32CB6948
:10158000B3B9D0F80C329343C0F80C328C894B6855
:1015900064F31F434C6900EBC404C4F840320C8967
:1015A0000B6864F31F434C6900EBC404C4F8443275
:1015B000CB69012B16D1D0F80C321343C0F80C3292
:1015C0000C884B6864F31F434C6900EBC404C4F8F7
:1015D00040320C89CB6864F31F434C6900EBC404B0
:1015E000C4F844328B69002BD0F804320ED0134378
:1015F000C0F804320B69002BD0F8143208D0134322
:10160000C0F81432096A012904D008E09343EFE7D7
:101610009343F5E7D0F81C121143C0F81C12D0F820
:10162000001221F00101C0F80012002010BD0000DE
:1016300000640040704770B590F82040012C05D040
:10164000022C03D0416A41F4802128E0046809B3E8
:101650002469A40720D04FF4D874056804EB011462
:101660002D5915F00405956005682D591AD0ED081F
:10167000556005682C5904F00204D4604FF4DA7404
:10168000056804EB01142E5906F00F06082E0CD342
:1016900008250DE0E468DCE7416A41F4001141628D
:1016A000012070BD6D0D1560E3E72D5905F00F05A4
:1016B000156105682D59C5F30725956105682C59F5
:1016C000240C54614FF4DC72046802EB0112A4583C
:1016D0001C700468A458240A5C700468A458240C84
:1016E0009C700468A258120EDA704FF4DE7204681F
:1016F00002EB0112A4581C710468A458240A5C71FE
:101700000468A458240C9C710468A258120EDA7163
:10171000006829B1016941F020010161002070BD1C
:10172000C16841F02001C160F8E72DE9F05F05468E
:10173000006800244669D0F804908768D0F80CB09F
:10174000D0F810A0D0F81880F10748D0F90714D0CD
:1017500001218160B80703D5284600F08EFA0CE01D
:10176000780702D54FF4006407E0380702D54FF43C
:10177000805402E0284600F07FFAF80516D5296863
:101780004FF480708860B80503D5284600F077FADA
:101790000CE0780502D544F4005407E0380502D582
:1017A00044F4804402E0284600F068FAF80316D5B5
:1017B00029684FF480308860B80303D5284600F0CC
:1017C00060FA0CE0780302D544F4004407E03803E3
:1017D00002D544F4803402E0284600F051FA300784
:1017E00007D55FEACB6004D52968102044F4007463
:1017F000C86070074FF0080707D55FEA0B7004D583
:101800002868C760284600F0A9F9B00706D52868FF
:10181000C068800702D0284600F0A2F9700607D5FC
:101820005FEACA6004D52968102044F48064086126
:10183000B00607D55FEA0A7004D528680761284614
:1018400000F0EAF9F00606D528680069800702D0A2
:10185000284600F0E2F9B00308D55FEAC96005D573
:10186000296810204860284600F0D8F9F00307D511
:101870005FEA097004D528684760284600F002FA3C
:10188000300446D55FEA497040D5F00504D55FEADB
:10189000C87001D044F00104B00504D55FEA887037
:1018A00001D544F00204700504D55FEA487001D503
:1018B00044F00404300529D518F0700F26D008F044
:1018C0007000402815D006DC102809D020280AD046
:1018D000302816D10AE050280ED0602811D10EE031
:1018E00044F008040DE044F010040AE044F0200441
:1018F00007E044F0400404E044F0800401E044F4D4
:1019000080742868816921F0700181612968042050
:101910004860002C05D0686A204368622846FFF7BB
:1019200089FEBDE8F09F70B5040003D094F8200054
:1019300010B104E0012070BD204600F081F820685D
:10194000016841F00101016000F074FC05460526C4
:1019500004E000F06FFC401B0A2811D820684068A2
:10196000C007F6D02068016821F00201016000F094
:1019700061FC05460BE000F05DFC401B0A2806D91F
:10198000606A40F40030606284F82060D2E720682A
:1019900040688007EFD4207E0128206801683DD090
:1019A00021F080010160607E01282068016838D044
:1019B00021F040010160A07E01282068016833D039
:1019C00021F020010160E07E0128206801682ED00E
:1019D00041F010010160207F01282068016829D0B2
:1019E00021F008010160607F01282068016824D08F
:1019F00021F004010160D4E902010843D4E9041292
:101A0000114308436168491E08432168C8610020EA
:101A10006062012084F82000002070BD41F0800148
:101A2000C0E741F04001C5E741F02001CAE721F0DD
:101A30001001CFE741F00801D4E741F00401D9E7F4
:101A4000F0B587B0044614216846FEF77BFD3E4B97
:101A50003E48DFF8F0E01968D4F800C03B4A03259F
:101A60000226092710300024491CF4452AD11960A8
:101A7000012907D1016841F000710160006800F0A0
:101A800000700590106840F0080010601068CDE903
:101A9000005600F00800CDE9047069462C48CDE9F5
:101AA000024500F0CFFA00220521132000F05AFC75
:101AB000132000F049FC00220521142000F052FC04
:101AC00014203AE0DFF88CE0F44538D1D0F800C0BB
:101AD0004CF0806CC0F800C0D0F800C001290CF0B8
:101AE000806CCDF814C0196007D1016841F0007115
:101AF0000160006800F000700590106840F002007E
:101B00001060106802AB00F0020005906020CDE983
:101B1000000683E8B00069460F4800F093FA0022FF
:101B200005213F2000F01EFC3F2000F00DFC0022AC
:101B30000521402000F016FC402000F005FC07B015
:101B4000F0BD0000006400403C000020303802403E
:101B5000000C024000680040000402407047000092
:101B6000F8B5274B02680021264C9A4200D001218B
:101B70002170C9B201EB4102234E02EB011106EBC9
:101B8000810202F1440300212832FFF754FD20783E
:101B900006F1980500EB400101EB001106EB810115
:101BA00000EBC00005EB80001C222831FEF798FCFA
:101BB000207800EB400202EB001206EB820300EB00
:101BC000C001D3E9112305EB8101C1E9072388B1E5
:101BD0000E4800236A46006806F0A6FD009800281B
:101BE00007D00B494FF080500860BFF34F8FBFF311
:101BF0006F8FF8BD294600236A460648EBE70000D0
:101C000000640040380100209C6100200400002096
:101C100004ED00E0000000207047704770470000AE
:101C200070B5044690F82000012804D0606A40F4A2
:101C30000020606218E0022084F82000206801681B
:101C400021F00101016000F0F5FA05460EE000BF49
:101C500000F0F0FA401B0A2808D9606A40F400300E
:101C60006062052084F82000012070BD2068406873
:101C7000C007EDD1606270BD704770477047704714
:101C80007047704770472DE9F0410446876D00F0BA
:101C9000D1FA064694F835000025022806D08020A7
:101CA000606584F834500120BDE8F0812068016847
:101CB00021F0160101602068416921F08001416135
:101CC000206C08B9A06C20B12068016821F00801DF
:101CD00001602068016821F0010101600CE000F062
:101CE000A9FA801B052807D920206065032084F805
:101CF000350084F83450D7E720680068C007EED17B
:101D000094F85C103F208840B860012084F83500CA
:101D100084F834500020C7E790F83510022903D02A
:101D20008021416501207047052180F83510006849
:101D3000016821F001010160002070472DE9F8439E
:101D400004464FF00009CDF8009063484FF4165157
:101D5000A56D0068B0FBF1F72E6894F85C100820C0
:101D600000FA01F131420FD021680A6852070BD501
:101D70000A6822F004020A6094F85C108840A860A7
:101D8000606D40F00100606594F85C104FF0010850
:101D900008FA01F0304208D021684969090604D5E3
:101DA000A860606D40F00200606594F85C1004204B
:101DB0008840304208D021680968890704D5A860A6
:101DC000606D40F00400606594F85C10102088405D
:101DD000304218D021680968090714D5A860206826
:101DE0000168490304D50068000308D5A16C07E029
:101DF0000168C90503D4016821F008010160216C64
:101E000009B12046884794F85C1020208840304271
:101E100031D021680968C9062DD5A86094F835002D
:101E200005282068016806D0490347D500680003EB
:101E30001DD4616C1CE021F016010160206841692D
:101E400021F080014161206C08B9A06C20B12068AC
:101E5000016821F00801016094F85C103F2088407F
:101E6000A86084F8358084F83490216D1FE0E16B20
:101E700009B120468847606D00282BD0606DC007EF
:101E800014D0052084F835002068016821F0010194
:101E900001600098401C0090B84203D82068006898
:101EA000C007F6D184F8358084F83490E16C0029BD
:101EB00010D001B02046BDE8F04308470168C905CD
:101EC000D5D4016821F01001016084F8358084F8D0
:101ED0003490CCE7BDE8F883B00000202DE9F04154
:101EE000044600F0A7F906465CB1022084F83500EC
:101EF000002584F834502068016821F00101016058
:101F00000DE00120BDE8F08100F094F9801B052868
:101F100005D920206065032084F83500F2E72068A9
:101F20000068C007F0D12268116820480140D4E958
:101F300001031843D4E90336334318436369184354
:101F4000A3691843E3691843236A18430843616A85
:101F5000042903D1D4E90B13194308431060206806
:101F60004069666A20F0070130460E4301270428C5
:101F70000CD1A06A0643E06A40B12046FEF742FF5A
:101F800020B14020606584F83570BAE7206846616A
:101F90002046FEF723FF94F85C203F2191408160AA
:101FA000656584F835700020ACE700003F8010F0D4
:101FB0002DE9F0410446866D90F834000025012893
:101FC0000DD0012084F8340094F835700020012FE2
:101FD00007D084F8340002252846BDE8F0810220AD
:101FE000FBE7022784F8357060652046FEF734FF72
:101FF00094F85C103F208840B0602068016841F090
:1020000016010160206C20B12068016841F00801D0
:1020100001602068016841F001010160DCE7000017
:1020200070B5044600F006F90546601C02D004486D
:102030000078044400F0FEF8401BA042FAD370BDC3
:10204000A40000202DE9F84FDFF8BCA100220125F3
:1020500003264FF00F090AF1040BAAF1040E00BF8A
:102060000B6805FA02F42340A34270D10F7907F000
:102070000307012F01D0022F16D187684FEA4208CB
:1020800006FA08FC27EA0C07D1F80CC00CFA08FC89
:102090004CEA070CC0F808C04768A7430C79C4F3A2
:1020A000001494403C4344600C79E443A4070AD0F4
:1020B000C4684FEA420C06FA0CF7BC438F6807FA73
:1020C0000CF72743C7600C7904F00304022C12D1EB
:1020D000D40800EB840CDCF820405707FF0E09FA07
:1020E00007F824EA0804D1F8108008FA07F848EA4B
:1020F0000408CCF8208004684FEA420C06FA0CF77A
:10210000BC430F7907F0030707FA0CF72743076072
:102110004C6814F4403F70D03C4C276847F480472B
:102120002760246822F0030704F480440094384CAC
:1021300007EB040CDCF8084897074FEA177809FA10
:1021400008F7BC43334FB84202D1002724E054E0E3
:10215000314FB84201D101271EE0304FB84201D1C2
:10216000022719E02E4FB84201D1032714E02D4F6A
:10217000B84201D104270FE02B4FB84201D1052707
:102180000AE02A4FB84201D1062705E0284FB8429D
:1021900001D1072700E0082707FA08F72743CCF802
:1021A0000878DAF800405746D1F804C09C435FEA4B
:1021B000CC2C00D51C433C60DBF800405F46D1F8D6
:1021C00004C09C435FEA8C2C00D51C433C60DEF8C5
:1021D00000407746D1F804C09C435FEA8C3C00D5B0
:1021E0001C433C60084F083F3C68D1F804C09C4346
:1021F0005FEACC3C00D51C433C60521C102AFFF423
:102200002FAFBDE8F88F0000083C01404438024081
:10221000003001400000024000040240000802407B
:10222000000C02400010024000140240001802405E
:10223000001C02400148806870470000A400002094
:10224000024881680278114481607047A400002030
:102250000B4810B5016841F400710160016841F458
:1022600080610160016841F480710160032000F029
:1022700099F80F2000F006F800F04AF8002010BD91
:10228000003C024030B505461C4887B00024016878
:1022900041F001010160006806A900F00100009012
:1022A00001A800F0E5FE00F019FF15494000B0FB61
:1022B000F1F11548134A491E026040F2E732C0E9C5
:1022C0000324C0E90114846101F034FA040012D13E
:1022D0000D4801F05DFA04000DD1192000F034F82A
:1022E000102D07D200222946192000F03BF807489C
:1022F000056000E0012407B0204630BD44380240AC
:1023000040420F000000014084070020A800002088
:102310000C4882B0016841F480410160006800F41B
:10232000804000900748001F016841F08051016023
:102330000068002200F0805000900F21901E02B033
:1023400000F010B844380240002809DB00F01F02FA
:10235000012191404009800000F1E020C0F8001107
:1023600070470000F0B40E4B1B680C46C3F3022309
:10237000C3F10705042D00D90425191D072901D231
:10238000002300E0DB1E012606FA05F1491E21406C
:1023900099409E40761E16403143F0BC05F06FBA5E
:1023A0000CED00E0064900F0070208684FF6FF0355
:1023B000184040EA0220034A1043086070470000BA
:1023C0000CED00E00000FA05704700684162002053
:1023D0007047F0B50368586A39B19C6A4FF4827649
:1023E00000EB144400204D1E0AE040EA02409862CF
:1023F0000FE006EB8007DF59401C04EB1744C0B226
:10240000A842F6D344EA02404FF4807202EB810105
:1024100058500020F0BDD0F8E00404F0B4B801EB4F
:10242000C10200EB8202D0F8E004126A04F005B8A1
:1024300001EBC10200EB8202D0F8E004D2F8602286
:1024400004F057B8D0F8E00404F09FB80A0601F091
:102450000F0101EBC10100EB810101D5143101E055
:1024600001F51571006804F085BF70B504460B06D0
:1024700001F00F0000EBC00104EB81014FF00102FD
:102480004FF0000502D54A75143103E081F855522A
:1024900001F51571087094F89404012808D084F8A7
:1024A0009424206804F080FC84F89454002070BDCB
:1024B000022070BD70B5044601F00F0022799042F1
:1024C00001D9012070BD0B0601F00F0101EBC10124
:1024D00004EB81014FF001024FF0000502D54A756F
:1024E000143103E081F8555201F515718D700870B3
:1024F00094F89404012808D084F89424206804F007
:10250000C5FD84F89454002070BD022070BD01F018
:102510000F0101EBC10100EB8100D0F868027047A8
:102520002DE9F04104460F0601F00F0000EBC00159
:1025300004EB81014FF001064FF0000502D54E7506
:10254000143103E081F8555201F51571C2F30A0206
:1025500008708A600B714A7802B14883022B00D15F
:102560004D7194F89404012809D084F8946420688B
:1025700004F068FB284684F89454BDE8F0810220FA
:10258000FBE710B501F00F0404EBC40100EB81017F
:10259000C1E998230023C1F8683281F8553281F8E7
:1025A0005442837901F51571012B00D1CA618279FA
:1025B000006804F0C3FD002010BD70B504460D4650
:1025C00001F00F002179884201D9012070BD290650
:1025D0004FF000064FF0010206D500EBC00104EBFE
:1025E00081014A75143107E005EBC50104EB810157
:1025F00081F8556201F515718A70087094F8940499
:10260000012807D084F89424206804F06BFD280783
:1026100002D007E0022070BDA17904F29C4220683C
:1026200004F008FD84F89464002070BD10B501F03A
:102630000F0404EBC40100EB8101C1E9082300236E
:102640008B6201234B7501F8144F8379012B00D164
:10265000CA618279006804F071FD002010BD00009D
:102660002DE9FC5F05680446284604F01FFF00289A
:102670007DD1206804F046FF002878D0D5F80808FE
:10268000C0F30D20C4F8D404206804F03BFF800799
:1026900004D52068416901F002014161206804F01D
:1026A00031FFC10604F29C40009034D52068816956
:1026B00021F0100181612F6A07F00F0000EBC000CC
:1026C00004EB8006C7F3434006F51576022802D0D6
:1026D000062811D01AE047F6F070074216D0C7F36B
:1026E0000A1217462846F16804F010FFF0683844D3
:1026F000F0607069384408E008222846009904F028
:1027000005FF7069C7F30A11084470612068816988
:1027100041F010018161206804F0F4FE00034FF0E5
:10272000080B4FF0000A4FF001097CD50026206805
:1027300004F0C7FE074674E0F80770D0F1B22068D5
:1027400004F0D8FE8046C00707D005EB4611C1F85B
:10275000089B3146204602F03FFA5FEA087024D514
:1027600005EB4611C1F808BB2068016C00E023E2CC
:1027700000EB46100191D0F8082BFB4B994205D98C
:10278000110403D54FF40041C0F8081B204600F0A7
:10279000F6FAF5490198884207D9A079012804D1B1
:1027A00020680121009A04F045FC5FEAC86004D566
:1027B00005EB46111020C1F8080B5FEA88701DD5A3
:1027C0006869000605D5D5F8040840F48061C5F8AD
:1027D000041806EBC60004EB800090F8571200F5D1
:1027E0001570012905D180F803A0F1B2204600F050
:1027F000E9F905EB46110220C1F8080B5FEA886091
:1028000004D505EB46102021C0F8081B5FEA88407C
:1028100005D505EB46104FF40051C0F8081B7F08A2
:10282000761C002F88D1206804F06CFE40036ED522
:10283000206804F03FFE0746002666E0F80762D0F5
:10284000F1B2206804F044FE8046C00723D006F0B1
:102850000F01D5F8342809FA01F18A43C5F8342864
:1028600005EB4611C1F80899A07901280FD106EBB4
:10287000C60004EB8000D0E907211144016236B99B
:10288000606A20B920680121009A04F0D3FBF1B2FC
:102890002046FFF7C4FD5FEA087003D505EB46113B
:1028A000C1F808B95FEAC86004D505EB46111020ED
:1028B000C1F808095FEA486004D505EB46104021DD
:1028C000C0F808195FEA887016D53146284604F02A
:1028D000C2FD06EBC60004EB8000C17D1430012967
:1028E00005D180F803A0F1B2204600F067F905EBAE
:1028F00046110220C1F808095FEA086003D5314695
:10290000204602F0CFF97F08761C002F96D1206870
:1029100004F0F8FD002811DAD5F8040820F00101D0
:10292000C5F8041894F8CC0401282BD0204600F0F8
:102930000BFA2068416901F000414161206804F010
:10294000E1FD00050BD5D5F80808C00702D02046E8
:1029500000F03EFA2068416901F40061416120689D
:1029600004F0D0FDC00467D5D5F8040820F00100BC
:10297000C5F804081021206804F06DFD00214FF611
:102980007F3220E084F8CCA400212046FFF71CFD14
:10299000CFE700BF05EB4110C0F80829D0F8003997
:1029A00023F40013C0F80039C0F8082BD0F8003B1E
:1029B00023F40013C0F8003BD0F8003B43F0006361
:1029C000C0F8003B491C20798842E3D8D5F81C08A0
:1029D00040F00111C5F81C18E07B002828460DD0F6
:1029E000D0F8840840F00B01C5F88418D5F84408E5
:1029F00040F00B012846C5F844180DE0D0F8140843
:102A000042F22B010843C5F81408D5F8100840F02D
:102A10000B012846C5F81018D0F8000820F4FE6114
:102A2000C5F80018A1792068009A04F003FB20681B
:102A3000416901F480514161206804F063FD800424
:102A400015D5206804F03EF9206804F022FDE071FD
:102A500000F02EFB0146E279206804F0B5FD204627
:102A600000F05CF92068416901F40051416120687F
:102A700004F048FD000707D5204600F069F92068FA
:102A8000416901F008014161206804F03BFD000646
:102A900016D5A86920F08001A96101260DE000BFCC
:102AA00006EBC60004EB800090F85702012803D122
:102AB000F1B22046FFF7CAFC761C2079B042EFD86D
:102AC000206804F01FFDC0021FD501264F4614E008
:102AD00005EB4610D0F8000906EBC60104EB8101B6
:102AE0000A7E012A08D1002806DACF75F0B240F03C
:102AF00080012046FFF7AAFC761C2079B042E7D877
:102B00002068416901F480114161206804F0FAFCF9
:102B1000800234D501204A4629E000BF05EB401170
:102B2000D1F8001B00EBC00304EB830393F8586259
:102B3000012E1BD1002919DA94F8D464C1F30041A5
:102B400006F001068E4211D183F85722A96941F09F
:102B50008003AB616969090608D4D5F8040840F41C
:102B60000070C5F8040805E00A30544F401C217974
:102B70008142D3D82068416901F400114161206885
:102B800004F0C0FC400007D52046FFF744FC206855
:102B9000416901F080414161206804F0B3FC4007C5
:102BA0000AD520684568680702D52046FFF74AFC29
:102BB0002068416829434160BDE8FC9FD0F8E004EB
:102BC00003F035BDD0F8E00403F045BDF8B50400CE
:102BD00005D094F895042668002510B106E0012080
:102BE000F8BD84F89454204600F056F8032084F889
:102BF0009504B6F1A04F00D1A571206804F014FA35
:102C0000207C8DF8000094E80F0004F069F802269B
:102C1000B8BB0021206804F098FC90BB002001277D
:102C20000DE000BF00EBC00104EB81014F7508759A
:102C3000C8850D76CD610D62401CC0B24D62217910
:102C40008142EFD8002011E000EBC00104EB8101CC
:102C500081F8555281F8540281F85852C1F85C52FB
:102C6000C1F86052401CC0B2C1F86452217981425F
:102C7000EAD8207C8DF8000094E80F0004F016F9E3
:102C800010B184F89564AAE7657484F89574206897
:102C900004F0FEF80020F8BD10B586B004461421FB
:102CA0006846FDF74FFC2068B0F1A04F2FD11948BE
:102CB0000021026842F001020260006800F0010099
:102CC00005904FF4C05000900220CDE9010103208F
:102CD00003900A20049069460F48FFF7B3F90D48A6
:102CE000001D016841F0800101600A48143001684C
:102CF00041F4804101600068002200F480400590AA
:102D000005214320FFF72EFB4320FFF71DFB06B0F4
:102D100010BD0000303802400000024070B504468B
:102D2000C079012570B1022801D0FEF74FFA29467B
:102D3000D4F8E00403F0FEFCD4F8E004BDE87040F1
:102D400003F0B2BC0025F2E7D0F8E00403F0DBBCEE
:102D5000D0F8E00403F0E1BC10B5044690F8940408
:102D600001280AD0012084F894046174206804F0DA
:102D70001AFC002084F8940410BD022010BDD0F885
:102D8000E02400F29C41104603F0E0BC10B504467C
:102D9000006894F89414012909D0012184F894144E
:102DA000C168490609D5617B012902D005E00220EE
:102DB00010BD816B41F480318163206804F029FBF0
:102DC000206804F057F8002084F8940410BD000037
:102DD00010B50446D0F8E00403F0FAFC2068D0F8FF
:102DE000001E41F00101C0F8001EE07A002804D066
:102DF0000248016841F00601016010BD10ED00E0DD
:102E00002DE9F843054600684FF00109C1074FF06E
:102E1000000601D1400727D5DFF80C81C8F86860AB
:102E2000FFF708FA0746414C05E000BFFFF702FA3A
:102E3000C01B022857D820680001F7D468688101B8
:102E4000287A41EA0070394984310860C8F86890EE
:102E5000FFF7F0F9074604E0FFF7ECF9C01B022882
:102E600041D820680001F7D52878800752D52F482F
:102E70004030016841F08051016000682C4C00F046
:102E800080500090206840F480702060FFF7D2F9F5
:102E9000074604E0FFF7CEF9C01B022823D82068BC
:102EA000C005F7D5214C7034206810F4407020D054
:102EB000A98901F4407181421BD020681D4920F48A
:102EC0004070C1F800900E6020602068C00710D0EC
:102ED000FFF7B0F9064641F2883707E0FFF7AAF995
:102EE000801BB84202D90320BDE8F8832068800720
:102EF000F4D5E9680D48C1F301220830032A0BD04C
:102F0000016821F4F81101602068A989C1F30B015F
:102F1000084320600020E7E70268074B22F4F8121C
:102F200019400A430260EFE70000474200380240C0
:102F300000700040400E4742FFFCFF0F2DE9F047B4
:102F40000E46050065D0DFF81481D8F80000F7B20E
:102F500000F00700B04207D288F80070D8F80000EF
:102F600000F00700B04254D128683D4C810712D5CB
:102F7000400703D5206840F4E0502060287800071F
:102F800003D5206840F4604020602068A96820F0E4
:102F9000F000084320602878C0072DD030496868C9
:102FA0000839012812D0022813D0032811D009684B
:102FB000890700292DDA216821F0030101432160EE
:102FC000FFF738F9814641F2883A0EE00968890333
:102FD000EFE709688901ECE7FFF72CF9A0EB09019D
:102FE000514502D90320BDE8F0872068696800F0E8
:102FF0000C00B0EB810FEFD1D8F80010404601F083
:103000000701B14207D90770006800F00700B0421D
:1030100001D00120E7E72878400705D52068E96856
:1030200020F4E050084320602878000706D5206887
:10303000296920F4604040EAC100206000F05EF899
:103040002168084AC1F30311515CC8400649086071
:1030500006480068FFF716F90020C4E7003C02406C
:1030600008380240D8900008B0000020A8000020D6
:103070000F2202600C4A136803F0030343601368D5
:1030800003F0F0038360136803F4E053C360126835
:103090004FF4E05303EAD20202610448006800F0F2
:1030A000070008607047000008380240003C0240FA
:1030B0000148006870470000B0000020044805493E
:1030C00000680968044AC1F38221515CC840704716
:1030D000B000002008380240E89000080448054984
:1030E00000680968044AC1F34231515CC840704726
:1030F000B000002008380240E8900008154810B5DC
:10310000006810F00C02144813D01449042A0FD0A0
:10311000082A0ED10F4C241F2268236802F03F02B8
:103120005B0207D52068C0F38810A0FB010106E010
:10313000084610BD2168C1F38811A1FB00010023DE
:10314000FDF712F92168C1F30141491C4900B0FBA8
:10315000F1F010BD083802400024F400001BB70055
:103160002DE9F84F04006ED02078DFF84C93C007AB
:10317000A9F104054AD009F104000168C1F38101F5
:10318000012908D00068C0F3810002280AD1D9F8CB
:103190000000400206D52868800337D56068002803
:1031A000E1D033E06068B0F5803F10D0B0F5A02FDB
:1031B000286810D020F480302860286820F480200F
:1031C00028606068A8B1FFF735F806460DE028686A
:1031D00040F48030F4E740F480202860F7E700BF37
:1031E000FFF728F8801B642873D828688003F7D578
:1031F0000CE0FFF71FF8064605E000BFFFF71AF8DE
:10320000801B6428F0D828688003F7D42078DFF882
:10321000AC8280074FF0000A3ED5A748001D016828
:1032200011F00C0F08D00068C0F3810002280BD108
:10323000D9F80000400207D42868800716D5E06856
:10324000012800D112E033E1E068B8B10120C8F8EC
:103250000000FEF7EFFF064605E000BFFEF7EAFFBD
:10326000801B0228C0D828688007F7D52868216904
:1032700020F0F80040EAC10028600DE0C8F800A086
:10328000FEF7D8FF064604E0FEF7D4FF801B0228B5
:103290001FD828688007F7D42078000722D5864FEA
:1032A00087486169703771B101210160FEF7C2FF83
:1032B000064604E0FEF7BEFF801B022809D83868E6
:1032C0008007F7D50EE0C0F800A0FEF7B3FF064672
:1032D00005E082E0FEF7AEFF801B02287DD838684B
:1032E0008007F7D42078400768D5DFF8CCB10027F5
:1032F0000BF13C0BDBF80000C0000BD4DBF8001036
:1033000041F08051CBF80010DBF80000012700F0FD
:10331000805000906B4E3068C00510D4306840F487
:1033200080703060FEF786FF009005E0FEF782FFB8
:103330000099401A022850D83068C005F6D55E4E74
:10334000A0686C3601280FD00528306810D020F016
:1033500001003060306820F004003060A068B8B12F
:10336000FEF768FF00900FE0306840F00100F4E7DE
:1033700040F004003060F7E7FEF75CFF0099411A67
:1033800041F28830814266D830688007F4D50EE07B
:10339000FEF750FF009007E0FEF74CFF0099411A3E
:1033A00041F28830814256D830688007F4D42FB17A
:1033B000DBF8001021F08051CBF80010A069C8B3F1
:1033C0003D49091D0968C1F3810102294AD002283B
:1033D000504607D0C8F8600000E03CE0FEF72AFF46
:1033E00004463BE04746C8F86000FEF723FF064668
:1033F00005E000BFFEF71EFF801B02282BD82868BF
:103400008001F7D4D4E907010843A16A2E4A49088C
:1034100002EB0141626A41EA8211084394F82C10E0
:1034200040EA0161C9F8001001203866FEF702FF8A
:10343000044606E03EE000BFFEF7FCFE001B02284B
:1034400009D828688001F7D534E000BFFEF7F2FE06
:10345000001B022802D90320BDE8F88F28688001EC
:10346000F4D427E00128F7D0D9F80000E26900F48D
:10347000800191421CD1226A00F03F01914217D194
:1034800047F6C071626A0140B1EB821F10D1A26A97
:103490004FF0FF3300F4403103EB5202B1EB024F27
:1034A00006D194F82C1000F07060B0EB016F01D0E1
:1034B0000120D1E70020CFE7043802400000474256
:1034C000800E4742007000400000FFFF10B504006E
:1034D00002D0607F10B106E0012010BD00202077EF
:1034E000204600F041F8022060772068C168C94397
:1034F000C90632D5CA21416221685320486220465C
:1035000001F04EFD20BB20688168164A11408160A1
:103510002168886862681043D4E904231A43104381
:1035200088602168E068086120680169228941EAB1
:1035300002410161204601F057FD48B921680A6C3B
:1035400022F480220A6421680A6CA3691A430A647F
:103550002268FF21516208B110BD0020012161776E
:1035600010BD0000BFFF8FFF1FB50021009101912A
:10357000029103910068084988420CD10220009012
:10358000000203906846FFF73BFC08B1FDF71EFE02
:103590000249012008601FBD002800403C0E474240
:1035A00070B50446007F0B46012819D00126267706
:1035B00002206077B2B19878D97840EA014558780E
:1035C0001978000240EA413005432168CA20486268
:1035D000216853204862204601F0E2FCD0B122E08D
:1035E000022070BD5878C10603D500F0EF000A3004
:1035F0005870D87801F0C9FC0204587801F0C5FC75
:1036000042EA0022987801F0C0FC0243187842EAAE
:103610004035DAE70748054020684560204601F05C
:10362000E3FC00B966772268FF215162002121770F
:1036300070BD00003FFFFF002DE9F0410446007F10
:103640000D46012823D04FF0010884F81C80022089
:1036500060772068002780684FEA4060D2B1002878
:1036600000DBEF70A878297840EA01466878E978AD
:10367000000240EA815006432168CA20486221685E
:1036800053204862204601F08BFCB8B12CE00220A8
:10369000BDE8F081002800DBEF70287801F075FCB0
:1036A0000204687801F071FC42EA0022A87801F077
:1036B0006CFC0243E87842EA8056DDE70D4806409C
:1036C000206806602068816821F480218160D5E946
:1036D0000301084321688A6810438860204601F08E
:1036E00083FC08B984F81D802268FF215162277786
:1036F000CEE700007F7F7F0070B504460B4821684D
:10370000C860FEF797FD05464FF47A7607E000BFE4
:10371000FEF790FD401BB04201D9032070BD206828
:10372000C0688006F4D5002070BD00005F7F0100F6
:103730007047704710B5040003D094F83D0010B1F5
:1037400007E0012010BD002084F83C00204600F076
:103750001EF8022084F83D00211D206801F0ACFF16
:10376000012084F8460084F83E0084F83F0084F885
:10377000400084F8410084F8420084F8430084F853
:10378000440084F8450084F83D00002010BD7047D7
:1037900090F83D10012901D001207047022180F8E6
:1037A0003D100168CA6842F00102CA600068114910
:1037B000884214D0B0F1804F11D00F4988420ED00A
:1037C0000E4988420BD00E49884208D00D498842E4
:1037D00005D00D49884202D00C49884204D1816845
:1037E00001F00701062903D0016841F001010160E1
:1037F0000020704700000140000400400008004025
:10380000000C00400004014000400140001800404E
:1038100070472DE9F04104460068C66805694FF01D
:103820000007A90713D5B10711D5F91E01610120C1
:103830002077206880698007204602D0FFF7E8FFE4
:1038400004E000F07EF8204600F07CF82777680757
:1038500016D5700714D521686FF0040008610220A6
:1038600020772068806910F4407F204602D0FFF75F
:10387000CFFF04E000F065F8204600F063F82777FA
:10388000280715D5300713D521686FF008000861A7
:10389000042020772068C0698007204602D0FFF707
:1038A000B7FF04E000F04DF8204600F04BF8277712
:1038B000E80616D5F00614D521686FF010000861EF
:1038C000082020772068C06910F4407F204602D08D
:1038D000FFF79EFF04E000F034F8204600F032F8D5
:1038E0002777E80708D0F00706D021686FF00100BD
:1038F0000861204600F028F8280608D5300606D5CD
:1039000021686FF0800008612046FFF711FF68060C
:1039100008D5700606D521686FF040000861204682
:1039200000F01CF8A8060AD5B00608D521686FF08B
:10393000200008612046BDE8F041FFF7FABEBDE86F
:10394000F08170477047000000680349884201D148
:10395000FEF776BC7047000000000140704738B5A4
:10396000044690F84200202801D0022038BD51B111
:103970004AB10120206300206063204602F09EF8D7
:10398000216B012901D0012038BD21680A684968EE
:10399000009121680C3151E8002F42F0100241E8FB
:1039A0000023002BF5D138BD00680349884202D1BD
:1039B000024901200870704700480040740100204F
:1039C00070470000F8B5016804460868CA684B698A
:1039D00010F00F0F4FF0000559D003F0010602F46C
:1039E0009077374365D0C10705D0D10503D5616C09
:1039F00041F001016164410705D5D90703D0616C2D
:103A000041F002016164810705D5D90703D0616CDB
:103A100041F004016164010707D502F02001314340
:103A200003D0616C41F008016164616C00293AD0F7
:103A3000800604D5900602D5204601F058FF206884
:103A40004069616CC0F38010090700D460B3204660
:103A500001F018FF20684069400621D52068143025
:103A600050E8001F21F0400140E80012002AF5D183
:103A7000E06BA8B172490165E06BFEF74DF90028D3
:103A800011D0E06B016D01B0BDE8F040084783063E
:103A90000FD593060DD52046BDE8F84001F027BFAD
:103AA0002046FFF78DFFF8BD2046FFF789FF6564CC
:103AB000F8BD266B2023012E7ED1C6067CD5D60606
:103AC0007AD508684868009048694FF002064006B9
:103AD0004DD5E26B106840684FF480770004000C0D
:103AE0003AD0A18D814237D9E085D069B8422DD036
:103AF00020680C3050E8001F21F4807140E800126B
:103B0000002AF5D12068143050E8001F21F001018F
:103B100040E80012002AF5D12068143050E8001F58
:103B200021F0400140E80012002AF5D184F842302B
:103B3000256320680C3050E8001F21F0100140E898
:103B40000012002AF5D1E06BFEF79DF86663A08DA8
:103B5000E18D401A81B206E0A18D8142A8D1D069E1
:103B6000B842A5D166632046FFF71EFFF8BDA08DC1
:103B7000E18D401A81B2E08D0028F7D00029F5D000
:103B800020680C3050E8002F22F4907240E80027A3
:103B9000002FF5D12068143050E8002F22F00102E8
:103BA00040E80027002FF5D184F8423025632068D3
:103BB0000C3050E8002F00E006E022F0100240E850
:103BC0000023002BF3D1CDE705062BD5150629D50B
:103BD00094F841002128C9D1A068B0F5805F01D1D7
:103BE0002069B0B1206A411C2162216800784860D8
:103BF000E08C401E0004000CE084B7D12068C1684E
:103C000021F08001C1602068C16841F04001C160BD
:103C1000F8BD206A0088C0F308004860206A801C54
:103C20002062E5E74006F3D55006F1D5CA68204684
:103C300022F04002CA6084F8413000F001F9F8BD7A
:103C40008957000870B5040004D094F8410000259D
:103C500010B106E0012070BD84F84050204600F00D
:103C600023F8242084F841002068C16821F4005121
:103C7000C160204601F09CFE2068016921F490415A
:103C800001612068416921F02A0141612068C16811
:103C900041F40051C1606564202084F8410084F83B
:103CA00042006563002070BD2DE9F04F87B00546E6
:103CB00014216846FCF746FC574B296857480226F2
:103CC0000327072200244FF000694FF4806A4FF465
:103CD000807B99425FD1514914310B6843F0100346
:103CE0000B60096801F010010591016841F00201C3
:103CF0000160016801F002010591016841F00101D4
:103D00000160006802AB00F0010005908020CDE961
:103D10000006904683E8900169464148FEF792F913
:103D20003002CDE9000602AB694683E890013D48C8
:103D3000FEF788F93D4F3C48D0463860C7E901940A
:103D4000C7E9034A7C61C7E9064B3C625E463846D8
:103D50007C62FEF7C3F808B1FDF738FAEF63BD6384
:103D6000324F314860377830E7E802094020A7E851
:103D700011012E4847F814496030C7E906463C62F5
:103D80007C62FEF7ABF808B1FDF720FAAF63BD63C4
:103D900007B0BDE8F08F264B9942F9D11F49103189
:103DA0000B6843F480230B60096801F480210591BE
:103DB000016841F0040101600068029400F0040011
:103DC00005904FF44060CDE90006CDE903726946E5
:103DD0001848FEF737F9154E1748C0363060C6E967
:103DE0000194C6E9034A7461C6E9064B4FF44030BA
:103DF000C6E908043046FEF771F808B1FDF7E6F9A8
:103E0000EE63002205212720B563FEF7ABFA2720D9
:103E1000FEF79AFABCE7000000100140303802407B
:103E2000000402400000024040640240640600209A
:103E30000048004000080240286002407047704778
:103E40007047FEE700F1200383EC030AC0E911127A
:103E50009FED0A0A80ED0C0A80ED0E0A80ED0D0A36
:103E600080ED020A80ED030A80ED040A80ED100A5D
:103E700080ED010A80ED000A70470000000000009C
:103E8000F0B500230A24302537261F4611E000BF75
:103E9000B4EB107F02D905EB107C01E006EB107C3F
:103EA00001F813C001EB430C00015B1C8CF801709E
:103EB000DBB29342ECD3F0BD10B58AB00120029082
:103EC000002008210490CDE905018DF81C00FF2099
:103ED0008DF820008DF821008DF824008DF8220047
:103EE0008DF825008DF823008DF82600FC208DF834
:103EF000270008A8009005480123002244680548CF
:103F000003490068A0470AB010BD0000300100203E
:103F10008C0500200800002090ED010AFCEEC00A8C
:103F200010EE901A018480ED0F0A0021018770477E
:103F300010B58AB001200290002008210490CDE93C
:103F400005018DF81C00FF208DF820008DF8210060
:103F50008DF824008DF822008DF825008DF82300BF
:103F60008DF82600FE208DF8270008A8009005484F
:103F7000012300224468054803490068A0470AB0AD
:103F800010BD0000300100208C050020080000203A
:103F90000FB4F2EE090A70B52DED028B9DF83400D6
:103FA000DFED668A069D664C6D1E000954F82510EB
:103FB000B1EE0C8A91ED010ABCEEC00A10EE102A97
:103FC0000A8454F825100880BDF8350040BA00EE88
:103FD000100A54F82500B8EE400A80ED060A9DF854
:103FE00037009DF83810000140EA111000EE100A69
:103FF00054F825001021B8EE400A80ED070A9DF81C
:10400000390000EE100A54F82500B8EE400A80EDA1
:10401000040A54F8250090ED060ABDEEC00A10EE21
:10402000100ABAEE090A03F095FF54F82500F6EEDF
:10403000000A80ED010A20EE200A54F82500DFED89
:10404000410A0C2120EE200ADFED3F0A20EE200A73
:10405000F0EE680A80ED010A54F8250090ED070A99
:10406000BDEEC00A10EE100A9FED380A03F072FF91
:1040700054F825000C21F0EE480A80ED020A54F8AD
:10408000250090ED040ABDEEC00A10EE100AB9EE4C
:104090000C0A03F05FFF54F8250080ED050A54F880
:1040A00025109DF83A00087354F825109DF83B0040
:1040B000487354F82500018CD0ED010A00EE101A67
:1040C0002349B8EE400A30EEC00A10EE102A8A42A8
:1040D00002D9028F521C028754F82500028CD0EDC1
:1040E000010A00EE102AB8EE400A30EE600A10EE27
:1040F000102A8A4202D9018F491E018754F82500EF
:10410000B0F93810D0ED010A490300EE101AB8EEEC
:10411000C00A30EE800A80ED0F0A54F8250030F80E
:10412000441F491C018054F82510012081F84200E9
:10413000BDEC028B70BC5DF814FB0000000048432E
:1041400044010020DB0F494000001042000048C33A
:104150000020CBC508B504F083FC0A4E0A4C0B4D79
:10416000CDF80000B4F844002988884201D1706875
:104170008047B4F8440028800121684604F016F80E
:10418000F0E7000048010020A0620020800200202B
:104190002DE9F04104462DED068BF0EE60AAF0EE1D
:1041A000419AB0EE42AADFED2C0AB0EE619A9FED83
:1041B0002C1A20EE200AF0EE000ADFED2A8AB1EE7A
:1041C0000C8A20EE200ADFED250A102020EE200ABE
:1041D000DFED250A03F078FB07460C20B0EE681AE5
:1041E000DFED220AB0EE6A0A03F06EFB06460C20F1
:1041F000B0EE481AF9EE0C0AB0EE4A0A03F064FB7E
:104200009FED1C8A80460C209FED191AF0EE480A9B
:10421000B0EE690A03F058FB05460C20B1EE041A13
:10422000F0EE480AB0EE490A03F04EFB390A21705D
:1042300067703109A170310141EA1521E1702571E2
:1042400001096171010141EA1820A07184F8078019
:10425000BDEC068BBDE8F08100000039DB0F494062
:10426000DC0F494000004843DC0F49C0000048C350
:104270000000FA4300000000816270472DE9F04120
:1042800015460E4680460024114F12E008EB8400CC
:1042900090ED000A0E4803F02BFB0020395C6960AA
:1042A00029684906FCD5401CC0B20428F6D3641C1A
:1042B000A4B2B442EAD3074900200A5C6A602A68C3
:1042C0005206FCD5401CC0B20428F6D3BDE8F081EC
:1042D000C00100203C96000870B51B480125017CF8
:1042E000427C090441EA4244408A174904430020C1
:1042F000B1F1880101EB000305FA00F21E7D2242B4
:104300000ED0761CF6B21E75032E02D98E681643A7
:104310008E601B7D3C2B13D90B6913430B610FE09F
:10432000361F382ECE6801D2164300E09643CE6089
:104330008E6896438E600E69964300220E611A7550
:10434000401C1228D6DB70BD5064002030EE601A8D
:10435000D0ED030AD0ED041A1B4A30EEE12AF0EE4C
:10436000081AF0EE000A20EE210A21EE211A20EEB2
:10437000200AC0EE020AC1ED000A90ED030A90ED9A
:10438000042A10EE900A30EE422A904281EE020A90
:10439000B1EE041A81ED010A01DB81ED001A0B4830
:1043A0000B68F9EE040A834201D3C1ED000A10EE56
:1043B000103A934201DB81ED011A4A68824201D32F
:1043C000C1ED010A704700000000A0400000A0C03D
:1043D00010B5174BA0F20720DDE9051203EB4010E2
:1043E000038883818BB25BBA090C038049BA418090
:1043F00091B249BA818099B282890E4B8C1A9C4243
:1044000002DA818A491C04E0511A994202DA818A4F
:10441000491E81820188B0F9142001EB423101610B
:1044200001888181818B491C81830121817610BDA6
:10443000E862002090E8FFFF30B5050A039C257074
:104440006070080AA070E170100A20716271180A89
:10445000A071E37130BD000010B5A0F20120DDE9CC
:10446000052193B25CBA144B120C03EB401052BA04
:10447000048042808AB252BA8280090C817182899A
:10448000A1B20E4B8C1A9C4202DA818A491C04E0CC
:10449000511A994202DA818A491E81820188B0F953
:1044A000142001EB4231016101888181418B491C5B
:1044B00041830121017610BD0863002090E8FFFFD1
:1044C00030B5050A039C25706070080AA070E17081
:1044D000100A20716271180AA071E37130BD0000EA
:1044E000104810B50E4901600321416000214FF4CE
:1044F00010228160C0E903124FF40012426101767C
:1045000041768176C176017701214177FDF70BFA7B
:10451000002803D0BDE81040FCF758BE10BD0000D5
:104520000064004064050020104810B50E49016089
:104530000321416000214FF410228160C0E9031281
:104540004FF400124261017641768176C17601779F
:1045500001214177FDF7E7F9002803D0BDE81040BD
:10456000FCF734BE10BD0000006800408C05002040
:10457000154808B5016841F400110160016801F4B3
:1045800000110091016841F480010160006800227F
:1045900000F48000009005210C20FDF7E3FE0C20C4
:1045A000FDF7D2FE002205213A20FDF7DBFE3A207E
:1045B000FDF7CAFE002205214620FDF7D3FEBDE827
:1045C00008404620FDF7C0BE3038024010B5CEB0DE
:1045D00000222421202003F091FF464C00222421B8
:1045E0002060202003F08AFF606000222421102038
:1045F00003F084FFA06000221921102003F07EFF49
:10460000E0601C223C496846FBF76AFF00216846CF
:1046100003F0B1F9384960631C221C3107A8FBF78D
:104620005FFF002107A803F0A6F93349A0631C220D
:1046300038310EA8FBF754FF00210EA803F09BF9B8
:104640002D4920611C22543115A8FBF749FF002198
:1046500015A803F090F9284960611C2270311CA84C
:10466000FBF73EFF00211CA803F085F92249A06159
:104670001C228C3123A8FBF733FF002123A803F071
:104680007AF91D49E0611C22A8312AA8FBF728FF0E
:1046900000212AA803F06FF9174960621C22C43177
:1046A00031A8FBF71DFF002131A803F064F912497E
:1046B00020621C22E03138A8FBF712FF002138A845
:1046C00003F059F90C49A0621C22FC313FA8FBF70A
:1046D00007FF00213FA803F04EF9E0621C220749C2
:1046E00046A8FBF7FDFE002146A803F044F920632D
:1046F0004EB010BD000000209C8F0008B490000850
:10470000154808B5016841F002010160016801F037
:1047100002010091016841F001010160016801F0AE
:1047200001010091016841F008010160016801F098
:1047300008010091016841F004010160016801F085
:1047400004010091016841F080010160006800F0FF
:104750008000009008BD00003038024010B586B0DF
:1047600014216846FBF7EEFE1B4800241949059406
:10477000C0E900147F218160FF21C0E90314446176
:104780008461FEF7A3FE08B1FCF720FD8DF8004020
:104790008DF801408DF802400394012269460E48CD
:1047A0000494FEF749FF08B1FCF710FD01208DF8D5
:1047B00014008DF815008DF8160002468DF817408C
:1047C00005A90548FEF7ECFE002801D0FCF7FEFC29
:1047D00006B010BD00280040B40500200C4810B5FC
:1047E0000A4901604FF4E1314160002181600C22EF
:1047F000C160C0E904128161C161FFF723FA00289A
:1048000003D0BDE81040FCF7E1BC10BD0010014032
:10481000D40500200D4810B50B4901600C494160DA
:104820004FF4805181604900C16000210C22C0E931
:1048300004128161C161FFF705FA002803D0BDE8C9
:104840001040FCF7C3BC10BD004800401C0600200F
:10485000A086010010B500220F49104801F0C8FDE4
:1048600008B1FCF7B3FC0E490C4801F0DDFF08B1BC
:10487000FCF7ACFC0B49094801F05AFB08B1FCF706
:10488000A5FC064802F054F8002803D0BDE810400B
:10489000FCF79CBC10BD000040000020CC070020AD
:1048A000D802002090000020FEE7000070B510EE56
:1048B000102A6FF040434FF4800513440122B0EEFC
:1048C000082AAB420BD2F8EE000A002370EEC00AB1
:1048D0000B704A70C0ED000A30EE020A16E010EECE
:1048E000103A2E4C4FF400061C440223B1EE401A3D
:1048F000F7EE000AF0EE001AB4420AD271EE600A36
:104900000A7030EE210A4B70C0ED000A80ED010AFA
:1049100070BD10EE104A032214F1814F0BD8B5EE92
:10492000C00AF1EE10FA06D20B704A7080ED001A40
:1049300030EE200AEAE7B5EEC00A0423F1EE10FAE1
:104940000BDB10EE104AB4F17E5F06DA70EEC00A9F
:104950000A704B70C0ED000AD8E710EE102A05244B
:10496000A2F17E52B24208D231EEC01A0B704C70E6
:1049700080ED001A30EE600AC8E710EE102AA2F1AE
:104980008042AA42C4D872EE400A0C7006224A70D5
:10499000C0ED000A30EE610AB8E70000FFFF7F407B
:1049A000FEE7000070B5FDF745FC444C444D206126
:1049B000606908B928696061E06910B9FDF73AFCDF
:1049C000E0612269111A3D4830388161E261D4ED1D
:1049D000000AF5EEC00AF1EE10FA3CDB236AB2EEF3
:1049E000041A5A18426194ED060AB8EEC00A20EE85
:1049F000010A9FED341AC0EE011A00EE102A94ED60
:104A0000021AB8EE400A21EE002A9FED2F0AC2EEEC
:104A1000002A71EEE21AC0ED041AF5EEC01AF1EEAA
:104A200010FA06D220EE800AC0EE010AC0ED070A95
:104A300005E000EE101AB8EE400A80ED070A00EE1D
:104A4000103AD0ED070AB8EE400A30EE200ABCEE6C
:104A5000C00A84ED080A0078E168014313D0002001
:104A6000E880B5F902001A4900EE100A1948F8EE7C
:104A7000C00A9FED160A00F093F9BDEEC00A10EED1
:104A8000100AE88270BD1448E880B5F902001049A8
:104A900000EE100A0F48F8EEC00A9FED100A00F071
:104AA0007FF9BDEEC00A10EE100AE882286961693C
:104AB000A269091A1144C4E9050170BD2C02002045
:104AC000E86200200000104700007A440000000067
:104AD0001C610020B06500203CF6FFFF00401CC5B3
:104AE0000148FDF7BDBD0000C81E00209FED0A1A59
:104AF000F7EE001A80ED001AC0ED031A80ED090AE6
:104B0000C0ED0A0AC0ED071A80ED081AC0ED0B1AB5
:104B100080ED011A7047000000000000D0ED071A78
:104B2000D0ED000A21EEA01A80ED011AD0ED090A9D
:104B300090ED032A41EE820AC0ED040AD0ED0A1A74
:104B400030EEA12AC0EE821A30EE412AB0EE410AC0
:104B5000B7EE001AC0ED061A31EE611A01EE820AB4
:104B600061EE200A80ED020AC0ED050AC0ED030ADD
:104B700080ED000A704700001448F2EE040A9FED31
:104B8000141A90ED060AB8EEC00A20EE200AC0EE14
:104B9000010A90ED080A90ED021AB8EE400A20EEE4
:104BA000010A9FED0C1AC0EE011A30EEE10A80ED09
:104BB000000AD0ED010AF8EEE00AB4EEE00AF1EEE8
:104BC00010FA01DB0121C160704700002C020020B7
:104BD0000000104700007A442DE9F04103680D46BB
:104BE00004461E6C03EB4511D1F8080B94F806E05F
:104BF0004FF400474FF0200C04F29C42BEF1010F2D
:104C000009D0DFF898E0764539D1020432D500BFEB
:104C1000C1F8087B3FE0224B5FEA007E04D59E424C
:104C200039D90004F4D436E05FEA806E02D5C1F8C9
:104C300008CB30E010F0280F2DD19E4201D900049E
:104C4000E6D405EBC50004EB8000D1F8101BD0F8CA
:104C50007432C1F31201591AC0F8681200F51570C8
:104C6000ADB903691BB1C2681144C1600FE00121F5
:104C700020680AE080060AD5C1F808CB07E035B9FC
:104C8000D4F8640218B90021184602F0D3F9E9B249
:104C90002046FDF7CDFB0020BDE8F0810A31544FDE
:104CA0000A30544F2DE9F84F0E4601EBC60100EBD8
:104CB000810481460568D4E909101434884202D978
:104CC0000120BDE8F88F081AA168814200D2084689
:104CD000C01C870805EB46181BE000BFA0EB010ACB
:104CE000A068504500D282460AF10300870899F86F
:104CF000060000901FFA8AF3F2B22846E16802F03B
:104D0000D7FCE16801EB0A00E060616901EB0A0091
:104D10006061D8F8180980B2B84205D3D4E904011B
:104D2000814201D20028D9D1D4E90401884208D8AF
:104D300006F00F0101208840D5F834188143C5F8EA
:104D400034180020BDE700004FF42F724FF4FA51E1
:104D50009FED041ADFED040A9FED040A0448FFF7F3
:104D600071B8000000000000295C0F3D3333534050
:104D7000BC6400204FF42F724FF4FA519FED041AD7
:104D8000DFED040A9FED040A0448FFF75BB800005A
:104D900000000000295C0F3D333353400C650020B8
:104DA00070B530EE601A2DED048B04460D4680EC94
:104DB000020A80ED021AD0ED050A30EE600A80ED9D
:104DC000060A90ED070AD0ED030A30EE010A80EDE5
:104DD000070AB0EE410A0846FCF764FA94ED080AA7
:104DE000D5ED000A95ED051AD4ED098A94ED0A8AED
:104DF00000EE810AD5ED010A95ED061A94ED0B9AA5
:104E000004F11C0040EE818AD5ED020A95ED071AE7
:104E100000EE818AD4ED020A20EE800A84ED0C0AAD
:104E200094ED120AB8EE400A02F039FD94ED070A3B
:104E300004F1400020EE280A84ED0D0AD4ED020AA8
:104E400094ED031A70EEC10A60EE880AC4ED0E0AF2
:104E500094ED061A21EE091A84ED0F1AD4ED0C1AFE
:104E600031EE800A30EE200A30EE010A84ED100A9D
:104E700094ED110AB8EE400A02F011FD94ED020A19
:104E800084ED030A94ED000A84ED050A94ED100AFE
:104E9000BDEC048B70BD10B5044680EC020A70EEC8
:104EA000600AC0ED020A90ED031A30EEC11A80EDDF
:104EB000041AD0ED051A30EE610A80ED060AD0ED35
:104EC000081A61EEA01AC0ED0C1AD0ED0D1A90ED83
:104ED000092A04F1340042EE201AC4ED0D1AD4ED73
:104EE0000A0A61EE200AC4ED0E0AD4ED0B0A20EE88
:104EF000800A84ED0F0A94ED130A02F0D0FC94EDC1
:104F00000C0AD4ED0D0A04F1400030EE200AD4ED75
:104F10000E0A30EE200AD4ED0F0A30EE200A84ED9E
:104F2000100A94ED110A02F0BAFC94ED020A84ED25
:104F3000030A94ED000A84ED050A94ED100A10BDF1
:104F400000F1200181EC040A9FED0B0A80ED0C0AB0
:104F500080ED0E0A80ED0D0A80ED020A80ED030A55
:104F600080ED040A80ED100A80ED010A80ED000A50
:104F7000443080EC032A704700000000008800B233
:104F800000EE100AB8EEC00A7047002102E00A38AD
:104F9000C0B2491C0A28FAD2090740EA11607047DA
:104FA0002DE9F041044600680025C168490618D47F
:104FB000C16841F08001C160FDF73CF906464FF43D
:104FC0007A78042707E000BFFDF734F9801B4045DD
:104FD00001D9677701252068C068400601D4002DFB
:104FE000F2D02846BDE8F08170B50446006800257F
:104FF000C16821F08001C16020688068800606D405
:105000002046FEF779FB10B1042060770125284681
:1050100070BD00002DE9F05FCA4DCB4C00262DED90
:10502000028B688C012801D040B112E001210820D8
:10503000FCF7DCF938B9288C28B10AE001210820F6
:10504000FCF7D4F928B1AE802662E6612661E660FD
:105050002E7601210020FCF7C9F99FEDBC8ABA4FDA
:10506000283710B194ED010A08E001210846FCF749
:10507000BDF940B16068404200EE100AB8EEC00AC7
:1050800087ED010A05E0B0482830FBF775FE87ED93
:10509000018AAD48283000F03FFA404228800121C3
:1050A0000220FCF7A3F9DFF8A08208F1340820B150
:1050B000A068404200EE100A06E001210320FCF740
:1050C00095F930B194ED020AB8EEC00A88ED010AF4
:1050D00005E09D483430FBF74FFE88ED018A9A4881
:1050E000343000F019FA4042688001210620FCF7B4
:1050F0007DF9012308B1E06828B101210620FCF701
:1051000075F910B109E0E36007E0E068012804D117
:10511000E069282801DBE661E660DFF82C92B5F94A
:10512000041009F14009B9F90A00814209DAE0687E
:10513000012806D1E069282803DA0A31A980401C39
:10514000E06101210720FCF751F908B1206928B17D
:1051500001210720FCF74AF910B109E0236107E0BB
:105160002069012804D1206A282801DB26622661F3
:10517000B5F90400B9F90810884209DD216901294F
:1051800006D1216A282903DA0A38A880491C21623D
:1051900000211120FCF72AF900286D496D4ADFF83B
:1051A000B8C1287B12D010B101280DD01BE02B73A1
:1051B00091ED000ABDEEC00A10EE100A688192ED72
:1051C000000A8CED040A03E02E730CE001280AD1DA
:1051D00091ED000ABDEEC00A10EE100A688192ED52
:1051E000000A8CED040A01211020FCF7FFF820B919
:1051F00002211020FCF7FAF810B1687E012876D061
:105200000320687301210D20FCF7F0F880B14FF402
:1052100016727A8150423881A8F80A20A8F808004E
:105220004FF44871A9F80A104FF6E041A9F80810A8
:1052300001210E20FCF7DAF84FF4966ACAF1000B50
:1052400060B14FF461727A8151423981A8F80A2025
:10525000A8F80810A9F80AA0A9F808B001210F20A1
:10526000FCF7C4F878B1A7F80AA0A7F808B0A8F826
:105270000AA0A8F808B04FF4C861A9F80A104FF6C0
:10528000C011A9F8081000210B20FCF7AFF8334F2C
:1052900058B1B7F90A0040F22621C84205DA00F5F4
:1052A00007707881E87D801EE87500210C20FCF7EE
:1052B0009DF858B1B7F90A0040F6B831C84205DD8B
:1052C000A0F507707881E87D801CE8752448418945
:1052D00001EB8101298180890121C000E88005203E
:1052E000FCF784F878B1A06918B10DE0FFE76B73A3
:1052F00088E7287E10B1012802D002E02B7600E07A
:105300002E76A36100E0A66101210920FCF76EF86A
:1053100058B1606950B9687E10B1012802D002E02E
:105320006B7600E06E76636100E0666101210A2021
:10533000FCF75CF820B1EB76BDEC028BBDE8F09F8A
:10534000EE76F9E77C620020740100200000000086
:105350002001002024010020786400201C0200208D
:105360005064002030B5124B12481A461D7E0024AE
:10537000B2F90420016A012D03D0511A9980046208
:1053800030BDC56955B1012DFAD1C91ED21E0162C9
:105390009A8011F5967FF3DCC46130BDC91CD21C24
:1053A00001629A80B1F5967FF7DB0121C16130BDC2
:1053B0007C620020C401002086B003F051FBDFF8BE
:1053C0009CA0274EDFF89C80274CDFF8A090DFF8E8
:1053D000A0B00390DAF80C00554680476868804713
:1053E00024480068804704AD0095234FB6F9163075
:1053F000B8F9B6107F681A46B8F99600B84794F91C
:10540000410094ED0D2A00EE100A94F94000D4ED0D
:105410000C0AF8EEC01A00EE100A1848B8EEC01ACE
:10542000016894ED0B0A01A888470095D9F804C0DB
:105430004D4640F2FF13002211495F46DBF80000A1
:10544000E04701A800906D68012300220D493868EB
:10545000A847022103A802F0A9FEBBE7EC01002047
:10546000E862002008630020A062002030010020D4
:1054700008000020700200206C010020480100207C
:10548000640500208C0500200178407841EA002066
:1054900070470000054810B50068804700F00AF822
:1054A00003484068BDE81040004700005802002053
:1054B0005002002030B51348017B012902D1124966
:1054C0000A698A601149002401250B7A4A7A104939
:1054D000032B097906D0022B0BD1002A09D0012910
:1054E0000AD005E0002A04D0012903D0002900D108
:1054F000447330BD457330BD064909780029F7D0A3
:10550000F8E700001C020020E86200205064002040
:10551000740200201C01002090EC020A30EE200AE8
:1055200080ED000AB0F9081000EE901AF8EEE00ADB
:10553000B4EEE00AF1EE10FA05D200EE101AB8EE61
:10554000C00A80ED000AB0F90A10F0EE400A00EE41
:10555000101AB8EEC00AF4EEC00AF1EE10FA02DC3E
:10556000B0EE600A05E000EE101AB8EEC00A80ED59
:10557000000ABDEEC00A10EE100A00B27047FFF735
:1055800069F9012002F0EBF9FBE7000010B50C4CC3
:105590000D49B4F9020000EE100A0C48F8EEC00AFA
:1055A0009FED080AFFF7FCFBBDEEC00A002110EEDC
:1055B000100AE0820648C1602169416110BD000007
:1055C000E8620020000000001C610020B06500209F
:1055D0002C02002010B5502080F31188BFF34F8FAC
:1055E000BFF36F8F03F042FA18B104494FF08050B7
:1055F0000860002080F3118810BD000004ED00E079
:1056000030B593B030216846FAF79CFF14210CA8FE
:10561000FAF798FF1F480025016841F080510160AA
:10562000006800F0805011901B48016841F48041EF
:1056300001600068022400F480401190092000906D
:105640004FF4803001900120CDE9050480050790DA
:1056500006200890A820CDE9090407200B90684691
:10566000FDF77EFD08B172B6FEE70CA90F2081E8B8
:1056700031004FF4A0500F904FF48050109005214E
:105680000CA8FDF75BFC002801D072B6FEE713B052
:1056900030BD000040380240007000400248016800
:1056A00041F470010160704788ED00E00148FEF7A9
:1056B000B0B8000084070020F0B50268274B284DE1
:1056C000284E294F294C4FF0804C984209D0604514
:1056D00007D0A84205D0B04203D0B84201D0A042C2
:1056E00004D122F0700E4A6842EA0E0298421BD0A2
:1056F000604519D0A84217D0B04215D0B84213D097
:10570000A04211D01A4DA8420ED01A4DA8420BD07B
:10571000194DA84208D0194DA84205D0184DA842ED
:1057200002D0184DA84203D122F44075CA682A431A
:105730004D6922F080022A438D68C5620D6885623A
:10574000984201D0A04201D109690163016841F08A
:1057500004010160012141610260F0BD00000140CF
:105760000004004000080040000C0040000401401C
:105770000040014000440140004801400018004042
:10578000001C00400020004010B5806B0021C18546
:10579000FEF716F910BD70B5846B2068406994F867
:1057A0004110C0F3C0100025212904D118B1E584AF
:1057B000204600F08EF82068406994F84210C0F34B
:1057C0008010222904D118B1E585204600F05AF84E
:1057D000606C40F0100060642046FEF7F1F870BD88
:1057E00010B50146806B096809684FF00002C905D1
:1057F0002ED4C28501680C3151E8003F23F4807338
:1058000041E80034002CF5D10168143151E8003F23
:1058100023F0010341E80034002CF5D10168143174
:1058200051E8003F23F0400341E80034002CF5D15B
:10583000202180F84210016B012909D101680C3147
:1058400051E8003F23F0100341E80034002CF5D16B
:105850004263016B012902D0FEF7F0FA10BD818D81
:10586000FEF7A2F810BD10B5806B01214163016BFA
:10587000012902D0FEF7E3FA10BD818D4908FEF739
:1058800093F810BD01680C3151E8002F22F490729A
:1058900041E80023002BF5D10168143151E8002FB5
:1058A00022F0010241E80023002BF5D1016B012910
:1058B00009D101680C3151E8002F22F0100241E8B3
:1058C0000023002BF5D1202180F842100021016334
:1058D000704701680C3151E8002F22F0C00241E806
:1058E0000023002BF5D1202180F84110704708B526
:1058F00090F84210222901D0022008BD82684FF49E
:1059000080539A4201D1016921B1816A9A421BD028
:105910004AB10AE00268816A5268C2F308020A804A
:10592000816A891C08E0026972B10268526802F05B
:105930007F020A70816A491C8162C18D491E090477
:10594000090CC18503D01BE002685268F1E70168C9
:10595000CA6822F02002CA600168CA6822F4807214
:10596000CA6001684A6922F001024A61202180F878
:10597000421000214163026B012A03D0FEF75EFA58
:10598000002008BD016301680C3151E8002F22F0AE
:10599000100241E80023002BF5D101680A68D20605
:1059A00002D50A6849680091818DFDF7FDFFE7E7A0
:1059B00070B5044600680169E26821F44051114362
:1059C00001612169A068E2690843616911430843E4
:1059D0002168CA6849F20C639A430243CA6020688E
:1059E0004169A26921F44071114341613149206844
:1059F000884202D03049884202D1FDF76FFB01E0B6
:105A0000FDF75CFBE2690023192164253226B2F51B
:105A1000004F626828D0A0FB0101930F9200FAF7B3
:105A2000A3FC0146B0FBF5F06FF01802504301EB08
:105A3000800006EB0010B0FBF5F000F0F002B1FBC7
:105A4000F5F002EB0012B1FBF5F06FF018035843CC
:105A500001EB800006EB0010B0FBF5F000F00F004A
:105A600021681044886070BDA0FB010192185B4161
:105A7000FAF77AFC0146B0FBF5F00201B1FBF5F054
:105A80006FF01803584301EB800006EBC000B0FB39
:105A9000F5F000F0F80002EB4002B1FBF5F05843DE
:105AA00001EB800006EBC000B0FBF5F000F0070052
:105AB000D6E70000001001400014014038B58162B3
:105AC00004468285002013466064222284F8422026
:105AD000E56B1F4AEA63E56B1E4A2A64E56B1E4AC2
