:020000040800F2
:10000000A8900024390400083D850008CF76000838
:10001000318400083D0A0008B9C300080000000050
:10002000000000000000000000000000790300084C
:100030000D14000800000000D503000861930008BB
:100040005304000853040008530400085304000834
:100050005304000853040008530400085304000824
:10006000530400085304000853040008B10C0008AE
:10007000BD0C000853040008530400085304000892
:10008000530400085304000853040008B116000884
:10009000C9160008BD160008D5160008530400084C
:1000A00053040008530400085304000853040008D4
:1000B00053040008530400085304000853040008C4
:1000C00053040008530400085304000853040008B4
:1000D00053040008CDA20008D9A20008E5A2000838
:1000E00053040008530400080000000053040008F3
:1000F0005304000853040008530400085304000884
:100100005304000853040008530400085304000873
:100110005304000853040008530400085304000863
:1001200053040008C90C00085304000853040008D5
:100130005304000853040008530400085304000843
:1001400000000000000000000000000000000000AF
:10015000D50C0008E10C0008ED0C0008F1A2000825
:100160005304000853040008530400085304000813
:100170005304000853040008530400080000000062
:1001800053040008530400085304000853040008F3
:1001900053040008530400085304000853040008E3
:1001A00053040008530400085304000853040008D3
:1001B00053040008530400085304000853040008C3
:1001C00053040008530400085304000853040008B3
:1001D0005304000841850008530400085304000834
:1001E0005304000853040008530400085304000893
:1001F0005304000853040008530400085304000883
:100200005304000853040008530400085304000872
:100210005304000853040008530400085304000862
:1002200053040008530400085304000800000000B1
:1002300053040008530400080000000053040008A1
:100240005304000853040008530400085304000832
:100250005304000853040008530400085304000822
:100260005304000853040008530400085304000812
:100270005304000853040008530400080000000061
:100280005304000853040008530400080000000051
:10029000000000005304000800F002F800F05CF8D1
:1002A0000AA090E8000C82448344AAF10107DA45D1
:1002B00001D100F051F8AFF2090EBAE80F0013F0C7
:1002C000010F18BFFB1A43F00103184764DE00005A
:1002D00084DE00000A444FF0000C10F8013B13F0DC
:1002E000070408BF10F8014B1D1108BF10F8015B8F
:1002F000641E05D010F8016B641E01F8016BF9D182
:1003000013F0080F1EBF10F8014BAD1C0C1B09D1D8
:100310006D1E58BF01F801CBFAD505E014F8016B4A
:1003200001F8016B6D1EF9D59142D6D370470000DC
:100330000023002400250026103A28BF78C1FBD8EE
:10034000520728BF30C148BF0B6070471FB50DF082
:1003500007FB1FBD10B510BD00F0A6F91146FFF751
:10036000F5FF0CF091F800F0C4F903B4FFF7F2FFC9
:1003700003BC00F0CBF900002C4B19680868B0E80A
:10038000F04F80F30988BFF36F8F4FF0000080F3C8
:10039000118870470000000008480068006880F37A
:1003A00008884FF0000080F3148862B661B6BFF38E
:1003B0004F8FBFF36F8F00DF00BF00BF08ED00E07D
:1003C000DFF80C00016841F470010160704700BF64
:1003D00088ED00E0EFF30980BFF36F8F134B1A68CD
:1003E0001EF0100F08BF20ED108A20E9F04F1060BA
:1003F00009B44FF0500080F31188BFF34F8FBFF363
:100400006F8F0CF0CBFD4FF0000080F3118809BC1A
:1004100019680868B0E8F04F1EF0100F08BFB0EC84
:10042000108A80F30988BFF36F8F70475000002453
:10043000EFF30580704700000948804709480047EE
:10044000FEE7FEE7FEE7FEE7FEE7FEE7FEE7FEE784
:10045000FEE7FEE704480549054A064B70470000E1
:100460005D94000899020008A86C0024A89000245C
:10047000A88C0024A88C002453EA020C00F06980A8
:100480002DE9F04B4FF00006002B1FBFB3FA83F5A8
:1004900003FA05F424FA05F65E4012BF1643B2FAD9
:1004A00082F502FA05F4C5F120051EBF22FA05FC0B
:1004B00044EA0C04203556EA044C4FEA144418BFB1
:1004C000641C4FF000084FF00009904271EB030CE0
:1004D00039D3002919BFB1FA81F701FA07F6B0FA4A
:1004E00080F700FA07F6C7F120071EBF20FA07FCC5
:1004F00046EA0C062037B6FBF4FCA7EB0507103FD5
:1005000007F01F0BCBF120060CFA0BFB2CFA06F6BA
:1005100044BFB3460026202FA4BF5E464FF0000B19
:100520005BEA060C08BF4FF0010B19EB0B09ABFBA4
:10053000027C48EB0608C01B06FB02CC0BFB03CC7D
:1005400071EB0C01C1E70B46024641464846BDE847
:10055000F08B13B54FF000004FF00001AFF30080B7
:10056000BDE81C407047032A40F2308010F0030CB5
:1005700000F0158011F8013BBCF1020F624498BFF6
:1005800011F801CB00F8013B38BF11F8013BA2F193
:10059000040298BF00F801CB38BF00F8013B11F00E
:1005A000030300F02580083AC0F0088051F8043BAE
:1005B000083A51F804CBA0E80810F5E7121D5CBF1B
:1005C00051F8043B40F8043BAFF30080D20724BF4E
:1005D00011F8013B11F801CB48BF11F8012B24BFE2
:1005E00000F8013B00F801CB48BF00F8012B704731
:1005F00010B5203AC0F00B80B1E81850203AA0E8BE
:100600001850B1E81850A0E81850BFF4F5AF5FEAF1
:10061000027C24BFB1E81850A0E8185044BF18C9A4
:1006200018C0BDE810405FEA827C24BF51F8043B4B
:1006300040F8043B08BF7047D20728BF31F8023B9F
:1006400048BF11F8012B28BF20F8023B48BF00F833
:10065000012B70474FF0000200B5134694469646B2
:10066000203922BFA0E80C50A0E80C50B1F12001C5
:10067000BFF4F7AF090728BFA0E80C5048BF0CC073
:100680005DF804EB890028BF40F8042B08BF7047D1
:1006900048BF20F8022B11F0804F18BF00F8012B43
:1006A0007047704770477047754600F02BF8AE46AC
:1006B00005006946534620F00700854618B020B56E
:1006C000FFF7C8FEBDE820404FF000064FF00007DE
:1006D0004FF000084FF0000B21F00701AC46ACE8EA
:1006E000C009ACE8C009ACE8C009ACE8C0098D4657
:1006F000704710B50446AFF300802046BDE81040B7
:10070000FFF733BE00487047446C002401491820AD
:10071000ABBEFEE726000200704700002DED0C8BFB
:10072000524CDFED539A9FED53AADFED53AA9FED94
:1007300053BA41F28835AE00DFED51BA9FED51CA90
:10074000DFED51CA9FED51DADFED51DA514F4FF431
:100750007A79DFF8448142F2107A0CF03DFA23688E
:1007600001214E489847226802214D489047B0EE3B
:10077000698AF0EE4A8AB0EE6A9A4A48B2EE042AD2
:10078000F0EE481AB3EE091AF0EE680AB0EE490A24
:100790000BF064FE4448B2EE042AF0EE481AB3EEC1
:1007A000091AF0EE680AB0EE490A0BF057FEF0EEB7
:1007B0004B8A3E48B0EE082AF0EE681AB1EE041AF1
:1007C000FBEE0E0AB3EE0E0A0BF048FE3848B7EE09
:1007D000002AF0EE681AB0EE481AFAEE040AB2EEF9
:1007E000040A0BF03BFEB0EE6B8AB0EE4C9A314837
:1007F0002A46B3EE0E1AF0EE480AB0EE490A314628
:1008000006F066FF2C482A46B3EE0E1AF0EE480AB0
:10081000B0EE490A314606F05BFF2848B0EE6C3A6C
:10082000F0EE4D2AB0EE6D2AF6EE001AB6EE001A82
:10083000F0EE680AB3EE040A08F016F920484A46BA
:10084000B0EE081AF6EE000AB2EE090A514606F0BA
:100850003FFF7868804700F05FF900F0CDFDD8F8E1
:1008600034000CF0D1FA0CF0D7F976E7D800002468
:10087000CDCCCC3D0000C8C20000C8420AD7233C02
:10088000000000000000204200002F440000FA4554
:1008900000409C4644010024000000244805002438
:1008A000E80500245449002494490024D449002434
:1008B000144A0024204F0024704F0024C04F00240D
:1008C000145000248CB0084C0AAE6D464FF0FF3730
:1008D00069463A4620680CF09BFD0098291D324677
:1008E00002F0ECFCF4E700000800002470B50546B7
:1008F0000C46002D09D0022C07D9FF222846611E84
:1009000001F000FA291901F8010C70BDF0B585B0AD
:10091000002003900490019002902B4C2088010A43
:100920008DF80C108DF80D006088010A8DF80E10FE
:100930008DF80F00A088010A8DF810108DF81100B5
:100940002089010A8DF812108DF8130003A81F4E9C
:100950000022204F40F20F1300901D49756838683F
:10096000A8476089010A8DF804108DF80500E07D24
:100970008DF80600617E9DF8070001F00101084333
:10098000217B01F0010140EA4100217E01F00101DB
:1009900040EA8100A17D01F0010140EAC1008DF82B
:1009A00007000D488088010A8DF808108DF80900AD
:1009B00001A800900022746840F21F1304493868AF
:1009C000A04705B0F0BD0000844A0024D8000024F0
:1009D000E805002408000024AC4C00240FB49DF866
:1009E00028109DF8290040EA01211248C1819DF894
:1009F0002A209DF82B1041EA022101849DF82C2029
:100A00009DF82D1041EA022109B200EE101AB8EE4D
:100A1000C00ADFED090A80EE201A80ED041A9DF865
:100A20002E1001F001028276C1F34001418404B02E
:100A300070470000844A002400007A44FEE704283E
:100A40004FF00000704700207047000010B50549C6
:100A50000022054809F074FE0449034809F062FECB
:100A6000002010BD405D0024645000244055002447
:100A700038B504460C48214609F054FE0A4809F0EE
:100A800025FE0A4800236A46214600680CF060FCF7
:100A9000009838B106494FF080500860BFF34F8F7F
:100AA000BFF36F8F002038BD645000240C00002479
:100AB00004ED00E0002070470A4610B50849D1F85F
:100AC000BC12D1F81412002901D0012010BD01463A
:100AD000034809F035FEBDE81040014809F0C6BEE4
:100AE0006450002430B500200A4A0124002352F843
:100AF0002010B1F844504DB181F8463052F8201022
:100B0000A1F84430401C0128F1DB30BD81F846409B
:100B1000F4E700004001002410B51548154A90ED97
:100B2000030ABDEEC00A10EE101A11809FED120AE2
:100B300080ED040A1430DFED110AB7EE080A07F061
:100B400063FD0F48F2EE040AB7EE000A07F05CFD01
:100B50000748F2EE040A4430B1EE080A07F054FDEB
:100B60000848002101760222C2754176C17610BD87
:100B7000AC4E002460010024000000000000204270
:100B8000544A0024844A00243048324ABBEE041AF6
:100B9000037BB0F906102E48012BD0ED050A90ED2D
:100BA000070A0CD001EE901AF8EEE11A01EEA00A45
:100BB00080ED070A8169A9B1012918D01BE001EE77
:100BC000901AF8EEE11A01EEA00A80ED070AD2EDC4
:100BD000040A70EE810A30EE800A82ED030A0121D8
:100BE000816108E030EE010A82ED030A03E030EE95
:100BF000010A82ED030A184BD168994204DDB2EE76
:100C0000040A82ED030A04E0144B994201D982EDF3
:100C1000031A90ED030A1249BDEEC00A10EE103A15
:100C20000B7090ED040ABDEEC00A10EE103A4B7046
:100C300090ED020A01ED040A90ED010A01ED030AAC
:100C400092ED030A01ED050A70470000844A002472
:100C500060010024AC4E0024000020410000A0C12F
:100C6000A44E0024FFF790BF90ED002A90ED011AEA
:100C7000B7EEC20AB7EEC11AB0EEC00BB0EEC11BA0
:100C8000B4EEC10BF1EE10FA04D29FED070A80ED2D
:100C9000000A7047DFED050AB0EE420A02EE600A74
:100CA00080ED000A7047000000000000CDCC4C3EF3
:100CB000014801F067BB0000FC0A0024014801F074
:100CC00061BB0000840A0024014801F05BBB000006
:100CD000740B0024014801F055BB00009409002466
:100CE000014801F04FBB0000EC0B0024014801F06B
:100CF00049BB00000C0A002410B52C4A016891423F
:100D00003AD02A4A1832914236D0284A303291429B
:100D100032D0264A483291422ED0244A6032914243
:100D20002AD0224A7832914226D0204A90329142EB
:100D300022D01E4AA83291421ED01D4A91421BD099
:100D40001B4A1832914217D0194A3032914213D0BF
:100D5000174A483291420FD0154A603291420BD067
:100D6000134A7832914207D0114A9032914203D00F
:100D70000F4AA832914214D1CAB2103A1823B2FBDA
:100D8000F3F20C4C02F00703E35CC365032A04D9B9
:100D90006FF30901091D816506E06FF309018165A3
:100DA00002E021F0FF018165806D10BD100002405E
:100DB0001004024084DA000810B501680123224CB7
:100DC000CAB2A1421BD0204C1434A14217D01E4CF1
:100DD0002834A14213D01C4C3C34A1420FD01A4CF1
:100DE0005034A1420BD0184C6434A14207D0164CA9
:100DF0007834A14203D0144C8C34A1420FD1083A6C
:100E00001421B2FBF1F1114A02EB810202660F4A92
:100E10008032426601F01F018B40836610BD103A9C
:100E20001824B2FBF4F20A4C2144A82900D8083255
:100E3000084901EB8201016606498031416602F0F2
:100E40001F018B40836610BD085402580058025899
:100E5000F0FBFDBF000802400279521E072A31D87C
:100E6000194B016899421BD0174B1433994217D084
:100E7000154B2833994213D0134B3C3399420FD072
:100E8000114B503399420BD00F4B6433994207D02A
:100E90000D4B7833994203D00B4B8C33994207D1D9
:100EA0000A4901EB8201C16608494031016706E049
:100EB000074901EB8201C166054940310167012103
:100EC0009140416770470000085402580059025889
:100ED00000090240014610B500208B694FF0C07434
:100EE0008A6A002B0ED0B3F5005F1AD062B3012AD4
:100EF0002AD0022A28D0032A03D1C96AC90100D501
:100F0000012010BD1AB1012A06D0022AF9D1C96AFE
:100F1000C901F6D5012010BDC96AA142FBD101204B
:100F200010BD52B1012A0AD0022A06D0032AF7D1F5
:100F3000C96AA142F4D1012010BD012010BDC96AC7
:100F4000C901FBD5012010BD012010BD2DE9F04FD6
:100F5000856D8A4E894FDFF824C2A836DFF81C82DF
:100F6000DFF818920CF1180CDFF810A208F1300825
:100F7000DFF808B209F1480904680AF1600A0BF1C8
:100F8000780BBC426DD064456BD0444569D04C456C
:100F900067D0544565D05C4563D0DFF8E0E10EF1E1
:100FA000900E74455DD0B4425BD0DFF8D4E1744557
:100FB00057D0DFF8CCE10EF1180E744551D0DFF8B0
:100FC000C0E10EF1300E74454BD0DFF8B4E10EF104
:100FD000480E744545D0DFF8A8E10EF1600E744567
:100FE0003FD0DFF89CE10EF1780E744539D0DFF880
:100FF00090E10EF1900E744533D0DFF884E10EF1EC
:10100000A80E74452DD0DFF87CE1744529D0DFF8B7
:1010100074E10EF1140E744523D0DFF868E10EF18F
:10102000280E74451DD0DFF85CE10EF13C0E7445CE
:1010300017D0DFF850E10EF1500E744511D0DFF8F3
:1010400044E10EF1640E74450BD0DFF838E10EF187
:10105000780E744505D0DFF82CE10EF18C0E744546
:1010600009D1D0E919E4CEF80440C46E1CB1D0E92E
:101070001CE4CEF804400468BC422ED064452CD059
:1010800044452AD04C4528D0544526D05C4524D030
:101090003A4F9037BC4220D0B4421ED0384EB442B2
:1010A0001BD0374E1836B44217D0354E3036B442C6
:1010B00013D0334E4836B4420FD0314E6036B4426E
:1010C0000BD02F4E7836B44207D02D4E9036B44216
:1010D00003D02B4EA836B4421BD190F85C4004F0EC
:1010E0001F063F24B440AC600468256825F48025C1
:1010F0002560046863608368402B05D003689960AD
:101100000068C260BDE8F08F03689A600068C16043
:10111000F8E71C4EB4421BD01A4E1436B44217D016
:10112000184E2836B44213D0164E3C36B4420FD077
:10113000144E5036B4420BD0124E6436B44207D02F
:10114000104E7836B44203D00E4E8C36B442D9D10C
:1011500090F85C4004F01F060124B4406C60046801
:1011600063608368402B04D0036899600068C260A4
:10117000C8E703689A600068C160C3E710000240D6
:10118000100402400854025808B50CF08BFA009085
:1011900000F006F8052168460BF0EAFDF8E70000CC
:1011A0002DE9F041DFF820C29CF8000001287DD134
:1011B00000248CF80040854948780A7842EA0022E9
:1011C000C2F30A03A1F11602A3F580631380C508D8
:1011D000887845EA4015C5F30A05A5F58065558070
:1011E000CE78800940EA8606087946EA8026C6F36A
:1011F0000A06A6F5806696804708487947EAC01730
:10120000C7F30A07A7F58067D7805B1D0A2B00D8B4
:1012100014806D1D0A2D00D85480761D0A2E00D82A
:1012200094807F1D0A2F00D8D48083091372C0F3E5
:1012300001105072CE798D7945EA062555814E7A96
:101240000D7A45EA06259581CE7A8D7A45EA0625FE
:10125000D5810D7B15744D7B5574CE7B8D7B45EA16
:10126000062555820D7C497C45EA0121A1F5806166
:1012700009B2918201F52571B1F5A56F00D994826B
:101280000321534D0126534F032B95ED000A524D78
:10129000BDEEC02A33D188B3D3885B422B809388BC
:1012A0005B426B80022806D0032800E081E008D072
:1012B00001280CD016E0AE756C76CCF8244069732A
:1012C00010E0AC756C766873CCF824400AE0AC751D
:1012D0006E76DCF82410322903DA491CCCF824108D
:1012E00000E068732C735088E88010882881908A09
:1012F0004000A88012EE100A68814AE0FFE7022B46
:101300003CD178B3D188494229809188494269808B
:101310006873B2F902109FED311B00EE101AB8EE9F
:10132000C00B20EE010BBDEEC00B10EE101AE980D1
:10133000118829812E7312EE101A6981294991EDC5
:10134000000A294981ED040A022804D001280AD0A4
:10135000032811D01DE0908A00EB80007881AC75E5
:101360006E7616E00AE0AC756E76908A00EB80012E
:10137000C1EB004078810CE06C760AE0012B01D1D2
:1013800003280DD02C732C806C80AC802C81EC80D9
:101390006973687B1549012807D0032808D008E045
:1013A00006F09CFB07F012FDF3E73E730E7100E0C0
:1013B0000C710F4800688047BDE8F04103491222D4
:1013C0000C4805F0AEBC0000F4000024524E00248E
:1013D000C4000024A8010024844A00249A99999901
:1013E0009999C93FC8000024AC4E0024E8010024AC
:1013F000B8000024D807002402491222024805F050
:1014000090BC0000524E0024D80700247047000012
:1014100010B51649164C0A7BB4F90200012A02D114
:10142000497B01290FD000EE100A13491348F8EE4A
:10143000C00A9FED100A07F043FABDEEC00A10EE95
:10144000100AE08210BD0E49E18000EE100A0A4940
:101450000A48F8EEC00A9FED0B0A07F031FABDEE1C
:10146000C00A10EE100AE08210BD0000A80100249E
:10147000AC4C002400000000D44900241450002487
:1014800018FCFFFF00007AC410B53A483A4C017BC3
:10149000012902D1407B012813D00020E080B4F95B
:1014A0000200374900EE100A3648F8EEC00A9FEDF8
:1014B000330A07F005FABDEEC00A10EE100AE0820A
:1014C00010BDA068401FA06094ED040AF8EEC00AA9
:1014D00000EE100A2C48B8EEC00A07F06EFABDEE16
:1014E000C00A10EE100A00B2E080B4F9021000EE5B
:1014F000101A2349F8EEC00A00EE100A2148B8EE8F
:10150000C00A07F0DDF9BDEEC00A10EE100AE08255
:1015100042F21071B4F90400084444F62161884293
:10152000CED3A06800F57A70A06094ED040AF8EEBE
:10153000C00A00EE100A1448B8EEC00A07F03DFADF
:10154000BDEEC00A10EE100A00B2E080B4F902103D
:1015500000EE101A0A49F8EEC00A00EE100A094817
:10156000B8EEC00A07F0ACF9BDEEC00A10EE100AE2
:10157000E08210BDA8010024AC4C00240000000053
:10158000D449002414500024C04F00242DE9F04118
:101590002DED028B02F0E8FC04463B4E3C4D4FF42F
:1015A0007A779FED3A8A307830B1F068201AB0F53A
:1015B000FA7F07D30020307033481030017B0129B7
:1015C00016D018E0EF80B5F90200324900EE100A9B
:1015D0003148F8EEC00AB0EE480A07F071F9BDEEE6
:1015E000C00A10EE100AE882BDEC028BBDE8F08163
:1015F000407B012811D0B5F90200264900EE100AFF
:101600002548F8EEC00A9FED250A07F059F9BDEE0E
:10161000C00A10EE100AE882E6E72148E880B5F932
:1016200002001C4900EE100A1B48F8EEC00A9FEDAC
:101630001D0A07F045F9BDEEC00A10EE100AE88257
:101640007068201AB842CFD32869B168401A00D513
:1016500040420A2814DA01203070F460EF80B5F9B6
:1016600002000C4900EE100A0B48F8EEC00AB0EE7A
:10167000480A07F025F9BDEEC00A10EE100AE8820C
:1016800074602869B060AFE79801002400007A44D4
:10169000AC4C0024D4490024145000240000000065
:1016A00018FCFFFF00007AC4704772B6FEE7000026
:1016B000014801F06FBF000048050024014801F017
:1016C00069BF000048050024014801F063BF000025
:1016D000E8050024014801F05DBF0000E805002492
:1016E00030B5426B036853F8844F4FF6FC718C435E
:1016F00044EA82041C60036853F8844F058F24F485
:101700007F0444EA05441C60836B1A44036853F861
:10171000884F8C4344EA82041C60036853F8884F66
:10172000858F24F4FE0444EA05441C60C36B02EB7D
:101730004302036853F8A04F8C4344EA82041C60C0
:10174000036853F8A04FB0F8405024F4FE0444EA74
:1017500005441C60D0E9103403FB0422036853F8ED
:10176000B04F8C4344EA82041C60036853F8B04FC6
:10177000B0F8485024F4FE0444EA05441C60D0E963
:10178000123403FB0422036853F8AC4F8C4344EA41
:1017900082041C60D0E9143403FB0422036853F86C
:1017A000F04F8C4344EA82041C60036853F8F04F06
:1017B000B0F8585024F47C1444EA05441C60836D4E
:1017C00002EB4303026852F8C04F8C4344EA8301A2
:1017D0001160016851F8C02FB0F85C3022F47C121F
:1017E00042EA03420A60016851F8C02F90F8603065
:1017F00022F07C5242EA03620A60416B224A02EB09
:101800008101C166826B01EB82020267C36B02EB4E
:10181000C3024267D0E91034634302EB830282675C
:10182000D0E91234634302EB8302C267D0E9143477
:10183000634302EB8302C0F88020836D02EBC30296
:10184000C0F88420C46D836E5C4302EB8402C0F850
:101850008820046E5C4302EB8402C0F890200B4B9E
:101860009A4208D99830416841F020014160032133
:101870000170012030BD002200E004C1D0F890309A
:101880008B42FAD8002030BD00AC0040FCD30040B1
:10189000F0B5D1E901650C692C430D68002E1AD012
:1018A00045F080452C4391F82070D1E90665354319
:1018B0004E6946EA076635438E8945EA0645D0F803
:1018C0008460806E584306EB80031C605D600833C3
:1018D00000200B4E0FE044EA8544E4E71418155C41
:1018E000E77845EA0765A77864783F0447EA042467
:1018F000254320C3001DCC68345D8442EED8F0BD82
:101900008CDA000838B50D460024046044600221DA
:1019100081600121C160046144610146284601F0F3
:1019200004FD08B1FFF7C1FE02222846002311463C
:10193000009401F03EFD002803D0BDE83840FFF7D9
:10194000B4BE38BD10B50446491EC8B2104900EBFC
:10195000800001EB00102146FFF7D4FF204602F083
:10196000C8F908B1FFF7A1FE0A480022012101F0E1
:1019700063FC08B1FFF799FE07480022012101F03E
:101980005BFC002803D0BDE81040FFF78EBE10BD01
:10199000A84A002448050024E805002410B58CB0AE
:1019A0000E9C00910193029200210391082204925F
:1019B0000591069107910891099121680A91616842
:1019C0000B9100231A4669460BF010FC0CB010BDB9
:1019D00094B0154E0CAF4FF0FF3808A9424630685E
:1019E0000BF016FD089CA4F2052001280BD820223C
:1019F00039466846FEF7FCFD0C4809A90EC9056882
:101A00002046A847E9E7A4F500710739E5D120226F
:101A100039466846FEF7ECFD054809A90EC9056878
:101A20002046A847D9E7000000000024EC0000246D
:101A3000E400002494B0184E184D0DF130084FF01A
:101A4000FF3940F21F1708A94A4630680BF0E0FC46
:101A5000089C9DF8480000F00F032B80BC420CD17D
:101A6000202241466846FEF7C3FD0D4809A90EC96C
:101A7000D0F804C02046E047E5E7012BE3D120225F
:101A800041466846FEF7B4FD064809A90EC9D0F8DC
:101A90000CC02046E047D6E704000024EE010024F5
:101AA000B8000024440100247047000010B500F085
:101AB00047F81D481D4C90ED000AF1EE400AFDEE7E
:101AC000E00A10EE900A00B2E080BDEEC00A10EE0F
:101AD000101AE184B4F9001000EE101A1449F8EE5F
:101AE000C00A00EE100A1348B8EEC00A06F0E8FE7D
:101AF000BDEEC00A10EE100AA082B4F920000E4913
:101B000000EE100AB4F92600F8EEC00A00EE100A42
:101B10000A48B8EEC00A06F0D3FEBDEEC00A10EEC9
:101B2000100AA08610BD0000DC0100244E4D0024E8
:101B300054490024204F002494490024704F00246D
:101B400008480949407E002806D0012803D19FEDAE
:101B5000070A81ED000A70479FED050A81ED000A32
:101B600070470000844A0024DC01002400C0C14505
:101B700000000000FEB50446002000900190029095
:101B800004F12001204605F0E5FF94ED080A04F178
:101B9000300104F1280006F04DFC94ED090A04F12F
:101BA0003C0104F1340006F045FC2834444DDDEDE1
:101BB000002AD4ED000A94F9080094ED031AC0EB52
:101BC000C00294F9140020EE810A05EB820303EBB6
:101BD0008001D1ED001A40EE212A94F91510D4EDC0
:101BE000041A03EB810360EEA10A93ED002A40EE94
:101BF000822A94F9093094ED012AC3EBC30322EE43
:101C0000011A05EB830505EB800696ED003A41EEDF
:101C1000032A05EB810562EE211A95ED002A41EEBB
:101C2000822A274E9DED012AC43606EB820505EB7C
:101C3000800797ED003A00EE032A05EB810595ED4C
:101C4000003A00EE832A06EB830505EB800696ED4D
:101C5000003A01EE032A05EB810595ED003A01EE0D
:101C6000832A184D9DED023A05EB820202EB8006B5
:101C7000D6ED003A00EE233A02EB810292ED000A23
:101C800000EE803A05EB830202EB800090ED000A43
:101C900001EE003A02EB810090ED000A01EE803A7D
:101CA000B0EE080AC2EE800A44ED0A0AC2EE000A4B
:101CB00044ED090AC3EE000A44ED080AFEBD000027
:101CC00020DB0008A8DC000800220D4B002904D00E
:101CD000012907D002290ED109E0D968C14001F0DD
:101CE000010208E09968C14001F0010203E01969AE
:101CF000C14001F001020AB1012070470020704785
:101D0000B44D002410B5054C03E010F8013B5340DE
:101D1000E25C491E4B1CF8D1104610BD6CDD00087A
:101D200010B50B480168001D0468001D00680844D8
:101D300000280BD00749082205F0EAFC05490422D7
:101D40002046BDE81040103105F0E2BC10BD000097
:101D500000E8F11F360200242DE9F84F044602F096
:101D600003F900905CB194F83500022809D0802076
:101D70006065002084F834000120BDE8F88F012060
:101D8000FBE7D14ED04FD0491836DFF83C833037CF
:101D9000DFF83493DFF830A308F14808DFF828B300
:101DA00009F1600920680AF1780A0BF1900B88426A
:101DB0002ED0B0422CD0B8422AD0404528D0484539
:101DC00026D0504524D0584522D0BF4AA832904250
:101DD0001ED0BE4A90421BD0BC4A1832904217D047
:101DE000BA4A3032904213D0B84A483290420FD0AB
:101DF000B64A603290420BD0B44A7832904207D053
:101E0000B24A9032904203D0B04AA83290420AD1EE
:101E1000026822F01E0202602068426922F08002FD
:101E20004261256804E0026822F00E020260256823
:101E3000206888424DD0B0424BD0B84249D040458E
:101E400047D0484545D0504543D0584541D09E4A9B
:101E5000A83290423DD09D4A90423AD09B4A1832D7
:101E6000904236D0994A3032904232D0974A483226
:101E700090422ED0954A603290422AD0934A7832CE
:101E8000904226D0914A9032904222D08F4AA83276
:101E900090421ED08E4A90421BD08D4A14329042FE
:101EA00017D08B4A2832904213D0894A3C32904254
:101EB0000FD0874A503290420BD0854A643290420C
:101EC00007D0834A7832904203D0814A8C329042C4
:101ED00004D1206E026822F4807202607A49206880
:101EE00088422ED0B0422CD0B8422AD0404528D0CB
:101EF000484526D0504524D0584522D07249A831B3
:101F000088421ED0714988421BD0704918318842DE
:101F100017D06E493031884213D06C49483188421D
:101F20000FD06A49603188420BD0684978318842C5
:101F300007D066499031884203D06449A83188426D
:101F400004D1016821F00101016013E0016821F072
:101F5000010101600EE002F007F80099401A05281F
:101F600008D92020343420620320607000202070C3
:101F7000012002E72868C007EDD1534A01212068FB
:101F800090422ED0B0422CD0B8422AD0404528D022
:101F9000484526D0504524D0584522D04A4BA83336
:101FA00098421ED0494B98421BD0484B1833984258
:101FB00017D0464B3033984213D0444B48339842A5
:101FC0000FD0424B603398420BD0404B783398424D
:101FD00007D03E4B9033984203D03C4BA8339842F5
:101FE00008D1A06D94F85C3003F01F053F23AB408F
:101FF000836007E0A06D94F85C3003F01F0301FAE2
:1020000003F34360206890424DD0B0424BD0B842B9
:1020100049D0404547D0484545D0504543D0584524
:1020200041D0294AA83290423DD0284A90423AD025
:10203000264A1832904236D0244A3032904232D06A
:10204000224A483290422ED0204A603290422AD012
:102050001E4A7832904226D01C4A9032904222D0BA
:102060001A4AA83290421ED0194A90421BD0184AF0
:102070001432904217D0164A2832904213D0144A94
:102080003C3290420FD0124A503290420BD0104A4C
:102090006432904207D00E4A7832904203D00C4A04
:1020A0008C3290420BD1D4E919205060E06E30B1EF
:1020B000026822F480720260D4E91C20506034343B
:1020C00061700020207058E61000024010040240A9
:1020D000085402582DE9F05F002808D090F8351018
:1020E000022906D0802141650120BDE8F09F012032
:1020F000FBE7A14AA04BA04C18329F4D30339E4EB7
:102100004834DFF874B26035DFF870C27836DFF833
:102110006C82DFF868920CF1300CDFF860A208F1F5
:102120006008016809F17809944F0AF1900A59454D
:1021300031D091422FD099422DD0A1422BD0A9422B
:1021400029D0B14227D0DFF830E20EF1900E714570
:1021500021D0DFF824E20EF1A80E71451BD0DFF884
:102160001CE2AEF1180E714515D0B94213D0DFF85C
:102170000CE20EF1180E71450DD061450BD0DFF861
:10218000FCE10EF1480E714505D0414503D04945AB
:1021900001D0514537D14FF0040E80F835E0594554
:1021A00027D0914225D0994223D0A14221D0A942E3
:1021B0001FD0B1421DD070489030814219D06E4876
:1021C000A830814215D06D481838814211D0B942EB
:1021D0000FD06A48183081420BD0614509D067485A
:1021E0004830814205D0414503D0494501D0514591
:1021F00004D1086820F001000860BAE0086820F007
:1022000001000860B5E0D1F800E02EF00E0EC1F834
:1022100000E00168DE46594531D091422FD0994205
:102220002DD0A1422BD0A94229D0B14227D0DFF82E
:1022300048B10BF1900B594521D0DFF83CB10BF1BF
:10224000A80B59451BD0DFF834B1ABF1180B594539
:1022500015D0B94213D0DFF824B10BF1180B594552
:102260000DD061450BD0DFF814B10BF1480B594587
:1022700005D0414503D0494501D0514506D1D1F89B
:1022800000B02BF0010BC1F800B005E0D1F800B0B0
:102290002BF0010BC1F800B001684FF0010B714544
:1022A00046D0914244D0994242D0A14240D0A94266
:1022B0003ED0B1423CD0304A9032914238D02E4A82
:1022C000A832914234D02D4A183A914230D0B942C6
:1022D0002ED02A4A183291422AD0614528D0274A66
:1022E0004832914224D0414522D0494520D0514521
:1022F0001ED0234A91421BD0214A1432914217D05A
:102300001F4A2832914213D01D4A3C3291420FD0CD
:102310001B4A503291420BD0194A6432914207D085
:10232000174A7832914203D0154A8C32914218D123
:10233000016E0A6822F480720A60816D90F85C2058
:1023400002F01F020BFA02F24A60D0E91921516033
:10235000C16E31B10A6822F480720A60D0E91C2192
:10236000516080F835B0002180F83410016D01B162
:1023700088470020B9E6000010000240280402400F
:10238000085402582DE9FF5F0446002001904FF4E5
:102390001651FD480068B0FBF1F00090A56D2E6865
:1023A0002968FA4FDFF8E4B3DFF8E083DFF8DC9365
:1023B0000BF1180BDFF8D4A308F13008206809F1FD
:1023C00048090AF1600AB8423BD05A46904238D0D8
:1023D000404536D0484534D0504532D0EB4A78326B
:1023E00090422ED0E94A903290422AD0E74AA83251
:1023F000904226D0E64A904223D0E54A18329042D5
:102400001FD0E34B303398421BD0E14B4833984206
:1024100017D0DFF87CC30CF1600C604511D0DFF8F9
:1024200070C30CF1780C60450BD0DFF864C30CF17D
:10243000900C604505D0DFF858E30EF1A80E70450A
:102440007ED194F85C10082301F01F0103FA01F219
:1024500032424BD0B84232D0584530D040452ED0D1
:1024600048452CD050452AD0C8497831884226D0DA
:10247000C6499031884222D0C449A83188421ED032
:10248000C34988421BD0C2491831884217D0C0497D
:102490003031884213D0BE49483188420FD0BC4900
:1024A000603188420BD0BA497831884207D0B849A8
:1024B0009031884203D0B649A831884203D10168DF
:1024C00001F0040102E0016801F0080171B1016846
:1024D00021F00401016094F85C0000F01F0003FA91
:1024E00000F2AA60606D40F00100606594F85C0045
:1024F000012100F01F008140314240D02068B842E5
:1025000034D0584532D0404530D048452ED0504583
:102510002CD09E4A7832904228D09C4A90329042E9
:1025200024D09A4AA832904220D0994A90421DD095
:10253000974A1832904219D0954A3032904200E0C2
:10254000D2E113D0924A483290420FD0904A603282
:1025500090420BD08E4A7832904207D08C4A90320B
:10256000904203D08A4AA83290427DD1406910F04F
:10257000800F04D0A960606D40F00200606594F89F
:102580005C00042100F01F00814031423ED02068F1
:10259000B84232D0584530D040452ED048452CD096
:1025A00050452AD0794A7832904226D0774A9032E4
:1025B000904222D0754AA83290421ED0744A90426E
:1025C0001BD0734A1832904217D0714A3032904271
:1025D00013D06F4A483290420FD06D4A6032904219
:1025E0000BD06B4A7832904207D0694A90329042C1
:1025F00003D0674AA83290424ED1006810F0020F13
:1026000004D0A960606D40F00400606594F85C003F
:10261000102100F01F008140314260D02068B84294
:1026200034D0584532D0404530D048452ED0504562
:102630002CD0564A7832904228D0544A9032904258
:1026400024D0524AA832904220D0514A90421DD004
:102650004F4A1832904219D04D4A3032904215D02C
:102660004B4A4832904200E014E00FD0484A6032B2
:1026700090420BD0464A7832904207D0444A90327A
:10268000904203D0424AA832904207D1006800F03D
:10269000080006E0006872E70068B7E7006800F02D
:1026A000040058B1A9602068016849030CD500688E
:1026B000000304D4216C09B1204688470FE0A16CC7
:1026C00069B1204688470AE00168C90503D401685A
:1026D00021F008010160216C09B12046884794F877
:1026E0005C00202100F01F00814031427BD0206837
:1026F000B84232D0584530D040452ED048452CD035
:1027000050452AD0214A7832904226D01F4A903232
:10271000904222D01D4AA83290421ED01C4A9042BC
:102720001BD01B4A1832904217D0194A30329042BF
:1027300013D0174A483290420FD0154A6032904267
:102740000BD0134A7832904207D0114A903290420F
:1027500003D00F4AA832904203D1006800F0100065
:1027600002E0006800F00200E8B3A96094F83500C8
:10277000042812D02068016849033DD50068000391
:1027800035D4616C79B305E04800002410000240A4
:1027900010040240204688473FE02068016821F08D
:1027A000160101602068416921F080014161206CBF
:1027B00008B9A06C20B12068016821F0080101600F
:1027C00094F85C0000F01F013F208840A8600120C1
:1027D00084F83500002084F83400216D002974D07D
:1027E00004B0204600E018E0BDE8F05F0847E16B68
:1027F00099B12046884710E00168C90509D40168ED
:1028000021F010010160012084F83500002084F8D7
:102810003400E16B09B120468847606D002854D030
:10282000606DC00758D0042084F835002068B84295
:1028300031D058452FD040452DD048452BD050455C
:1028400029D0B749884226D0B5491831884222D0CC
:10285000B349303188421ED0B24988421BD0B149B9
:102860001831884217D0AF493031884213D0AD4972
:10287000483188420FD0AB49603188420BD0A9491A
:102880007831884207D0A7499031884203D0A549C2
:10289000A831884204D1016821F00101016003E000
:1028A000016821F00101016021680198009A401C33
:1028B0000190904202D80868C007F6D10868C007A6
:1028C00004D0032084F8350003E087E0012084F879
:1028D0003500002084F83400E16C00297ED004B07B
:1028E0002046BDE8F05F08478F4EB0421BD08E4EA9
:1028F0001436B04217D08C4E2836B04213D08A4ED0
:102900003C36B0420FD0884E5036B0420BD0864E87
:102910006436B04207D0844E7836B04203D0824E3F
:102920008C36B0425AD106684FF0040E94F85CB071
:102930000BF01F0B0EFA0BFE1EEA010FCDF80CE098
:102940005ED05FEA467E5BD503986860300411D59F
:10295000F00307D4A16C002940D004B02046BDE8A4
:10296000F05F0847216C002938D004B02046BDE84C
:10297000F05F0847B0063BD42068B8422DD06849C4
:102980006039884229D0404527D0484525D0504558
:1029900023D06349884220D06149183188421CD035
:1029A0005F493031884218D05E49884215D0904244
:1029B00013D05C49303188420FD098420DD059492C
:1029C0006031884209D057497831884205D0604546
:1029D00003D05449A831884206D100E07CE0016868
:1029E00021F00801016003E0016821F004010160A9
:1029F000216C002970D004B02046BDE8F05F084784
:102A00004FF0020E0EFA0BFE1EEA010FCDF808E0A1
:102A100063D05FEA867E60D502986860300411D585
:102A2000F00307D4616C002978D004B02046BDE8DB
:102A3000F05F0847E16B002970D004B02046BDE884
:102A4000F05F0847B0063FD42068B8422DD0344923
:102A50006039884229D0404527D0484525D0504587
:102A600023D02F49884220D02D49183188421CD0CC
:102A70002B493031884218D02A49884215D09042DB
:102A800013D02849303188420FD098420DD02549C3
:102A90006031884209D023497831884205D06045A9
:102AA00003D02049A831884204D1016821F01401E3
:102AB000016003E0016821F00A010160012084F84F
:102AC0003500002084F83400E16B002926D004B0E2
:102AD0002046BDE8F05F084720E0082202FA0BF22A
:102AE0000A421BD0310719D5016821F00E0101609F
:102AF00094F85C0000F01F01012000FA01F1696008
:102B0000606584F83500002084F83400E16C002909
:102B100004D004B02046BDE8F05F0847BDE8FF9F41
:102B20008800024010040240085402582DE9F05F6A
:102B3000044601F019FA0646002C7DD0F44F02221B
:102B4000DFF8CC830025DFF8C893DFF8C4A308F1D1
:102B50003008DFF8BCB309F1480920680AF1600ABF
:102B60000BF1780BB84232D0E949183188422ED0A7
:102B700040452CD048452AD0504528D0584526D02D
:102B8000E3499031884222D0E149A83188421ED0E1
:102B9000E04988421BD0DF491831884217D0DD490F
:102BA0003031884213D0DB49483188420FD0D949AF
:102BB000603188420BD0D7497831884207D0D54957
:102BC0009031884203D0D349A83188427ED184F81D
:102BD000352084F83450B84234D0CD491831884279
:102BE00030D040452ED048452CD050452AD05845AD
:102BF00028D0C7499031884224D0C549A83188429D
:102C000020D0C44988421DD0C2491831884219D009
:102C1000C0493031884215D0BE494831884211D070
:102C2000BC49603188420DD0BA497831884209D018
:102C3000B8499031884200E009E003D0B549A83195
:102C4000884207D1016821F00101016013E00120F1
:102C5000BDE8F09F016821F0010101600BE001F087
:102C600083F9801B052806D920206065032084F89D
:102C700035000120ECE720680068C007EFD122682A
:102C80001168A5480140D4E902031843D4E9043689
:102C900033431843A3691843E3691843236A18436D
:102CA0000843616A042903D1D4E90B13194308438B
:102CB0009A4909686FF30F01B1F1005F11D36168A0
:102CC000A1F12903052B0AD9163B00E02EE0032BC6
:102CD00005D9083B012B02D94F39032901D840F40B
:102CE000801010602068406920F00701606A40EAA7
:102CF000010604280DD1A06A0643E06A48B12046C7
:102D0000FEF7E8F828B140206065012084F835001E
:102D10009EE7206846612046FDF7EEFF94F85C10C0
:102D200001F01F023F219140816066E07C498842AA
:102D30001BD07B4B1433984217D0794B28339842E1
:102D400013D0774B3C3398420FD0754B5033984299
:102D50000BD0734B6433984207D0714B7833984251
:102D600003D06F4B8C3398427ED1884211D06C498E
:102D7000143188420DD06A492831884209D0684907
:102D80003C31884205D066495031884201D06449BF
:102D9000643184F8352084F83450026861490A406F
:102DA000A16840297ED080297DD00021E36841EAD6
:102DB000D301236941EAD301636941EAD301A369DD
:102DC00041EAD301E36941EAD301236A41EA1311DD
:102DD0001143016052492068494208441421B0FB64
:102DE000F1F08000E0652046FDF786FF94F85C1066
:102DF00001F01F020121914041602068B84256D085
:102E000043491831884252D0404550D048454ED0B1
:102E100050454CD058454AD03D499031884246D023
:102E20003B49A831884242D03A4988423FD039498B
:102E3000183188423BD037493031884237D0354944
:102E40004831884233D03349603188422FD03149EC
:102E5000783188422BD02F499031884227D02D4994
:102E6000A831884223D000E02DE02D4988421ED0B1
:102E70002B49143188421AD029492831884216D06A
:102E800027493C31884212D02549503188420ED022
:102E90002349643188420AD021497831884206D0DA
:102EA0001F4901E00AE00BE08C31884229D120461D
:102EB000FDF782FFA06880280CD00CE0102175E798
:102EC0004FF4804172E740206065032084F83500AC
:102ED0000120BDE66560216E20790860D4E91910F3
:102EE00048606068401E072808D82046FDF7B4FFF8
:102EF000E06E0560D4E91C10486002E0E5662567D5
:102F000065676565012084F835000020A0E60000B3
:102F100010000240100402403F8010FE0010005CD0
:102F2000085402580F00FEFF2DE9F84F0446002018
:102F30000090002C15D094F83400012813D0012003
:102F400084F8340094F835500020012D0DD04FF452
:102F50000061616584F83400012000900098BDE8AC
:102F6000F88F0120FBE70220F9E7022584F83550AD
:102F70006065A54DA44EA44F1835DFF88CC23036DD
:102F8000DFF884824837DFF88092DFF87CA208F10E
:102F90006008DFF874B209F1780920680AF1900A34
:102FA0000BF1A80B60453BD0A84239D0B04237D0D6
:102FB000B84235D0404533D0484531D050452FD068
:102FC00058452DD0DFF844C2604529D0DFF83CC217
:102FD0000CF1180C604523D0DFF830C20CF1300C36
:102FE00060451DD0DFF824C20CF1480C604517D0B5
:102FF000DFF818C20CF1600C604511D0DFF80CC28C
:103000000CF1780C60450BD0DFF800C20CF1900C8D
:10301000604505D0DFF8F4C10CF1A80C604506D17D
:10302000D0F800C02CF0010CC0F800C005E0D0F8CA
:1030300000C02CF0010CC0F800C02046FDF786FF50
:103040007149206888422CD0A8422AD0B04228D0AA
:10305000B84226D0404524D0484522D0504520D003
:1030600058451ED0694A90421BD0684A1832904297
:1030700017D0664A3032904213D0644A48329042A8
:103080000FD0624A603290420BD0604A7832904250
:1030900007D05E4A9032904203D05C4AA8329042F8
:1030A0000DD1026822F01E0242F016020260206C6E
:1030B00090B12068026842F0080202600CE00268E9
:1030C00022F00E0242F00A020260206C20B1206859
:1030D000026842F004020260206888424BD0A84295
:1030E00049D0B04247D0B84245D0404543D048458A
:1030F00041D050453FD058453DD0444A90423AD007
:10310000424A1832904236D0404A3032904232D051
:103110003E4A483290422ED03C4A603290422AD0F9
:103120003A4A7832904226D0384A9032904222D0A1
:10313000364AA83290421ED0354A90421BD0344ABB
:103140001432904217D0324A2832904213D0304A7B
:103150003C3290420FD02E4A503290420BD02C4A33
:103160006432904207D02A4A7832904203D0284AEB
:103170008C3290420DD1206E0268D20303D50268D2
:1031800042F480720260E06E18B1026842F480720C
:103190000260206888422CD0A8422AD0B04228D0B1
:1031A000B84226D0404524D0484522D0504520D0B2
:1031B00058451ED0154988421BD014491831884201
:1031C00017D012493031884213D010494831884213
:1031D0000FD00E49603188420BD00C4978318842BB
:1031E00007D00A499031884203D00849A831884263
:1031F00004D1016841F001010160AFE6016841F0CE
:1032000001010160AAE60000100002401004024023
:103210000854025870B5044600F0A6FE0546601C2E
:1032200002D004480078044400F09EFE401BA042F7
:10323000FAD370BD3C00002410B590F89830012BF3
:1032400008D0022B06D050F89C1F41F0020101600B
:10325000012010BD03689C6D0C4204D1DC6D44F06C
:103260000104DC6505E09C6D31EA04041CD00324F4
:10327000DC658B0504D5036853F8E04F14431C60EC
:103280004B0504D5036853F8E44F14431C600068F1
:10329000426D084B0B401A4342650748026842EAF8
:1032A00091710160002010BDDC6D44F00204DC650A
:1032B000DFE70000FFFFCF3F14A8004070B50446D1
:1032C00094F89800022806D054F89C0F40F00800AB
:1032D0002060012070BD2068D0F8C03013F07C5F02
:1032E0000AD0D0F8C4309B020DD554F89C0F40F49E
:1032F00000702060012070BD54F89C0F40F0200049
:103300002060012070BDD0F8C400C0F30445204601
:103310002B46FEF7BDFA21680120A840C1F8D00075
:10332000C4F89400002070BD704710B590F8982044
:10333000012A08D0022A06D050F89C1F41F0020151
:103340000160012010BDCA680B688BB1072A0B69A8
:1033500043EA42732BD00C7A4A6942EA8472496884
:10336000006F00EBC100036042604FF0000010BD31
:10337000072A10D00C7A4FEAC2624B6943EA847381
:103380000C8A42EA044243EA02034968C06E00EB39
:1033900081000360E9E70B8A4FF060548A6942EAD2
:1033A0000343CA6944EA022243EA0203EDE78A6959
:1033B000D5E730B5039C90F89850012D06D050F811
:1033C0009C1F41F004010160012030BD006809012B
:1033D00041EA820141EA43012143C0F88010002004
:1033E00030BD704770470000F0B5002490F8985049
:1033F000022D06D050F89C1F41F008010160012009
:10340000F0BD40290BD0412936D0056D8D4260D8E2
:1034100050F89C1F41F0200101600120F0BD0568BB
:10342000D5F8A06016F4FE0F18D0D5F8A460760683
:103430001BD0D5F8A460F60105D5D5F8A06016F02C
:10344000004F00D50124D5F8A450C5F305252C4420
:10345000456C466F654306EB85063FE050F89C1FC0
:1034600041F0200101600120F0BD50F89C1F41F4A3
:10347000807101600120F0BD0568D5F8B06016F4D8
:10348000FE0F18D0D5F8B46076061BD0D5F8B4601E
:10349000F60105D5D5F8B06016F0004F00D501242F
:1034A000D5F8B450C5F305252C44C56C866F65432B
:1034B00006EB850612E050F89C1F41F020010160E8
:1034C0000120F0BD50F89C1F41F480710160012083
:1034D000F0BD456DC66F4D4306EB8506356805F0BA
:1034E000804555602DB3356825F060451560356819
:1034F00005F000559560356805F000451561B58803
:10350000ADB2D5617568C5F30345D560756805F43E
:1035100080155561756805F4001595617568C5F3EA
:103520000665156275680836ED0F55620025174F60
:1035300009E03568C5F38A451560D8E716F805C077
:1035400003F805C06D1CD2F80CC017F80CC0AC45D0
:10355000F4D8402909D041290BD0012220290CD2CE
:1035600000688A40C0F898200DE00068C0F8A840C4
:1035700009E00068C0F8B84005E0006801F01F01EC
:103580008A40C0F89C200020F0BD00008CDA0008C2
:10359000704700002DE9FE4F0446B64F386880079B
:1035A000391D096800EA817002902068016D01F4FC
:1035B0007041D0F854A00AEA010A016D01F00F0130
:1035C000D0F854B00BEA010B016D01F0F001426D2F
:1035D0000A400192016D01F07151D0F8548008EA5F
:1035E0000108016D01F06071426D0A400092416D69
:1035F000056D4FF00009CE43F10509D4E943C90533
:1036000006D4B9150165C7F800902046FFF7C0FF42
:10361000700510D4E84340050DD42068D0F8DC20B4
:10362000D0F8E41011404FF480620265C7F80090B2
:10363000204600F07CFB029858B18F490298084060
:10364000216808650298800F386002992046FFF7CC
:103650006BFEBAF1000F0BD0216887480AEA000020
:1036600008654FEA9A7038605146204600F061FBC9
:10367000BBF1000F0BD021687F480BEA0000086502
:103680004FEA9B7038605946204600F0D7FA0198FF
:1036900058B1794901980840216808650198800F60
:1036A00038600199204600F023FB30050BD4E84335
:1036B000000508D421684FF400600865C7F8009041
:1036C000204600F037FBB00510D4E84380050DD448
:1036D0002068D0F8D820D0F8E01011404FF40072E4
:1036E0000265C7F80090204600F022FB30030BD49F
:1036F000E843000308D421684FF400200865C7F8A8
:103700000090204600F098FAF0030BD4E843C00381
:1037100008D421684FF480300865C7F8009020462F
:1037200000F004FB70030BD4E843400308D4216885
:103730004FF480200865C7F80090204600F0F5FAA5
:10374000B0030ED4E84380030BD421684FF400305B
:103750000865C7F80090D4F89C0040F08000C4F8D9
:103760009C00009858B144490098084021680865B9
:103770000098800F386000992046FFF733FEB8F1BB
:10378000000F0DD021683C4808EA000008654FEAA8
:1037900098703860D4F89C0040EA0800C4F89C0097
:1037A0003649206888425BD160688168890757D0B4
:1037B000016A01F00F02416A1140026A02F0300210
:1037C000476A1740026A02F4C072D0F8248008EAFF
:1037D0000208026A02F4FC42456A1540026A02F4D9
:1037E000F022466A1640D0F82490D0F820A019B1F3
:1037F0000162204600F096FA2FB1606807623946F0
:10380000204600F091FA6FEA090040060ED46FEAF4
:103810000A0040060AD46068C16B090CC26B02F052
:103820003F0240230362204600F07DFAB8F1000F0A
:1038300006D06068C0F820804146204600F071FA4A
:1038400035B160680562D4F89C002843C4F89C0038
:1038500036B160680662D4F89C003043C4F89C001E
:10386000D4F89C00002802D02046FFF7BAFDBDE83E
:10387000FE8F000010A80040FFFFCF3F00A00040D7
:103880002DE9F04393B004464C2295496846FCF775
:10389000AFFE6CB1934F2068B84202D100F5807042
:1038A00060604FF4407994F89800002620B108E059
:1038B000012013B0BDE8F08384F89960204600F041
:1038C00013F92068816921F01001816100F04CFB3F
:1038D00005464FF003080DE000F046FB401B0A28A8
:1038E00008D954F89C0F40F00100206004F8048CC3
:1038F0000120DEE7206880690007EDD42068816937
:1039000041F00101816100F02FFB05460DE000F060
:103910002BFB401B0A2808D954F89C0F40F00100EB
:10392000206004F8048C0120C3E720688069C00788
:10393000EDD02068816941F002018161207C01287D
:1039400039D02068816941F040018161607C0128A3
:1039500037D02068816921F480418161A07C0128F1
:1039600035D02068816941F4805181612068816986
:10397000A26821F44071114381612068816921F0BE
:10398000A40181612068016921F010010161E068F2
:10399000012822D030B302282BD02068816941F061
:1039A000800181612068016941F010010161E068D6
:1039B000032818D022E02068816921F0400181614C
:1039C000C4E72068816941F480418161C6E72068CD
:1039D000816921F480518161C8E72068816941F0E3
:1039E000040181610AE02068816941F02001816160
:1039F00004E02068816941F020018161207E401E41
:103A00004106E069401E41EA0020216A491E084340
:103A1000A18A491E40EA01402168C861A068484562
:103A20000FD1E16AA06A491E401E40EA0121206BC5
:103A3000401E41EA0011A08C401E41EA004021686E
:103A4000C860206E28B1206850F8C01F626E114314
:103A50000160D4E91701C842694609D0206850F8CE
:103A6000C82FA36E22F0070251F823301A430260D8
:103A7000206C48B1206850F8BC2F636C22F007021C
:103A800051F823301A430260A06C50B1206850F8FE
:103A9000BC2FE36C22F0700251F8233042EA03128B
:103AA0000260206D50B1206850F8BC2F636D22F485
:103AB000E06251F8231042EA012101602068B84217
:103AC00004D16068816821F00301816044F8946F3B
:103AD000A66001202071943C2046FDF701FEE8E637
:103AE0009CDA000800A000402DE9F043B7B004467E
:103AF000142132A8FCF7AEFDC02102A8FCF7AAFDF4
:103B0000494D002646494FF0805220680C3D454FF4
:103B10004FF00208444C88424FF009093ED151133E
:103B20000020CDE902101E9202A801F003FA08B1AC
:103B3000FDF7BBFD3868401C3860012807D12068BC
:103B400040F480702060206800F480700190286844
:103B500040F008002860286800F008000190032069
:103B60003290CDF8CC8034963596CDF8D89032A9E5
:103B70002E4800F0E1F800220521132000F076FA2B
:103B8000132000F065FA00220521152000F06EFADE
:103B9000152000F05DFA37B0BDE8F0832449884273
:103BA000F9D100204FF40041CDE902101E9202A885
:103BB00001F0C0F908B1FDF778FD3868401C3860A5
:103BC000012807D1206840F480702060206800F44C
:103BD00080700190286840F002002860286800F09A
:103BE0000200019060203290CDF8CC80349635965A
:103BF000CDF8D89032A90F4800F09EF80022052198
:103C0000142000F033FA142000F022FA00220521DB
:103C1000162000F02BFA162000F01AFABBE700007D
:103C200000A0004038000024EC440258000C025868
:103C300000A400400004025870470000F8B5264B6D
:103C400000210268254D9A4201D1297001E001212D
:103C500029702978224C01EB810104EB011202F159
:103C6000480320324021FFF7BFFB287804F1A0066B
:103C7000282200EB800100EB400004EB0111203111
:103C800006EB0010FCF7B4FC287800EB800200EB98
:103C9000400104EB021206EB0111D2E91223C1E943
:103CA0000A2388B10F4800236A46006809F050FBD8
:103CB0000098002807D00C494FF080500860BFF3EF
:103CC0004F8FBFF36F8FF8BD0848002331466A4617
:103CD000006809F03DFBEBE700A00040E000002495
:103CE000A84A00240400002404ED00E000000024A1
:103CF000704790F89810012906D050F89C1F41F0A9
:103D00000401016001207047022180F898100168C9
:103D10008A6922F001028A610021C0F89C1000200B
:103D200070477047704770477047704770477047DB
:103D300070477047704700002DE9F84F00227B4D17
:103D400003264FF001080F274FF0B04CE6E008FAC9
:103D500002F31C409A46002C7ED00B7903F003033B
:103D6000012B01D0022B1BD1D0F80890530006FA8A
:103D700003FB29EA0B09D1F80CB00BFA03FB4BEA61
:103D8000090BC0F808B0436823EA0A0391F80490CD
:103D9000C9F3001909FA02F949EA0309C0F80490C5
:103DA0000B79DB439B070ED0D0F80C90530006FA3A
:103DB00003FA29EA0A09D1F808A00AFA03FA4AEA3A
:103DC000090AC0F80CA00B7903F00303022B14D1ED
:103DD000D30800EB8303D3F820A04FEA42794FEADF
:103DE000D96907FA09FB2AEA0B0AD1F810B00BFAD5
:103DF00009FB4BEA0A0BC3F820B0D0F8009053003F
:103E000006FA03FA29EA0A0991F804A00AF0030A5B
:103E10000AFA03FA4AEA090AC0F800A04B6813F448
:103E2000403F7AD0424BD3F8009049F00209C3F8E2
:103E300000901B6803F00203009322F0030909F1CC
:103E4000B049D9F808B493074FEA137A07FA0AF38E
:103E50002BEA030B374B00E05FE0984201D10023CF
:103E60002DE0354B984201D1012328E0334B984295
:103E700001D1022323E0324B984201D103231EE0FB
:103E8000304B984201D1042319E02F4B984201D1C5
:103E9000052314E02D4B984201D106230FE02C4B53
:103EA000984201D107230AE02A4B984201D1082306
:103EB00005E0294B984201D1092300E00A2303FAC7
:103EC0000AF343EA0B03C9F80834DCF80030A343D3
:103ED000D1F804905FEAC92900D52343CCF800301B
:103EE000DCF80430A343D1F804905FEA892900D5B7
:103EF0002343CCF804306B68A343D1F804905FEA05
:103F0000893900D523436B602B68A343D1F8049013
:103F10005FEAC93900D523432B60521C0C6834FA80
:103F200002F37FF414AFBDE8F88F00008000005862
:103F3000F4440258000002580004025800080258D5
:103F4000000C0258001002580014025800180258C1
:103F5000001C025800200258002402580148006842
:103F6000000C70470010005C01488068704700003A
:103F70003C00002402488168027811448160704747
:103F80003C00002410B5032000F090F801F058FE2A
:103F90000F490A68C2F303230E4AD35C03F01F03E0
:103FA000D840096801F00F01515C0B4A01F01F0174
:103FB00020FA01F11160094908600F2000F010F8A3
:103FC00008B1012010BD00F031F8002010BD000044
:103FD0001844025810DB00084C000024480000245C
:103FE00070B504460F4D2A78002A0CD04FF47A7031
:103FF0000D49B0FBF2F00968B1FBF0F002F080FB74
:1040000018B1012070BD012070BD102C07D2002214
:104010002146501E00F02AF86C60002070BD01207F
:1040200070BD00003C0000244800002482B0074816
:10403000016841F002010160006800F00200019097
:1040400000220F21901E02B000F010B8F444025874
:10405000002809DB012100F01F0291404009800087
:1040600000F1E020C0F8001170470000F0B40D46E8
:104070000D4B1B68C3F30223C3F10704042C00D9C2
:104080000424191D072901D2002300E0DB1E0126AC
:1040900006FA04F1491E294099409E40761E1640BA
:1040A0003143F0BC08F0A0B90CED00E000F00701CE
:1040B000054A10684FF6FF03184040EA0120034903
:1040C00008431060704700000CED00E00000FA05A6
:1040D00001680122C0F8D824002280F8CC24886925
:1040E00040F000608861486D024A10434865002036
:1040F0007047000003000010704700684162002014
:10410000704770B50368586A002907D09C6A00EBB5
:1041100014440020491E4FF482750AE040EA024030
:1041200098620DE005EB80069E5904EB1644401C96
:10413000C0B28842F6D305EB810144EA02405850F0
:10414000002070BDD0F8E00406F030BF01EBC102E2
:1041500000EB8202D0F8E004126A06F054BE01EBD4
:10416000C10200EB8202D0F8E004D2F8602206F02F
:10417000B8BED0F8E00406F01BBF0A0601F00F013C
:1041800001EBC10100EB810101D5143101E001F522
:104190001571006807F078BE70B504464FF0010253
:1041A00001F00F004FF000050B0600EBC00104EB1F
:1041B000810102D514314A7002E001F515714D708C
:1041C000087094F89404012808D084F89424206896
:1041D00007F076FB84F89454002070BD022070BD77
:1041E00070B5044601F00F002279904201D90120F8
:1041F00070BD0B064FF0010201F00F014FF00005FA
:1042000001EBC10104EB810102D514314A7002E0D7
:1042100001F515714D708D70087094F894040128A3
:1042200008D084F89424206807F0B0FC84F89454F3
:10423000002070BD022070BD01F00F0101EBC10133
:1042400000EB8100D0F8680270472DE9F041044688
:104250004FF0010601F00F004FF000050F0600EBD4
:10426000C00104EB810102D514314E7002E001F56A
:1042700015714D7008708A600B714A7802B14883DD
:10428000022B00D14D7194F89404012809D084F8D0
:104290009464206807F054FA284684F89454BDE8E2
:1042A000F0810220FBE710B501F00F0404EBC4011C
:1042B00000EB810101F51571CA600B6100234B61B0
:1042C0004B700C708379012B00D1CA618279006830
:1042D00007F0B4FC002010BD70B504460D4605F093
:1042E0000F002179884201D9012070BD29064FF0C5
:1042F00000064FF0010206D500EBC00104EB81017E
:1043000014314A7006E005EBC50104EB810101F5AB
:1043100015714E708A70087094F89404012807D0C3
:1043200084F89424206807F05DFC280702D007E099
:10433000022070BDA17904F29C42206807F0FCFBCA
:1043400084F89464002070BD10B501F00F0404EBF4
:10435000C40100EB81011431CA600B6100234B6181
:1043600001234B700C708379012B00D1CA618279D3
:10437000006807F063FC002010BD2DE9F84F0446EB
:104380002568284607F02AFE00287ED1206807F01D
:1043900051FE002879D0D5F80808C0F30D20C4F8E4
:1043A000D404206807F046FE800704D520684169E0
:1043B00001F002014161206807F03CFEC10604F2F1
:1043C0009C40009035D52068816921F01001816101
:1043D0002F6A07F00F0000EBC00004EB800606F523
:1043E0001576C7F34340022802D0062812D01BE0FE
:1043F00047F6F070074217D0C7F30A12F168174664
:10440000284607F01BFEF0683844F06070693844B5
:10441000706109E000990822284607F00FFE7069D4
:10442000C7F30A11084470612068816941F01001E6
:104430008161206807F0FEFD00034FF0080B4FF08C
:1044400000094FF001085ED50026206807F0D1FD75
:10445000824655E05FEACA704FD02068F1B207F09B
:10446000E1FD0746F80707D005EB4610C0F8088BBA
:104470003146204604F004F9380709D505EB46100B
:10448000C0F808BB3146204600E015E204F0D4F83D
:10449000F80604D505EB46111020C1F8080BB80743
:1044A0001CD56869000605D5D5F8040840F480617C
:1044B000C5F8041806EBC60004EB800000F5157083
:1044C000C178012905D180F803902046F1B200F0AF
:1044D000F9F905EB46100221C0F8081BB80604D50F
:1044E00005EB46102021C0F8081BB80405D505EBE4
:1044F00046104FF40051C0F8081B761C4FEA5A0AC8
:10450000BAF1000FA6D1206807F094FD40036CD5E6
:10451000206807F067FD8246002663E05FEACA7004
:104520005DD02068F1B207F06BFD0746F80723D095
:1045300006F00F0108FA01F0D5F834188143C5F8E8
:10454000341805EB4610C0F80889A07901280FD16E
:1045500006EBC60004EB8000D0E90721114401629C
:1045600036B9606A20B920680121009A07F0E4FAA0
:104570002046F1B2FFF7EAFD380703D505EB4610F8
:10458000C0F808B9F80604D505EB46111020C1F8AB
:104590000809780604D505EB46104021C0F8081933
:1045A000B80716D53146284607F0E6FC06EBC600EC
:1045B00004EB80001430C178012905D180F8039004
:1045C0002046F1B200F07AF905EB46110220C1F85D
:1045D0000809380603D53146204604F0C3F8761C96
:1045E0004FEA5A0ABAF1000F98D1206807F022FD6D
:1045F000002811DAD5F8040820F00101C5F80418E4
:1046000094F8CC04012839D0204600F032FA206812
:10461000416901F000414161206807F00BFD000590
:104620000BD5D5F80808C00702D0204600F064FA80
:104630002068416901F400614161206807F0FAFCDB
:1046400000010AD52068416901F00061416194F8D8
:10465000CC04D0B1204600F04FFA206807F0EAFC05
:10466000C0046ED5D5F8040820F00101C5F804187F
:104670002068102107F080FC00212DE084F8CC9404
:1046800000212046FFF738FDC1E784F8CC8420687C
:10469000406DC0F38300C4F8D00401212046FFF729
:1046A0002BFDDAE705EB41104FF67F3200F5106085
:1046B0008260036823F400130360C0F80822D0F876
:1046C000002222F40012C0F80022D0F8002242F0AA
:1046D0000062C0F80022491C20798842E2D8D5F84F
:1046E0001C0840F00111C5F81C18E07B60B1D5F83A
:1046F000840840F00B01C5F88418D5F8440840F050
:104700000B01C5F844180CE0D5F8140842F22B014F
:104710000843C5F81408D5F8100840F00B01C5F897
:104720001018D5F8000820F4FE61C5F80018A1792A
:104730002068009A07F000FA2068416901F480516E
:104740004161206807F076FC800415D5206807F0E9
:1047500039F8206807F032FCE07101F02BFAE279B9
:104760000146206807F0D0FC204600F06BF9206875
:10477000416901F400514161206807F05BFC0007CA
:1047800007D5204600F079F92068416901F0080159
:104790004161206807F04EFC000615D5A86920F09D
:1047A0008001A96101260CE006EBC60004EB800045
:1047B00090F85702012803D12046F1B2FFF7DDFC43
:1047C000761C2079B042EFD8206807F033FCC00295
:1047D0001FD5012615E005EB4610D0F8001906EBB1
:1047E000C60004EB8000027E012A09D1002907DA05
:1047F00080F81780F0B240F080012046FFF7BDFC42
:10480000761C2079B042E6D82068416901F4801115
:104810004161206807F00EFC800230D5012026E0BF
:1048200005EB4011D1F8001B00EBC00204EB820243
:1048300092F85832012B19D1002917DA94F8D434A0
:1048400001F4803103F0010399420FD182F85782BD
:10485000A96941F08002AA616969090606D4D5F800
:10486000040840F40070C5F8040803E0401C2179F6
:104870008142D5D82068416901F400114161206866
:1048800007F0D8FB400007D52046FFF75BFC206807
:10489000416901F080414161206807F0CBFB40078E
:1048A0000AD520684568680702D52046FFF761FCF5
:1048B0002068416829434160BDE8F88FD0F8E004E2
:1048C00006F0CBBBD0F8E00406F0DCBBF8B504463C
:1048D000002C04D094F89504002510B106E00120C6
:1048E000F8BD84F89454204600F05CF8032084F866
:1048F0009504206807F01AF9207C8DF8000094E8F0
:104900000F0006F06DFF022618B184F895640120AF
:10491000F8BD2068002107F0B0FB18B184F8956459
:104920000120F8BD002101270CE001EBC10004EBE0
:10493000800047750175C1850576C56105624562D0
:10494000491CC9B220798842EFD800210DE001EB63
:10495000C10004EB800000F5157045700170057111
:104960008560C5600561491CC9B220798842EED8CE
:10497000207C8DF8000094E80F0007F021F818B1B2
:1049800084F895640120F8BD657484F89574207BE3
:10499000012802D12046FFF79BFB206807F002F8B0
:1049A0000020F8BD10B5B8B00446142132A8FBF7BA
:1049B00051FEC02102A8FBF74DFE1F492068884226
:1049C00038D100204FF48021CDE902104FF440107F
:1049D000249002A800F0AEFA08B1FCF766FE00F0E1
:1049E000CFF81648016841F001010160006800F04D
:1049F000010001904FF4C05032900220339000200B
:104A0000349035900A20369032A90D48FFF794F97A
:104A10000A480838016841F000610160006800F050
:104A200000600190002205216520FFF71FFB652033
:104A3000FFF70EFB38B010BD00000840E0440258FC
:104A40000000025870B504460125E07900280ED018
:104A5000022801D0FCF729FED4F8E004294606F02C
:104A600082FBD4F8E004BDE8704006F035BB0025B9
:104A7000F2E7D0F8E00406F05FBBD0F8E00406F0FF
:104A800065BB10B5044694F8940401280AD00120AF
:104A900084F894046174206807F01FFB002084F8F8
:104AA000940410BD022010BDD0F8E02400F29C4117
:104AB000104606F064BB10B50446206894F89414C0
:104AC000012909D0012184F89414C168490609D547
:104AD000617B012902D005E0022010BD816B41F409
:104AE00080318163206807F021FA206806F04CFFCE
:104AF000002084F8940410BD10B50446D4F8E004F6
:104B000006F07FFB2068D0F8001E41F00101C0F8DC
:104B1000001EE07A002804D00248016841F0060136
:104B2000016010BD10ED00E070B514490A68D24371
:104B3000520708D5096801F00701814201D0012020
:104B400070BD002070BD0A6822F0070202430A60AF
:104B5000FFF70AFA0446094D4FF47A76083D06E05D
:104B6000FFF702FA001BB04201D9012070BD28688E
:104B7000C0438004F4D4002070BD00000C480258EB
:104B80000248016841F08071016070470C4802588A
:104B900010B501F00FF805490968054AC1F3021183
:104BA000515C01F01F01C84010BD000020440258B4
:104BB00010DB000810B569490A6802F003020968B1
:104BC000C1F30531654B1B1D1B68C3F30013634C18
:104BD00014342468C4F3CC0414FB03F300EE103A3D
:104BE000B8EE400A002971D09FED5D1A5B4BF7EEDD
:104BF000000A1033F2B39FED5B2A012A7FD0022A0C
:104C00007CD001EE901A1968F8EE611AC2EE212AE2
:104C1000C1F3080101EE901AF8EE611A40EE011A94
:104C200031EEA00A22EE800A1968C1F3462101EE96
:104C3000101AB8EE411A31EE201AC0EE011ABCEE7D
:104C4000E11A80ED001A1968C1F3064101EE101A4D
:104C5000B8EE411A31EE201AC0EE011ABCEEE11A8C
:104C600080ED011A1968C1F3066101EE101AB8EE61
:104C7000411A00E008E071EE200A80EE201ABCEE36
:104C8000C10A80ED020A10BD344A283A1468A4060D
:104C90001ED51268C2F3C104334AE24001EE902AE5
:104CA000F8EE612A01EE901A1968F8EE611A82EEA8
:104CB000A12AC1F3080101EE901AF8EE611A40EE44
:104CC000011A31EEA00A22EE000AADE741E016E03B
:104CD00001EE901ADFED252A1968F8EE611A82EECE
:104CE000A12AC1F3080101EE901AF8EE611A40EE14
:104CF000011A31EEA00A22EE000A95E713E001EE58
:104D0000901A1968F8EE611AC2EE212AC1F308015F
:104D100001EE901AF8EE611A40EE011A31EEA00A87
:104D200022EE800A80E701EE901ADFED112A196861
:104D3000F8EE611A82EEA12AC1F3080101EE901A81
:104D4000F8EE611A40EE011A31EEA00A22EE000AD6
:104D50006AE7002101604160816010BD284402586B
:104D6000000000390024744A0090D0030024744CE1
:104D7000001B374B10B569490A6802F00302096845
:104D8000C1F30551654B1B1D1B68C3F30023634C26
:104D90001C342468C4F3CC0414FB03F300EE103A73
:104DA000B8EE400A002971D09FED5D1A5B4BF7EE1B
:104DB000000A1833F2B39FED5B2A012A7FD0022A42
:104DC0007CD001EE901A1968F8EE611AC2EE212A21
:104DD000C1F3080101EE901AF8EE611A40EE011AD3
:104DE00031EEA00A22EE800A1968C1F3462101EED5
:104DF000101AB8EE411A31EE201AC0EE011ABCEEBC
:104E0000E11A80ED001A1968C1F3064101EE101A8B
:104E1000B8EE411A31EE201AC0EE011ABCEEE11ACA
:104E200080ED011A1968C1F3066101EE101AB8EE9F
:104E3000411A00E008E071EE200A80EE201ABCEE74
:104E4000C10A80ED020A10BD344A283A1468A4064B
:104E50001ED51268C2F3C104334AE24001EE902A23
:104E6000F8EE612A01EE901A1968F8EE611A82EEE6
:104E7000A12AC1F3080101EE901AF8EE611A40EE82
:104E8000011A31EEA00A22EE000AADE741E016E079
:104E900001EE901ADFED252A1968F8EE611A82EE0C
:104EA000A12AC1F3080101EE901AF8EE611A40EE52
:104EB000011A31EEA00A22EE000A95E713E001EE96
:104EC000901A1968F8EE611AC2EE212AC1F308019E
:104ED00001EE901AF8EE611A40EE011A31EEA00AC6
:104EE00022EE800A80E701EE901ADFED112A1968A0
:104EF000F8EE611A82EEA12AC1F3080101EE901AC0
:104F0000F8EE611A40EE011A31EEA00A22EE000A14
:104F10006AE7002101604160816010BD28440258A9
:104F2000000000390024744A0090D0030024744C1F
:104F3000001B374B2DE9FC5F044600250026F94F86
:104F40002068DFF8E483C043010104F10800019008
:104F500004F1280000900DD4A06EB8B1B0F5801F08
:104F600019D0B0F5001F1CD0B0F5401F00D00125AE
:104F7000EDB12E462088C043C00535D4A06D05286C
:104F80002FD2DFE800F01D22282F2F00386840F4D0
:104F900000303860ECE70198022103F09BFD0546E4
:104FA000E6E70098022103F027FE0546E0E7D8F87F
:104FB0000000A16E20F440100843C8F80000D9E7B3
:104FC000386840F4003038600CE00198002103F0AC
:104FD00081FD054606E00098002103F00DFE054620
:104FE00000E0012565B12E462088C043800518D415
:104FF000E06D802831D00CDC20B340280ED126E0B3
:10500000D8F80000A16D20F007000843C8F80000A0
:10501000EAE7C02803D0B0F5807F00D0012515B3A2
:105020002E462088DFF80493C04340052DD4D4F8E1
:10503000A800B0F5800F43D01EDCA8B3B0F5001F68
:1050400020D137E0386840F400303860E7E7019855
:10505000002103F03FFD0546E1E70098002103F041
:10506000CBFD0546DBE7D8F80000E16D20F4E070E9
:105070000843C8F80000D4E7B0F5C00F03D0B0F57E
:10508000000F00D001250DB32E462088C043000537
:105090002FD4D4F8AC00B0F1007F54D020DCE8B3BA
:1050A000B0F1807F22D148E0FFE7386840F400305B
:1050B0003860E8E70198002103F00CFD0546E2E7BF
:1050C0000098002103F098FD0546DCE7D9F80000C0
:1050D000D4F8A81020F460000843C9F80000D4E711
:1050E000B0F1407F03D0B0F1806F00D0012585B3CF
:1050F0002E462068C04380010AD4E06C30B11028ED
:1051000032D0202836D0302800D001258DB32E464D
:105110002088C043C00446D4206E00E008E0B0F50B
:10512000005F5CD036DCA0B3B0F5805F38D150E0D2
:10513000386840F400303860D9E70198002103F066
:10514000C9FC0546D3E70098002103F055FD05464C
:10515000CDE7FFE7D9F80000D4F8AC1020F0E0600C
:105160000843C9F80000C4E7386840F400303860EC
:10517000CCE705E00198022103F0ACFC0546C5E749
:105180006948001F0168E26C21F0300111430160A1
:10519000BEE719E0B0F5405F03D0B0F5804F00D016
:1051A000012515B32E462088C04380042FD4606E9D
:1051B000B0F5403F29D021DC38B3B0F5803F38D07E
:1051C000B0F5003F20D13AE0386840F40030386054
:1051D000E7E70198002103F07DFC0546E1E7009830
:1051E000002103F009FD0546DBE7D8F80000216E39
:1051F00020F4E0400843C8F80000D4E7B0F5802F61
:1052000003D0B0F5A02F00D00125F5B12E4620889F
:10521000C04340042BD4D4F8B000B0F1405F24D098
:105220001CDC10B3B0F1805F4ED0B0F1005F1BD139
:1052300051E00198012103F04DFC0546E5E7009897
:10524000012103F0D9FC0546DFE7D8F80000616EC4
:1052500020F4E0200843C8F80000D8E7B0F1804F00
:1052600003D0B0F1A04F00D001259DB32E46208879
:10527000C04300040AD4206F30B1B0F1805F3CD04D
:10528000B0F1005F3ED00125ADB32E462068C0438B
:10529000C0010AD4A06C30B101284DD0022850D0F2
:1052A000032800D001253DB32E462068DFF880B0EA
:1052B000C043400261D41F48016841F4807101601D
:1052C000FEF752FE824652E00198012103F002FCF3
:1052D0000546CAE705E00098012103F08DFC05466C
:1052E000C3E7D9F80000D4F8B01020F0E04008433C
:1052F000C9F80000BBE70BE029E0386840F4003053
:105300003860C1E70198012103F0E4FB0546BBE7E3
:10531000D8F80000216F20F040500843C8F8000082
:10532000B4E700002C440258504402585844025834
:105330001044025800480258386840F40030386081
:10534000B1E70198022103F0C5FB0546ABE7FE4833
:105350000168A26C21F0030111430160A5E7FEF78B
:1053600003FEA0EB0A00642801D9032503E0F748F7
:105370000068C005F3D53DB12E462078DFF8D0A3F4
:10538000C043C00755D065E0F1481C300068B4F850
:10539000B41000F4407001F4407188420DD0EC4824
:1053A0001C30016821F44071026842F480320260CE
:1053B000026822F4803202600160D4F8B400B0F5D3
:1053C000807F12D1FEF7D0FD824609E0FEF7CCFDCA
:1053D000A0EB0A0141F28830814201D9032504E0A3
:1053E000DB481C3000688007F0D50DB12E46C4E7BD
:1053F000D4F8B400C0F3012103290FD0DBF800007A
:1054000020F47C50CBF80000D1481C300168B4F87F
:10541000B420C2F30B0211430160AEE7DBF80010C9
:10542000CC4A21F47C51104041EA1010CBF8000026
:10543000EAE7E06F18280BD005DC48B1082815D042
:10544000102804D118E0202802D0282800D00125F7
:10545000C5B12E462078C04380072BD4A06F062804
:1054600025D2DFE800F025181E2525250198012109
:1054700003F030FB0546EBE70098012103F0BCFB8D
:105480000546E5E7DAF80000E16F20F03800084350
:10549000CAF80000DEE70198012103F01BFB054676
:1054A00006E00098012103F0A7FB054600E0012576
:1054B0006DB12E462078C043400720D4D4F8940024
:1054C000062819D2DFE800F0190C12191919DAF8B8
:1054D0000000A16F20F007000843CAF80000E9E7C8
:1054E0000198012103F0F6FA054606E00098012133
:1054F00003F082FB054600E0012595B12E46207899
:10550000C043800620D4D4F89000B0F1405F19D099
:1055100011DCB8B1B0F1805F28D0B0F1005F10D1DC
:105520002AE0D9F80000D4F8941020F007000843CE
:10553000C9F80000E3E7B0F1804F03D0B0F1A04F0D
:1055400000D00125F5B12E462078C04340062CD46A
:10555000D4F89C00B0F5406F25D01DDC18B3B0F531
:10556000806F34D0B0F5006F1CD136E00198002177
:1055700003F0B0FA0546E5E70098022103F03CFB92
:105580000546DFE7DAF80000D4F8901020F0E0409C
:105590000843CAF80000D7E7B0F5805F03D0B0F544
:1055A000A05F00D00125F5B12E462078C04300064B
:1055B0002CD4D4F8A000B0F5C04F25D01DDC18B312
:1055C000B0F5005F2CD0B0F5804F1CD12EE00198D3
:1055D000002103F07FFA0546E5E70098022103F079
:1055E0000BFB0546DFE7D9F80000D4F89C1020F447
:1055F000E0500843C9F80000D7E7B0F5004F03D0EA
:10560000B0F5204F00D00125B5B12E462078C0431B
:1056100000072AD4D4F88400B0F5805F16D01BE0D0
:105620000198002103F056FA0546EDE700980221A3
:1056300003F0E2FA0546E7E7D9F80000D4F8A01035
:1056400020F460400843C9F80000DFE70098022119
:1056500003F0D2FA00B10126DAF80000D4F8841081
:1056600020F440500843CAF800002078C043C00628
:1056700013D4D4F89800B0F5807F05D100980221AA
:1056800003F0BAFA00B10126D9F80000D4F8981056
:1056900020F440700843C9F800002068C0430003AC
:1056A0000BD4D4F8A400E8B3B0F5803F7DD0B0F5BA
:1056B000003F00D00125B5B32E462068C04340030B
:1056C0000DD4D4F88800B0F5801F70D0B0F5001F5D
:1056D0006ED0B0F5401F00D00125EDB32E462068F6
:1056E000C043C00307D4206DB8B3B0F5803F7CD071
:1056F00001259DB32E462068C043800005D4009844
:10570000022103F079FA00B101262068C04380032A
:1057100011D4D4F8800060B1B0F5807F66D0B0F5C8
:10572000007F01E070E07BE003D0B0F5407F00D067
:105730000125DDB32E462068C043C00213D4D8F83B
:10574000000020F000400AE04C4402580048025893
:1057500054440258FFFCFF0F77E080E08AE0616F5D
:105760000843C8F800002068C043C00008D4DBF834
:105770000000D4F8B81020F480400843CBF80000B3
:105780002068C043800207D4D8F80000E16E20F002
:1057900080700843C8F800002068C043400011D45E
:1057A000DBF8000020F4004003E033E06FE041E06C
:1057B00045E0CBF80000DBF80000D4F8BC1008434B
:1057C000CBF800002068C04306D45A480168626DD7
:1057D00021F04051114301602068C04300020BD406
:1057E000DAF8000020F4400001E03DE04AE0D4F89F
:1057F0008C100843CAF8000020790025C04300F04F
:10580000010028434DD052E00198002103F062F9D5
:10581000054650E70098022103F0EEF905464AE7F5
:10582000D9F80000D4F8A41020F440300843C9F897
:10583000000042E7386840F4003038604DE70098D7
:10584000012103F0D9F9054647E7DAF80000D4F85A
:10585000881020F440100843CAF800003FE7386879
:1058600040F40030386044E70198022103F032F937
:1058700005463EE72F480168226D21F4803111432F
:10588000016038E7386840F40030386051E7DAF8F2
:105890000000D4F8801020F440700843CAF80000DB
:1058A00049E70198002103F015F900B10646207977
:1058B000C04300F00200284305D10198012103F004
:1058C00009F900B106462079C04300F004002843DE
:1058D00005D10198022103F0FDF800B106462079B8
:1058E000C04300F00800284305D10098002103F0D0
:1058F00083F900B106462079C04300F01000284328
:1059000005D10098012103F077F900B1064620790E
:10591000C04300F02000054305D10098022103F0A8
:105920006BF900B1064616B10120BDE8FC9F0020CE
:10593000FBE700004C4402582DE9F05F04460D4699
:10594000002C17D0DFF84C82D8F8000000F00F00D0
:10595000A84211D2D8F8000020F00F002843C8F860
:105960000000D8F8000000F00F00A84204D0012089
:10597000BDE8F09F0120FBE72078874E40070AD55D
:105980002069316801F07001884204D9316821F042
:105990007001014331602078804F00070AD56069AB
:1059A000396801F07001884204D9396821F070012A
:1059B000014339602078C0060AD5A069396801F42E
:1059C000E061884204D9396821F4E061014339601B
:1059D0002078DFF8CC9180060DD5E069D9F8001069
:1059E00001F07001884206D9D9F8001021F0700149
:1059F0000143C9F80010207880070AD5E0683168B3
:105A000001F00F01884204D9316821F00F010143F0
:105A100031602078C00743D03068A16820F47060FE
:105A2000084330605C4960681839022808D00328B0
:105A30000BD001280ED00968490710D4012097E740
:105A4000096889030BD4012092E70968890106D40B
:105A500001208DE70968C90501D4012088E7DFF836
:105A600038A1AAF1080ADAF8001021F00701014371
:105A7000CAF80010FEF778FA834609E0FEF774FAD8
:105A8000A0EB0B0141F28830814201D903206FE77E
:105A9000DAF80000616800F03800B0EBC10FEDD11A
:105AA000207880070AD5E068316801F00F0188424C
:105AB00004D2316821F00F0101433160D8F80000B1
:105AC00000F00F00A8420ED9D8F8000020F00F0017
:105AD0002843C8F80000D8F8000000F00F00A842E2
