:020000040800F2
:1000000028BE002029030008F55900082D4C0008DF
:10001000ED580008850B00087593000800000000EB
:10002000000000000000000000000000690200085D
:10003000FD16000800000000C5020008B9690008AC
:100040004303000843030008430300084303000878
:100050004303000843030008FF1600084303000899
:100060004303000843030008430300084303000858
:100070003114000843030008430300084303000849
:10008000430300084303000843030008950B0008DE
:10009000890B0008430300084303000843030008DA
:1000A00043030008916A0008430300084303000863
:1000B0004303000843030008430300084303000808
:1000C00043030008430300084303000843030008F8
:1000D00043030008430300084303000843030008E8
:1000E00043030008430300084303000843030008D8
:1000F00043030008430300084303000843030008C8
:1001000043030008430300084303000843030008B7
:1001100043030008430300084303000843030008A7
:10012000430300083D14000843030008430300088C
:10013000430300084303000843030008AD0B000815
:10014000A10B00084303000843030008F959000805
:100150004914000855140008611400087974000857
:100160004303000843030008430300084303000857
:100170004303000843030008430300080000000095
:10018000430300084303000800F002F800F05CF8A5
:100190000AA090E8000C82448344AAF10107DA45E2
:1001A00001D100F051F8AFF2090EBAE80F0013F0D8
:1001B000010F18BFFB1A43F001031847BCEE000003
:1001C000DCEE00000A444FF0000C10F8013B13F085
:1001D000070408BF10F8014B1D1108BF10F8015BA0
:1001E000641E05D010F8016B641E01F8016BF9D193
:1001F00013F0080F1EBF10F8014BAD1C0C1B09D1EA
:100200006D1E58BF01F801CBFAD505E014F8016B5B
:1002100001F8016B6D1EF9D59142D6D370470000ED
:100220000023002400250026103A28BF78C1FBD8FF
:10023000520728BF30C148BF0B6070471FB50EF092
:10024000F0F91FBD10B510BD00F0DCF91146FFF745
:10025000F5FF0BF0FFF900F0FAF903B4FFF7F2FF36
:1002600003BC00F0FDF900002C4B19680868B0E8E9
:10027000F04F80F30988BFF36F8F4FF0000080F3D9
:10028000118870470000000008480068006880F38B
:1002900008884FF0000080F3148862B661B6BFF39F
:1002A0004F8FBFF36F8F00DF00BF00BF08ED00E08E
:1002B000DFF80C00016841F470010160704700BF75
:1002C00088ED00E0EFF30980BFF36F8F134B1A68DE
:1002D0001EF0100F08BF20ED108A20E9F04F1060CB
:1002E00009B44FF0500080F31188BFF34F8FBFF374
:1002F0006F8F0CF0FBFC4FF0000080F3118809BCFD
:1003000019680868B0E8F04F1EF0100F08BFB0EC95
:10031000108A80F30988BFF36F8F7047C4050020EF
:10032000EFF30580704700000948804709480047FF
:10033000FEE7FEE7FEE7FEE7FEE7FEE7FEE7FEE795
:10034000FEE7FEE704480549054A064B70470000F2
:10035000816A00088901000828B8002028BE002012
:1003600028BA002028BA002053EA020C00F0698065
:100370002DE9F04B4FF00006002B1FBFB3FA83F5B9
:1003800003FA05F424FA05F65E4012BF1643B2FAEA
:1003900082F502FA05F4C5F120051EBF22FA05FC1C
:1003A00044EA0C04203556EA044C4FEA144418BFC2
:1003B000641C4FF000084FF00009904271EB030CF1
:1003C00039D3002919BFB1FA81F701FA07F6B0FA5B
:1003D00080F700FA07F6C7F120071EBF20FA07FCD6
:1003E00046EA0C062037B6FBF4FCA7EB0507103FE6
:1003F00007F01F0BCBF120060CFA0BFB2CFA06F6CC
:1004000044BFB3460026202FA4BF5E464FF0000B2A
:100410005BEA060C08BF4FF0010B19EB0B09ABFBB5
:10042000027C48EB0608C01B06FB02CC0BFB03CC8E
:1004300071EB0C01C1E70B46024641464846BDE858
:10044000F08B13B54FF000004FF00001AFF30080C8
:10045000BDE81C407047032A40F2308010F0030CC6
:1004600000F0158011F8013BBCF1020F624498BF07
:1004700011F801CB00F8013B38BF11F8013BA2F1A4
:10048000040298BF00F801CB38BF00F8013B11F01F
:10049000030300F02580083AC0F0088051F8043BBF
:1004A000083A51F804CBA0E80810F5E7121D5CBF2C
:1004B00051F8043B40F8043BAFF30080D20724BF5F
:1004C00011F8013B11F801CB48BF11F8012B24BFF3
:1004D00000F8013B00F801CB48BF00F8012B704742
:1004E00010B5203AC0F00B80B1E81850203AA0E8CF
:1004F0001850B1E81850A0E81850BFF4F5AF5FEA03
:10050000027C24BFB1E81850A0E8185044BF18C9B5
:1005100018C0BDE810405FEA827C24BF51F8043B5C
:1005200040F8043B08BF7047D20728BF31F8023BB0
:1005300048BF11F8012B28BF20F8023B48BF00F844
:10054000012B70474FF000020429C0F0128010F018
:10055000030C00F01B80CCF1040CBCF1020F18BF9F
:1005600000F8012BA8BF20F8022BA1EB0C0100F032
:100570000DB85FEAC17C24BF00F8012B00F8012B05
:1005800048BF00F8012B70474FF0000200B513463A
:1005900094469646203922BFA0E80C50A0E80C50A3
:1005A000B1F12001BFF4F7AF090728BFA0E80C5054
:1005B00048BF0CC05DF804EB890028BF40F8042B4D
:1005C00008BF704748BF20F8022B11F0804F18BFBA
:1005D00000F8012B704770477047704710B500F066
:1005E00009F8006810BD10B5044600F003F8046077
:1005F00010BD000000487047C8B700200048704791
:10060000C8B700207546FFF7F9FFAE4605006946FA
:10061000534620F00700854618B020B5FFF792FE3C
:10062000BDE820404FF000064FF000074FF00008F3
:100630004FF0000B21F00701AC46ACE8C009ACE874
:10064000C009ACE8C009ACE8C0098D46704710B5D8
:100650000446AFF300802046BDE81040FFF7FDBD23
:1006600001491820ABBEFEE72600020070470000DB
:100670002DED108B05F010F9404C9FED41AA9FED38
:10068000418A9FED419ADFED418ADFED41AA9FED5E
:1006900041BADFED41BADFED419A9FED41CADFED8E
:1006A00041CA9FED41DADFED41DA9FED41EADFED2E
:1006B00041EA9FED41FA0CF0DFF8226801213F4842
:1006C0009047226802213E48904700F0D5FB01F098
:1006D0000BF8B0EE4A3AF0EE482AB0EE492AF0EEB6
:1006E000681AB0EE6A1AF0EE4B0AB0EE6B0A3548A3
:1006F00005F032FBB0EE483AF0EE482AB0EE492A57
:10070000F0EE681AB0EE681AF0EE690AB0EE4C0A24
:100710002D4805F021FBB0EE483AF0EE482AB0EE45
:10072000492AF0EE6C1AB0EE4D1AF0EE6D0AB0EEFA
:100730004E0A264805F010FBB0EE483AF0EE482A83
:10074000B0EE492AF0EE681AB0EE6E1AF0EE690AC1
:10075000B0EE4F0A1E4805F0FFFA00F0EBFC1D4812
:1007600004F0E8FA06F064F81B48406880471B482C
:10077000C06A0CF0CFF90CF09FF89CE7C80300208A
:100780000080BB4500401C460060EA4600000000B7
:1007900000009644CDCCCC3D00C0C144ACC5273749
:1007A000E7FBA93D0000FA43000048440000704206
:1007B0000080D444CDCC4C3D6F12033DEC0C0020A6
:1007C000140D0020601F0020B01F0020002000201A
:1007D000502000208C0E00208C0300200000002000
:1007E0008AB0084C6D464FF0FF3707AE3A4669466F
:1007F00020680CF04DFD09AB3246291D009801F030
:1008000003F9F3E70800002010B5044684ED000A60
:10081000C4ED010A70EE601AC4ED021ABDEEE12AC1
:1008200012EE100A002800DA404202EE100AF8EE3A
:10083000C22AB7EE002A31EE021AB6EE002A21EEE5
:10084000022AF4EEC22AF1EE10FA0DDDF5EEC01A1E
:10085000F1EE10FA04DD31EEC11A84ED021A03E064
:1008600031EE811A84ED021A94ED031A70EEC10A7A
:10087000C4ED040AD4ED060A70EE600AC4ED050A60
:10088000D4ED071A94ED020A61EE801AC4ED0B1A3A
:10089000D4ED0C1A94ED082A42EE001AC4ED0C1A9D
:1008A00030EE410A94ED091A20EE010A84ED0D0A9A
:1008B00094ED0A0A20EE200A84ED0E0A94ED120A45
:1008C00004F130000AF0D6FB94ED0B0AD4ED0C0ACB
:1008D00030EE200AD4ED0D0A30EE200AD4ED0E0AD7
:1008E00030EE200A84ED0F0A94ED100A04F13C006A
:1008F0000AF0C0FB94ED020A84ED030A94ED000AAD
:1009000084ED060A94ED0F0A10BD2DE9F04FDDE9E4
:100910000BC8DDE90EABDDF83490DDE90967002492
:1009200004E0C4F1020E00F80E50641C032C02DA3D
:100930000D5D002DF5D110F8031F21F03801203195
:1009400062F302010170018863F38911018041782B
:1009500066F385014170818868F309018180B0F8F0
:10096000051069F38C01A0F80510C1886AF34F11D6
:10097000C180B0F8011067F38E11A0F80110418812
:100980006CF3CF114180B0F809106BF38C01A0F823
:1009900009104289109961F34F124281BDE8F08F2E
:1009A0003EB50020019002901B498889020A8DF80B
:1009B00004208DF80500088B020A8DF806208DF8BA
:1009C00007001648DFED160AD0F8760000EE100A90
:1009D00020EE200ABDEEC00A10EE100A020A8DF8C1
:1009E00008208DF80900CA7C9DF80A0002F0010277
:1009F0001043897E01F0010140EA41008DF80A00B0
:100A000001A80090074840F21F13002244680748DD
:100A100005490068A0473EBD2C110020D0110020E0
:100A200000007A44C8030020140D002008000020B4
:100A30000FB49DF81D009DF81C1040EA012000B283
:100A400000EE100AF8EEC00A9DF81F009DF81E1077
:100A500040EA012000B200EE100AB8EEC01A9DF87C
:100A600021009DF8201040EA012000B200EE100A9B
:100A7000F8EEC01A9DF823009DF8221040EA0120EC
:100A800000B200EE100A0F48B8EEC00A80ED000A6E
:100A90000D48C0ED000A80ED011ADFED0C0A81EE71
:100AA000A01A80ED021A0A48007C002808D10948E3
:100AB0009FED091AD0ED020A40EE410AC0ED020A8C
:100AC00004B070477400002054210020000048C387
:100AD0002C110020302100208FC2753D0FB49DF8ED
:100AE0001D009DF81C1040EA012000B200EE100A23
:100AF000B8EEC00A9DF81E001C494008C8739DF856
:100B00001F0000F001028A74C0F340020A74C0F3AF
:100B100080034B74C0F3C00088739DF821009DF8DA
:100B2000201040EA0120124988801248002A17D07C
:100B3000B5EEC00A1049F1EE10FA01D191ED020AAA
:100B4000D0ED010A90ED001ADFED0C1A41EE610ABA
:100B5000C0ED010A30EE200A81ED020A04B07047B0
:100B60009FED070A80ED010AF8E700002C11002034
:100B7000401F00207400002030210020CDCC4C3DCF
:100B800000000000FEE70000014801F0C1B80000CD
:100B9000EC0C0020014801F0BBB80000EC0C002078
:100BA000014801F0B5B80000140D0020014801F023
:100BB000AFB80000140D002010B50B4600210161F4
:100BC0004161416281610122C26102620160416052
:100BD0008160C1600146184600F088FF002803D0FC
:100BE000BDE8104000F08EBD10BD000010B50446F9
:100BF000491EC8B200EB400101EB0010074901EBB0
:100C000080002146FFF7D8FF204601F01EFB20465A
:100C1000BDE81040022100F0E5BE00006C15002088
:100C200010B58AB00C9C0191002A12D00393049253
:100C300000210591082206928DF81C102168089168
:100C40006168099100231A4601A90CF00FFA0AB055
:100C500010BD0293EBE704284FF00000704700201E
:100C60007047000010B500220449054806F01CFE3C
:100C70000449034806F00AFE002010BDAC2E0020F7
:100C8000D0210020AC26002070B505460C46294630
:100C9000064806F0FBFD054806F0C8FD21882846F9
:100CA00089B200F007F8002070BD0000D0210020BC
:100CB0000020704710B50A460849D1F8BC12D1F897
:100CC0001412002901D0012010BD0146034806F08E
:100CD000EBFDBDE81040014806F07EBED0210020AB
:100CE0008EB01C4E4FF0FF3809AF424605A9306860
:100CF0000CF0CEFA059CA4F2012003280BD8142294
:100D000039466846FFF7ECFB134806A90EC905688B
:100D10002046A847E9E7A4F5007105390DD0512C0C
:100D2000E3D1142239466846FFF7DAFB0B4806A9DF
:100D30000EC945682046A847D7E7142239466846B9
:100D4000FFF7CEFB064806A90EC945682046A8470E
:100D5000CBE70000000000202004002060040020F9
:100D6000340400208EB01D4F1D4E4FF0FF390DF1A1
:100D700024084A4605A938680CF08AFA059CA4F2B2
:100D8000052002280BD8142241466846FFF7A8FB2D
:100D9000144806A90EC945682046A847E9E7A4F506
:100DA00080710F390ED0A4F580711F39E1D1142262
:100DB00041466846FFF794FB06A975680EC92046B0
:100DC000A847D6E7142241466846FFF789FB06A9E3
:100DD00035680EC92046A847CBE700000400002074
:100DE0007C000020340400202DE9F04F0BAFDDE93A
:100DF00009C897E8800E0F9D002404E0C4F1020E9C
:100E000000F80E60641C032C02DA0E5D002EF5D192
:100E100010F8031F41F0380162F3020101700188EC
:100E200063F38911018041786CF385014170B0F85A
:100E3000011068F38E11A0F80110418867F3CF11FB
:100E40004180818869F309018180B0F805106AF357
:100E50008C01A0F80510C1886BF34F11C180C01E32
:100E6000002104E0431815F8012BDA73491CB9423C
:100E7000F8D3BDE8F08F000010B52DED068B40F2E1
:100E80000121724804F0EAF8704840F20221C830AB
:100E900004F0E4F840F203216D4804F0DFF86C48F8
:100EA0004FF40171C83004F0D9F840F206216948C6
:100EB00004F03CF940F20721674804F037F9DFED10
:100EC000679AB0EE693ADFED668AF0EE682A9FED28
:100ED000659AB0EE492A9FED648AF0EE481AB0EEAA
:100EE000481A9FED62AA5948B2EE040AF0EE4A0A87
:100EF000283004F031FF5648B0EE693AF0EE682A27
:100F0000B0EE492AF0EE481AB0EE481AF0EE4A0A5E
:100F1000B2EE040AA03804F01FFF4D48B0EE693A63
:100F2000F0EE682AB0EE492AF0EE481AB0EE481A00
:100F3000F0EE4A0AB2EE040A283004F00DFF4448ED
:100F4000B0EE693AF0EE682AB0EE492AF0EE481A9F
:100F5000B0EE481AF0EE4A0AB2EE040AF03004F09D
:100F6000FBFEB0EE693AF0EE682A9FED419AF0EE92
:100F7000481AB3EE041AB0EE492AF0EE480A9FED83
:100F80003DAA3448B0EE4A0A783004F0E5FE324813
:100F9000B0EE693AF0EE682AB0EE492AF0EE481A4F
:100FA000B3EE041AF0EE480AB0EE4A0A783004F0C4
:100FB000D3FE9FED319A9FED31AADFED31AA25488E
:100FC000B0EE493AF0EE492AB0EE682AF0EE481A3F
:100FD000B0EE4A1AF0EE6A0AB6EE000A283004F0C3
:100FE000BBFE1D48B0EE493AF0EE492AB0EE682A41
:100FF000F0EE481AB0EE4A1AF0EE6A0AB6EE000AAF
:10100000283004F0A9FEB0EE693AF0EE492AB0EEBD
:10101000682AF0EE481A9FED1B1ADFED1B0A9FEDC0
:101020001B0A1B4804F098FE084900204881A1F8DB
:10103000D200A1F89A01A1F86202064940F6C370F5
:10104000486105494861BDEC068B10BD7017002052
:1010500000190020B01D0020781E00200080BB4534
:101060000060EA460000484400000000AE47613ED0
:1010700000C0DA450000484300401C46CDCC4C3D42
:10108000ACC5273700009644CDCCCC3D00C0C14450
:10109000802100202DE9F047DDE90AC8DDE9086775
:1010A000DDF83090002404E0C4F1020A00F80A5090
:1010B000641C032C02DA0D5D002DF5D110F8031F1E
:1010C00021F03801103162F302010170018863F3ED
:1010D00089110180417866F385014170818867F349
:1010E00009018180B0F805106CF38C01A0F805109F
:1010F000C18868F34F11C180018969F30901018139
:10110000BDE8F0879FED0A0A80ED000A80ED010A34
:1011100080ED020A80ED040A80ED030A80ED0B0ADF
:1011200080ED0C0A80ED0D0A80ED0F0A704700007B
:101130000000000010B51A489FED1A1A90ED020A3F
:101140001948C0EE010A40889FED181A00EE100AF7
:101150001748B8EE400A00EE810A80ED020AF2EE6E
:10116000040AB7EE000A903804F066FCF2EE040AB6
:10117000B7EE000A0F4804F05FFC0D48F1EE080AD4
:10118000B7EE000A603804F057FC0948BDE810408B
:10119000F1EE080AB7EE000A303804F04DBC00004A
:1011A000301700200000B443E81C00200000004677
:1011B00030210020FC100020FEB522480024224DE2
:1011C000807B01283BD095F82200012836D11F48AA
:1011D0008068804701940294688800EE100A1B48DA
:1011E0000C38B8EE400AD0ED020A30EE200A10EEBC
:1011F000100AB0F18B4F03DDDFED150A30EE600A07
:10120000DFED140A20EE200ADFED130A20EE200A9B
:1012100005F0CCFB01AE1149009600230C68B5F92E
:1012200020001A461946A0470D48009640F2FF13C9
:1012300044680D4800220B490068A047FEBDAC84FD
:10124000FEBD00002C110020E81C002050040020EE
:1012500000000046000000390000B4C33404002040
:10126000C8030020EC0C00200800002070B52DED14
:10127000028B624CA38C9FED621A624A204662493F
:1012800092ED020A4088C0EE010A9FED601A1E2B03
:1012900007D800EE100AB8EE400A00EE810A81ED90
:1012A000020A91ED020A10EE103AB3F18C4F04DD00
:1012B00030EE410A81ED020A08E0B5EEC00AF1EE17
:1012C00010FA03D230EE010A81ED020A20EE810A03
:1012D00000EE900AF8EE600A30EE800A10EE100A76
:1012E000B0F18B4F01DD30EE410A4948FDEEC00AF6
:1012F00010EE903A8381D1ED020A464D30EE600A3D
:10130000D2ED050AD5ED011A01EEA00A10EE101A71
:1013100011F16A5F01D330EE010A007C9FED3E8A35
:1013200048B3012824D13848F0EE400AB0EE480A0C
:10133000E03804F0B7FC84ED040AD4ED010A374923
:101340003748F8EEE00A04F02FFDBDEEC00A10EEBB
:10135000100A00B2208400EE100A2B48B8EEC00A32
:10136000603804F081FBBDEEC00A10EE100A208444
:10137000BDEC028B70BD10EE100A2A49884206DAD5
:1013800010EE100A2849884201D2B0EE480A1E48E1
:10139000903804F069FBF0EE400A687829788842BA
:1013A00009D31F48B0EE480A503804F07BFC84EDA6
:1013B000040A0020687094ED010A19481B49F8EEF0
:1013C000C00A94ED040AA03804F0EEFCBDEEC00A99
:1013D00010EE100A00B2208400EE100A0A48B8EE9F
:1013E000C00A303804F040FBBDEEC00A10EE100A0F
:1013F00020846878401C6870BAE70000E81C002070
:101400000000B443301700203021002000000046C7
:101410002C11002044040020000000005400002093
:10142000002000200000A0400000A0C034000020E8
:10143000014800F097BF0000940F0020014800F021
:1014400091BF0000F40F0020014800F08BBF0000A6
:10145000D40E0020014800F085BF00005410002089
:10146000014800F07FBF0000340F00200168CAB2BD
:10147000103A1823B2FBF3F2064B9B5CC3656FF383
:101480000901032A02D9091D816500E08165806D8B
:101490007047000088ED000810B5014600208A6AF8
:1014A0008B694FF0C074002B0ED0B3F5005F1AD0DB
:1014B00062B3012A2AD0022A28D0032A03D1C96A9A
:1014C000C90100D5012010BD1AB1012A06D0022A97
:1014D000F9D1C96AC901F6D5012010BDC96AA14276
:1014E000FBD1012010BD52B1012A0AD0022A06D038
:1014F000032AF7D1C96AA142F4D1012010BD01200D
:1015000010BDC96AC901FBD5012010BD012010BD65
:1015100030B50468256825F480252560046863607B
:101520008368402B04D0036899600068C26030BDB6
:1015300003689A600068C16030BD00002DE9F04189
:101540002DED028B00245E4D2C705E4801784278B0
:1015500041EA0221C1F30A03A0F11601A3F5806359
:101560000B80D608827846EA4216C6F30A06A6F52C
:1015700080664E80C778920942EA8707027947EA77
:101580008227C7F30A07A7F580678F804FEA520CBE
:1015900042794CEAC21CCCF30A0CACF5806CA1F881
:1015A00006C05B1D0A2B00D80C80761D0A2E00D8C1
:1015B0004C807F1D0A2F00D88C800CF1050CBCF1EB
:1015C0000A0F00D8CC8093090B72C2F301164E7239
:1015D0008279C77942EA07224A81027A477A42EA47
:1015E00007228A81827AC77A42EA0722CA81027B6D
:1015F0000A74427B4A74827BC77B42EA07224A8292
:10160000027C407C42EA0020A0F5806000B2888223
:1016100000F52570B0F5A56F00D98C822A4A032BFE
:1016200010D09FED2A0A82ED000A82ED010A82EDB8
:10163000020A1222BDEC028B2249BDE8F041244887
:1016400002F0B3BFB1F9060000EE100AB8EEC00A0E
:1016500082ED000AB1F9040000EE100AB8EEC00AEB
:1016600082ED010AB1F914006423414291FBF3F1C8
:1016700000EE101AB8EEC00A82ED020A0CF003FC6C
:101680009FED141B53EC112B0CF064FC9FED131B0E
:1016900053EC112B0CF05EFC124F41EC180BB868A8
:1016A0000CF04EFF53EC182B0CF040F90CF00CF939
:1016B000B860022E01D06C60BBE701206860B8E71B
:1016C000180400205E1700205421002000000000B4
:1016D000440E0020FCA9F1D24D62403F0000000002
:1016E000000039403021002012220249024802F055
:1016F0005CBF00005E170020440E002070470120F0
:1017000000F0CEBF72B6FEE72DE9F04FDDE90BC861
:10171000DDE90D9ADDE90967002404E0C4F1020B5C
:1017200000F80B50641C032C02DA0D5D002DF5D17E
:1017300010F8031F21F03801283162F30201017013
:10174000018863F389110180417866F38501417056
:10175000818868F309018180B0F8051069F38C0174
:10176000A0F80510C1886AF34F11C180B0F80110CC
:1017700067F38E11A0F8011041886CF3CF114180FE
:10178000DFED0C0A20EE200ABDEEC00A10EE101AA2
:10179000028961F309020281B0F809208B0A63F320
:1017A0008C02A0F809204A0D418962F34F11418152
:1017B000BDE8F08F00007A4470B58AB0044600207E
:1017C000089009900690079004900590029003906D
:1017D0000090019008A9204603F023FC9DED080A23
:1017E00006A904A804F084F89DED090A02A9684638
:1017F00004F07EF80698454BC0EBC001029803EB5D
:10180000810202EB80059DED000AD5ED000A039DE3
:1018100002EB850260EE801A92ED001ADDED010AFE
:10182000079A40EE811A9DED041AC2EBC20203EB47
:10183000820303EB800521EE812AD5ED001A039D7A
:1018400003EB850361EE802AD3ED001A40EEA12A56
:10185000DDED051A01EEA22A2C4DC43505EB8103FE
:1018600003EB8006D6ED002A039E03EB860362EEAF
:10187000802A93ED003A05EB820303EB800540EEEE
:10188000832A95ED003A03EB860323EE003AD3ED6D
:10189000003A62EE812A00EEA33A41EE832A1C4B05
:1018A00003EB810101EB800595ED003A039D01EB0F
:1018B000850123EE003AD1ED003A03EB820101EB02
:1018C000800000EEA33A23EE011A90ED003A01EBFE
:1018D000850023EE000A90ED003A00EE830A01EE47
:1018E000801A94ED050A20EE020A84ED000A94EDB8
:1018F000060A20EE220A84ED010A94ED070A20EE82
:10190000010A84ED020A0AB070BD000024E8000854
:10191000ACE9000810B503461046002B01D0084C76
:101920000AE04FF6FF7010BD13F8012B4240D2B20F
:1019300034F8122082EA1020491E4A1CF4D110BD4E
:101940008C01002010B503461046002B01D0084C36
:101950000AE04FF6FF7010BD13F8012B4240D2B2DF
:1019600034F8122082EA1020491E4A1CF4D110BD1E
:1019700070EB000810B5054C03E010F8013B534034
:10198000E25C491E4B1CF8D1104610BD8C000020B3
:1019900010B5054C03E010F8013B5340E25C491ED2
:1019A0004B1CF8D1104610BD70EA000870B50B480A
:1019B0000168001D0568001D0068084400280CD05F
:1019C000074C0822A11C03F087F904F112012846F4
:1019D000BDE87040042203F07FB970BD107AFF1F8C
:1019E000F404002090F82020012A07D0022A05D014
:1019F000416A41F4802141620120704700684269D8
:101A00000A43426100207047F0B590F82050046806
:101A1000A468012D07D0022D05D0416A41F4802130
:101A200041620120F0BD04F0806504F0006635439A
:101A300001D1E50053D5C4F301640125A5401D6023
:101A40008B684FF4C0759BB1CE6805EB0417334328
:101A50004E6843EAC6030668F3514FF4C273076841
:101A600003EB04130E69FE50097D012909D00DE036
:101A70000E88CB6805EB041743EA46530668F3511A
:101A8000EBE70168CE5846F48076CE501179D379D1
:101A9000567941EA036193791B0443EA062319430B
:101AA0004FF4C676036806EB041699511178D37883
:101AB00041EA0361937852781B0443EA02221143FE
:101AC0004FF4C473026803EB0413D150006805EBB4
:101AD0000411425842F0010242500020F0BD416A18
:101AE00041F4001141620120F0BD000010B590F8F2
:101AF0002020012A07D0022A05D0416A41F4802122
:101B00004162012010BD3C4800F50070026842F0BF
:101B100001020260026822F47C52026002684B6A91
:101B200042EA032202600A7D02F01F0301229A406A
:101B3000C3699343C361A0F50070CB69B3B9D0F812
:101B40000C329343C0F80C328C894B6864F31F430A
:101B50004C6900EBC404C4F840320C890B6864F390
:101B60001F434C6900EBC404C4F84432CB69012B19
:101B700016D1D0F80C321343C0F80C320C884B68E5
:101B800064F31F434C6900EBC404C4F840320C8971
:101B9000CB6864F31F434C6900EBC404C4F84432BF
:101BA0008B697BB1D0F804321343C0F804320B695F
:101BB00073B1D0F814321343C0F81432096A012902
:101BC0000CD010E0D0F804329343C0F80432EEE7B2
:101BD000D0F814329343C0F81432EFE7D0F81C1257
:101BE0001143C0F81C12D0F8001221F00101C0F816
:101BF0000012002010BD000000640040704770B566
:101C000090F82040012C07D0022C05D0416A41F405
:101C100080214162012070BD21B104682469A407BC
:101C20002AD003E00468E468A4071FD04FF4D874F6
:101C3000056804EB01142D5905F0040595600DB3FA
:101C400005682D59ED08556005682C5904F002040B
:101C5000D4604FF4DA74056804EB01142E5906F0D1
:101C60000F06082E13D30825156114E0416A41F4CC
:101C700000114162012070BD416A41F400114162CE
:101C8000012070BD05682D596D0D1560DCE72D59DB
:101C900005F00F05156105682D59C5F307259561F8
:101CA00005682C59240C54614FF4DC72046802EB73
:101CB0000112A4581C700468A458240A5C700468BB
:101CC000A458240C9C700468A258120EDA704FF4C9
:101CD000DE72046802EB0112A4581C710468A45857
:101CE000240A5C710468A458240C9C710468A258EE
:101CF000120EDA7131B10068016941F02001016111
:101D0000002070BD0068C16841F02001C160F7E7A4
:101D10002DE9F05F0546002428684669D0F8049054
:101D20008768D0F80CA0D0F810B0D0F81880F10770
:101D300048D0F90714D001218160B80703D528469F
:101D400000F0B0FA0CE0780702D54FF4006407E029
:101D5000380702D54FF4805402E0284600F0A1FA7B
:101D6000F80516D529684FF480708860B80503D54A
:101D7000284600F099FA0CE0780502D544F40054A6
:101D800007E0380502D544F4804402E0284600F01C
:101D90008AFAF80316D529684FF480308860B803B2
:101DA00003D5284600F082FA0CE0780302D544F40B
:101DB000004407E0380302D544F4803402E02846AA
:101DC00000F073FA300707D55FEACA6004D544F41F
:101DD000007429681020C86070074FF0080707D505
:101DE0005FEA0A7004D52868C760284600F0C8F981
:101DF000B00706D52868C068800702D0284600F0E2
:101E0000C1F9700607D55FEACB6004D544F480645D
:101E1000296810200861B00607D55FEA0B7004D569
:101E200028680761284600F00DFAF00606D52868F4
:101E30000069800702D0284600F005FAB00308D5F3
:101E40005FEAC96005D5296810204860284600F07F
:101E5000FBF9F00307D55FEA097004D528684760ED
:101E6000284600F024FA300446D55FEA497040D590
:101E7000F00504D55FEAC87001D044F00104B00554
:101E800004D55FEA887001D544F00204700504D5DA
:101E90005FEA487001D544F00404300529D518F0F4
:101EA000700F26D008F07000402815D006DC1028EE
:101EB00009D020280AD0302816D10AE050280ED0A8
:101EC000602811D10EE044F008040DE044F0100445
:101ED0000AE044F0200407E044F0400404E044F049
:101EE000800401E044F480742868816921F0700165
:101EF0008161296804204860002C05D0686A20436D
:101F000068622846FFF77AFEBDE8F09F70B5044688
:101F1000002C03D094F8200010B104E0012070BD23
:101F2000204600F09DF82068016841F00101016041
:101F300000F0B2FC054605260CE000F0ADFC401BAD
:101F40000A2807D9606A40F40030606284F8206093
:101F5000012070BD20684068C007EED0206801688D
:101F600021F00201016000F097FC05460CE000F052
:101F700093FC401B0A2807D9606A40F40030606275
:101F800084F82060012070BD206840688007EED48E
:101F9000207E01283FD02068016821F08001016087
:101FA000607E01283DD02068016821F04001016079
:101FB000A07E01283BD02068016821F0200101604B
:101FC000E07E012839D02068016841F010010160ED
:101FD000207F012837D02068016821F008010160C6
:101FE000607F012835D02068016821F0040101607C
:101FF000D4E902010843D4E904121143084361689B
:10200000491E08432168C86100206062012084F8ED
:102010002000002070BD2068016841F0800101604F
:10202000BEE72068016841F040010160C0E7206818
:10203000016841F020010160C2E72068016821F0D9
:1020400010010160C4E72068016841F008010160E7
:10205000C6E72068016841F004010160C8E700009C
:102060002DE9F04186B00446142101A8FEF78CFA50
:102070003E4B3F4ADFF8F080186821683C4C03264D
:102080000227401C103200254FF0090C41452FD18A
:102090001860012807D1106840F0007010601068C7
:1020A00000F000700090206840F008002060206878
:1020B00000F0080000900196029703950496CDF871
:1020C00014C001A92B4800F0F7FA002205211320C3
:1020D00000F07AFC132000F069FC00220521142096
:1020E00000F072FC142000F061FC06B0BDE8F08145
:1020F000DFF884804145F8D1116841F080611160BA
:10210000116801F0806100911860012807D1106802
:1021100040F000701060106800F0007000902068BF
:1021200040F002002060206800F002000090602073
:102130000190029703950496CDF814C001A90F48A9
:1021400000F0BAFA002205213F2000F03DFC3F20BC
:1021500000F02CFC00220521402000F035FC40203E
:1021600000F024FCC1E700000064004030000020C3
:1021700030380240000C0240006800400004024079
:1021800070470000F8B5294B02680021284D9A429B
:1021900001D1297001E0012129702978254C01EB3A
:1021A000410202EB011104EB810202F144032832E7
:1021B0000021FFF724FD287804F1980600EB400188
:1021C00001EB001104EB810100EBC000283106EBAC
:1021D00080001C22FEF784F9287800EB400202EB15
:1021E000001204EB820200EBC00106EB8101936C4C
:1021F000526CC1E9072388B10F4800236A46006882
:102200000AF0E6FF0098002807D00C494FF08050F4
:102210000860BFF34F8FBFF36F8FF8BD084831469A
:1022200000236A4600680AF0D3FFEBE70064004031
:10223000000400206C1500200400002004ED00E0E4
:102240000000002070477047704770B5044694F84E
:102250002000012805D0606A40F40020606201205F
:1022600070BD022084F820002068016821F001017F
:10227000016000F011FB05460DE000F00DFB401B76
:102280000A2808D9606A40F400306062052084F8AA
:102290002000012070BD20684068C007EDD1606259
:1022A00070BD704770477047704770477047704700
:1022B0002DE9F0410446A76D00F0EEFA054694F8CA
:1022C00035000026022806D08020606584F834603E
:1022D0000120BDE8F0812068016821F0160101604D
:1022E0002068416921F080014161206C08B9A06C2F
:1022F00020B12068016821F00801016020680168B0
:1023000021F0010101600BE000F0C6FA401B052836
:1023100006D9202034342062032060702670D8E76C
:1023200020680068C007EFD134343F2094F82810AB
:102330008840B8600120607026700020C9E790F8DE
:102340003510022903D08021416501207047052105
:1023500080F835100068016821F00101016000205B
:10236000704700002DE9F84304464FF00009CDF80E
:1023700000906F484FF416510068B0FBF1F7A56D5F
:102380002E6894F85C00082202FA00F1314210D065
:102390002068016849070CD5016821F0040101603B
:1023A00094F85C0002FA00F1A960606D40F0010051
:1023B000606594F85C104FF0010808FA01F03042B3
:1023C00008D021684969090604D5A860606D40F00D
:1023D0000200606594F85C1004208840304208D008
:1023E00021680968890704D5A860606D40F0040081
:1023F000606594F85C1010208840304220D021683D
:10240000096809071CD5A8602068016849030CD534
:102410000068000304D4216C91B1204688470FE086
:10242000A16C69B1204688470AE00168C90503D458
:10243000016821F008010160216C09B1204688473C
:1024400094F85C102020884030424CD02168096804
:10245000C90648D5A86094F8350005280BD0206837
:102460000168490330D50068000328D4616C51B37A
:102470002046884737E02068016821F01601016096
:102480002068416921F080014161206C08B9A06C8D
:1024900020B12068016821F00801016094F85C1007
:1024A0003F208840A86084F8358084F83490216DFE
:1024B00000293BD001B02046BDE8F0430847E16B5E
:1024C00009B1204688470EE00168C90507D40168B4
:1024D00021F01001016084F8358084F83490E16BBC
:1024E00009B120468847606D00281FD0606DC00785
:1024F00014D0052084F835002068016821F001011E
:1025000001600098401C0090B84203D82068006821
:10251000C007F6D184F8358084F83490E16C002946
:1025200004D001B02046BDE8F0430847BDE8F88379
:10253000240500202DE9F041044600F0ADF90546E0
:102540005CB1022084F83500002684F834602068ED
:10255000016821F0010101600DE00120BDE8F0817A
:1025600000F09AF9401B052805D92020606503205A
:1025700084F83500F2E720680068C007F0D12168D0
:102580000A6820480240D4E901031843D4E903351E
:102590002B43184363691843A3691843E36918433D
:1025A000236A18431043626A042A03D1D4E90B2337
:1025B0001A43104308602068406920F00700656AEC
:1025C00029460543012704290DD1A06A0543E06A85
:1025D00048B12046FEF760FF28B14020606584F8CE
:1025E00035700120BAE7206845612046FEF73EFFBE
:1025F00094F85C203F2191408160666584F83570D5
:102600000020ABE73F8010F02DE9F04104460025A3
:10261000A66D94F8340001280DD0012084F8340010
:1026200094F835700020012F07D084F8340002257B
:102630002846BDE8F0810220FBE7022784F83570C8
:1026400060652046FEF764FF94F85C103F208840E8
:10265000B0602068016841F016010160206C20B173
:102660002068016841F0080101602068016841F0BC
:1026700001010160DCE7000070B5044600F00CF9D0
:102680000546601C02D004480078044400F004F9B8
:10269000401BA042FAD370BD2805002070470000FF
:1026A00010B504490A68024202D00860FFF7F6FF3D
:1026B00010BD0000143C01402DE9F84F0022DFF866
:1026C0009C914FF0010803274FF00F0C09F1040A09
:1026D000A9F1040B08FA02F50B682B40AB426ED14E
:1026E0000C7904F00304012C01D0022C15D186686A
:1026F000540007FA04FE26EA0E06D1F80CE00EFAA2
:1027000004FE4EEA060EC0F808E04468AC430D79BA
:10271000C5F300159540254345600C79E443A407B3
:1027200008D0C568540007FA04F6B5438E68A64081
:102730002E43C6600C7904F00304022C11D1D40896
:1027400000EB8406356A5407E40E0CFA04FE25EA11
:102750000E05D1F810E00EFA04FE4EEA050EC6F89A
:1027600020E00568540007FA04F6B5430E7906F038
:102770000306A6402E4306604C6814F4403F67D021
:10278000374C256845F480452560246804F480446E
:102790000094344C22F003052E19D6F808589407FB
:1027A0004FEA147E0CFA0EF4A5432F4CA04201D13F
:1027B000002424E02D4CA04202D101241FE047E078
:1027C0002B4CA04201D1022419E02A4CA04201D195
:1027D000032414E0284CA04201D104240FE0274C2C
:1027E000A04201D105240AE0254CA04201D10624D3
:1027F00005E0244CA04201D1072400E0082404FA9B
:102800000EF42C43C6F80848D9F800409C434D68A4
:10281000ED0200D51C43C9F80040DAF800409C43A3
:102820004D68AD0200D51C43CAF80040DBF80040FB
:102830009C434D68AD0300D51C43CBF80040074DC9
:10284000083D2C689C434E68F60300D51C432C6061
:10285000521C102AFFF43EAFBDE8F88F083C01403F
:1028600044380240003001400000024000040240B1
:1028700000080240000C0240001002400014024018
:1028800000180240001C0240002A01D081617047FC
:1028900009048161704700000148806870470000AA
:1028A0002805002002488168027811448160704741
:1028B0002805002010B50B48016841F40071016043
:1028C000016841F480610160016841F48071016038
:1028D000032000F099F8052000F006F800F04AF80F
:1028E000002010BD003C024030B587B005460024F2
:1028F0001B48016841F001010160006800F001001F
:10290000009001A902A800F0C9FE00F0FBFE400003
:102910001449B0FBF1F1491E1448134A026040F219
:10292000E732C260416004618460846101F024FB8D
:10293000044694B90D4801F099FB04466CB919207E
:1029400000F034F8102D07D200222946192000F09B
:102950003BF80748056000E0012407B0204630BD81
:102960004438024040420F0000000140B4100020F3
:102970002C05002082B00C48016841F480410160C0
:10298000006800F4804001900748001F016841F092
:1029900080510160006800F08050019000220F21FA
:1029A000901E02B000F010B844380240002809DB45
:1029B00000F01F02012191404009800000F1E02059
:1029C000C0F8001170470000F0B40D460D4B1B68B5
:1029D000C3F30223C3F10704042C00D90424191DF6
:1029E000072901D2002300E0DB1E012606FA04F1CC
:1029F000491E294099409E40761E16403143F0BC46
:102A000006F028BD0CED00E000F00701054A106853
:102A10004FF6FF03184040EA0120034908431060C5
:102A2000704700000CED00E00000FA0570470068F8
:102A300041620020704770B50368586A002907D0CA
:102A40009C6A00EB144400204FF48275491E0AE092
:102A500040EA024098620DE005EB80069E5904EBC7
:102A60001644401CC0B28842F6D305EB810144EA0B
:102A700002405850002070BDD0F8E00405F03ABB89
:102A800001EBC10200EB8202D0F8E004126A05F00B
:102A90005BBA01EBC10200EB8202D0F8E004D2F88D
:102AA000602205F0BFBAD0F8E00405F025BB0A06A5
:102AB00001F00F0101EBC10100EB810101D51431DF
:102AC00001E001F51571006806F086BA70B504469C
:102AD0000B0601F00F0000EBC00104EB81014FF089
:102AE00001024FF0000502D514314A7002E001F5F1
:102AF00015714D70087094F89404012808D084F87A
:102B00009424206805F07CFF84F89454002070BD64
:102B1000022070BD70B5044601F00F00227990428A
:102B200001D9012070BD0B0601F00F0101EBC101BD
:102B300004EB81014FF001024FF0000502D5143182
:102B40004A7002E001F515714D708D70087094F8AF
:102B50009404012808D084F89424206806F0BAF878
:102B600084F89454002070BD022070BD01F00F0164
:102B700001EBC10100EB8100D0F8680270472DE93C
:102B8000F04104460F0601F00F0000EBC00104EB1A
:102B900081014FF001064FF0000502D514314E704F
:102BA00002E001F515714D700870C2F30A028A60E7
:102BB0000B714A7802B14883022B00D14D7194F811
:102BC0009404012809D084F89464206805F062FE1A
:102BD000284684F89454BDE8F0810220FBE710B544
:102BE00001F00F0404EBC40100EB810101F5157144
:102BF000CA600B6100234B614B700C708379012B11
:102C000000D1CA618279006806F0BCF8002010BDCE
:102C100070B504460D46217905F00F00884201D9B0
:102C2000012070BD29064FF000064FF0010206D5C5
:102C300000EBC00104EB810114314A7006E005EBA2
:102C4000C50104EB810101F515714E708A700870A1
:102C500094F89404012807D084F89424206806F09E
:102C600065F8280702D007E0022070BDA17904F2C0
:102C70009C42206806F004F884F89464002070BD3B
:102C800010B501F00F0404EBC40100EB8101143115
:102C9000CA600B6100234B6101234B700C70837978
:102CA000012B00D1CA618279006806F06BF8002020
:102CB00010BD2DE9F84F04462568284606F036FA7F
:102CC00000287ED1206806F05DFA002879D0D5F87A
:102CD0000808C0F30D20C4F8D404206806F052FAA6
:102CE000800704D52068416901F002014161206834
:102CF00006F048FAC10604F29C40009035D52068E1
:102D0000816921F0100181612F6A07F00F0000EB4B
:102D1000C00004EB800606F51576C7F34340022891
:102D200002D0062812D01BE047F6F070074217D0F9
:102D3000C7F30A1217462846F16806F027FAF0682A
:102D40003844F06070693844706109E00822284610
:102D5000009906F01BFA7069C7F30A110844706104
:102D60002068816941F010018161206806F00AFA4B
:102D700000034FF0080B4FF000094FF001085ED53B
:102D80000026206806F0DDF9824655E05FEACA7049
:102D90004FD0F1B2206806F0EDF90746F80707D0EA
:102DA00005EB4610C0F8088B3146204602F0AEFE17
:102DB000380709D505EB4610C0F808BB3146204658
:102DC00000E0F8E102F07EFEF80604D505EB4610BF
:102DD0001021C0F8081BB8071CD56869000605D586
:102DE000D5F8040840F48061C5F8041806EBC60065
:102DF00004EB800000F51570C178012905D180F839
:102E00000390F1B2204600F0DCF905EB46110220F8
:102E1000C1F8080BB80604D505EB46102021C0F810
:102E2000081BB80405D505EB46104FF40051C0F857
:102E3000081B761C4FEA5A0ABAF1000FA6D1206887
:102E400006F0A0F940036CD5206806F073F98246BD
:102E5000002663E05FEACA705DD0F1B2206806F038
:102E600077F90746F80723D006F00F0108FA01F0BA
:102E7000D5F834188143C5F8341805EB4610C0F86E
:102E80000889A07901280FD106EBC60004EB800069
:102E9000D0E907211144016236B9606A20B920687F
:102EA0000121009A05F0ECFEF1B22046FFF7E8FDA3
:102EB000380703D505EB4610C0F808B9F80604D565
:102EC00005EB46101021C0F80819780604D505EB6B
:102ED00046104021C0F80819B80716D531462846D3
:102EE00006F0F2F806EBC60004EB80001430C1785F
:102EF000012905D180F80390F1B2204600F05DF978
:102F000005EB46110220C1F80809380603D5314601
:102F1000204602F06DFE761C4FEA5A0ABAF1000F05
:102F200098D1206806F02EF9002811DAD5F80408A7
:102F300020F00101C5F8041894F8CC04012829D028
:102F4000204600F006FA2068416901F00041416125
:102F5000206806F017F900050BD5D5F80808C0075A
:102F600002D0204600F038FA2068416901F400617F
:102F70004161206806F006F9C00461D5D5F804085F
:102F800020F00101C5F804181021206806F09CF813
:102F9000002120E084F8CC9400212046FFF746FD74
:102FA000D1E705EB411000F510604FF67F328260EB
:102FB000036823F400130360C0F80822D0F800224D
:102FC00022F40012C0F80022D0F8002242F0006281
:102FD000C0F80022491C20798842E2D8D5F81C08A4
:102FE00040F00111C5F81C18E07B60B1D5F88408E9
:102FF00040F00B01C5F88418D5F8440840F00B01E7
:10300000C5F844180CE0D5F8140842F22B01084327
:10301000C5F81408D5F8100840F00B01C5F81018D1
:10302000D5F8000820F4FE61C5F80018A1792068E1
:10303000009A05F025FE2068416901F48051416144
:10304000206806F09FF8800415D5206805F064FC20
:10305000206806F05BF8E07100F03EFB0146E27983
:10306000206806F0F9F8204600F05CF92068416914
:1030700001F400514161206806F084F8000707D58B
:10308000204600F06AF92068416901F008014161B9
:10309000206806F077F8000615D5A86920F08001B1
:1030A000A96101260CE006EBC60004EB800090F855
:1030B0005702012803D1F1B22046FFF7F8FC761C35
:1030C0002079B042EFD8206806F05CF8C0021FD526
:1030D000012615E005EB4610D0F8001906EBC600F6
:1030E00004EB8000027E012A09D1002907DA80F86A
:1030F0001780F0B240F080012046FFF7D8FC761C24
:103100002079B042E6D82068416901F4801141611C
:10311000206806F037F8800230D5012026E005EB64
:103120004011D1F8001B00EBC00204EB820292F8C0
:103130005832012B19D1002917DA94F8D43401F44C
:10314000803103F0010399420FD182F85782A969B7
:1031500041F08002AA616969090606D4D5F804081D
:1031600040F40070C5F8040803E0401C2179814256
:10317000D5D82068416901F400114161206806F04A
:1031800001F8400007D52046FFF776FC206841692A
:1031900001F080414161206805F0F4FF40070AD545
:1031A00020684568680702D52046FFF77CFC206848
:1031B000416829434160BDE8F88FD0F8E00404F08D
:1031C000EFBFD0F8E00405F000B8F8B50446002CD5
:1031D00005D0266894F89504002510B106E001207A
:1031E000F8BD84F89454204600F05AF8032084F87F
:1031F0009504B6F1A04F00D1A571206805F03AFD05
:10320000207C8DF8000094E80F0005F093FB022667
:1032100018B184F895640120F8BD0021206805F0FC
:10322000D4FF18B184F895640120F8BD002101276E
:103230000CE001EBC10004EB800047750175C1850E
:103240000576C56105624562491CC9B2207988428C
:10325000EFD800210DE001EBC10004EB800000F588
:1032600015704570017005718560C5600561491C68
:10327000C9B220798842EED8207C8DF8000094E80D
:103280000F0005F03DFC18B184F895640120F8BDED
:10329000657484F89574206805F024FC0020F8BD5E
:1032A00000B587B000210291039104910591069128
:1032B0000068B0F1A04F2BD11648016841F0010120
:1032C0000160006800F0010001904FF4C0500290CE
:1032D00002200390032005900A20069002A90E48C0
:1032E000FFF7EAF90D48016841F0800101600C48E0
:1032F000016841F480410160006800F48040019061
:10330000002205214320FFF75FFB4320FFF74EFB20
:1033100007B000BD3038024000000240343802409F
:103320004438024070B504460125E07900280ED0EB
:10333000022801D0FEF7E6F92946D4F8E00404F0AB
:10334000B5FFD4F8E004BDE8704004F068BF002584
:10335000F2E7D0F8E00404F092BFD0F8E00404F003
:1033600098BF10B5044694F8940401280AD00120AF
:1033700084F894046174206805F057FF002084F8F5
:10338000940410BD022010BDD0F8E02400F29C414E
:10339000104604F097BF10B50446206894F89414C2
:1033A000012909D0012184F89414C168490609D57E
:1033B000617B012902D005E0022010BD816B41F440
:1033C00080318163206805F059FE206805F07CFBA0
:1033D000002084F8940410BD10B50446D4F8E0042D
:1033E00004F0B4FF2068D0F8001E41F00101C0F8DD
:1033F000001EE07A002804D00248016841F006016E
:10340000016010BD10ED00E02DE9F84304464FF0D7
:10341000010820684FF00007C10701D140072BD5F4
:10342000DFF81891C9F86870FFF736FA0646444D80
:1034300007E0FFF731FA801B022802D90320BDE81C
:10344000F88328680001F4D46068217A800140EA9A
:1034500001703B4984310860C9F86880FFF71CFAA5
:10346000064606E0FFF718FA801B022801D9032060
:10347000E5E728680001F5D52078800753D5304866
:103480004030016841F080510160006800F08050D8
:1034900000902C4D286840F480702860FFF7FCF9FC
:1034A000064606E0FFF7F8F9801B022801D9032041
:1034B000C5E72868C005F5D5214D7035286800F4AA
:1034C0004070F8B1A18901F4407181421AD0286896
:1034D00020F440701C49C1F800800F602860286803
:1034E000C0070FD0FFF7D8F9064641F2883706E04B
:1034F000FFF7D2F9801BB84201D903209FE7286863
:103500008007F5D5E0680E49C0F301220831032A8F
:103510000BD0086820F4F81008602868A189C1F36E
:103520000B0108432860002089E70A68074B22F452
:10353000F812184002430A60EFE70000000047421B
:103540000038024000700040400E4742FFFCFF0F71
:103550002DE9F04704460D46002C13D0DFF82891E2
:10356000D9F80000EFB200F00700A8420CD289F8A9
:103570000070D9F8000000F00700A84204D0012034
:10358000BDE8F0870120FBE72068404E810712D597
:10359000400703D5306840F4E050306020780007E1
:1035A00003D5306840F4604030603068A16820F096
:1035B000F000084330602078C00731D0334960689C
:1035C0000839012808D002280BD0032809D009683F
:1035D00089070BD40120D3E70968890306D40120A9
:1035E000CEE70968890101D40120C9E7316821F0DB
:1035F000030101433160FFF74FF9804641F2883AF9
:1036000007E0FFF749F9A0EB0800504501D9032076
:10361000B6E73068616800F00C00B0EB810FF0D1C4
:10362000D9F8000000F00700A84209D989F8007015
:10363000D9F8000000F00700A84201D001209FE760
:103640002078400705D53068E16820F4E050084351
:1036500030602078000706D53068216920F460408A
:1036600040EAC100306000F05DF83168084AC1F3FB
:103670000311515CC8400749086007480068FFF71C
:1036800033F900207CE70000003C0240083802408B
:1036900070ED0008240500202C0500200F22026098
:1036A0000B4A136803F003034360136803F0F0034D
:1036B0008360136803F4E053C360126802F460424D
:1036C000D20802610348006800F0070008607047F4
:1036D00008380240003C0240014800687047000082
:1036E0002405002000B5FFF7F7FF04490968044AE4
:1036F000C1F38221515CC84000BD0000083802407F
:1037000080ED000800B5FFF7E7FF04490968044AA7
:10371000C1F34231515CC84000BD0000083802408E
:1037200080ED000810B51748006810F00C0116482D
:1037300016D0164B042912D0082911D1114C241F80
:10374000216801F03F02216849020AD52068C0F3D0
:103750008810A0FB03010023FCF706FE09E01846D1
:1037600010BD21680023C1F38811A1FB0001FCF703
:10377000FBFD2168C1F30141491C4900B0FBF1F098
:1037800010BD0000083802400024F400001BB70000
:103790002DE9F84F0446002C13D02078DFF8A083E1
:1037A000C007A8F1040556D008F104000168C1F370
:1037B000810101290CD00068C0F38100022803D0E8
:1037C0000DE00120BDE8F88FD8F80000400206D5D2
:1037D000286880033FD5606870BB0120F2E760680D
:1037E000B0F5803F10D0B0F5A02F12D0286820F49B
:1037F00080302860286820F4802028606068E0B16C
:10380000FFF74AF8064614E0286840F48030286044
:10381000F4E7286840F480202860286840F480306D
:103820002860EBE7FFF738F8801B642801D90320F4
:10383000C8E728688003F5D50DE0FFF72DF80646A8
:1038400006E0FFF729F8801B642801D90320B9E7B7
:1038500028688003F5D42078BA4F80074FF000091C
:1038600048D5B748001D016811F00C0F08D000685A
:10387000C0F38100022813D1D8F8000040020FD411
:103880002868800704D5E068012801D0012099E765
:103890002868216920F0F80040EAC100286029E08A
:1038A000E068B8B101203860FEF7F6FF064606E092
:1038B000FEF7F2FF801B022801D9032082E7286867
:1038C0008007F5D52868216920F0F80040EAC1009A
:1038D00028600FE0C7F80090FEF7DEFF064606E01E
:1038E000FEF7DAFF801B022801D903206AE7286867
:1038F0008007F5D42078000729D5DFF844A2924844
:1039000061690AF1700A89B101210160FEF7C4FF03
:10391000064606E0FEF7C0FF801B022801D90320FF
:1039200050E7DAF800008007F4D510E0C0F8009006
:10393000FEF7B2FF064606E0FEF7AEFF801B022848
:1039400001D903203EE7DAF800008007F4D420789C
:10395000400778D54FF0000A79483C300068C00035
:103960000BD477483C30016841F080510160006819
:1039700000F0805000904FF0010ADFF8D0B1DBF882
:103980000000C00514D4DBF8000040F48070CBF8D0
:103990000000FEF781FF064606E0FEF77DFF801B74
:1039A000022801D903200DE7DBF80000C005F4D59B
:1039B000634EA0686C3601280FD0052812D03068FD
:1039C00020F001003060306820F004003060A06812
:1039D000F8B1FEF761FF834617E0306840F0010060
:1039E0003060F4E7306840F004003060306840F048
:1039F00001003060EBE7FEF74FFFA0EB0B0141F257
:103A00008830814201D90320DCE630688007F2D596
:103A100010E0FEF741FF834609E0FEF73DFFA0EB13
:103A20000B0141F28830814201D90320CAE6306897
:103A30008007F2D4BAF1010F05D141483C3001684A
:103A400021F080510160A069C0B33D49091D09689A
:103A50004FF0FF36C1F38101022946D0022805D07C
:103A6000C7F86090FEF718FF04463AE0C7F8609088
:103A7000FEF712FF814607E0FEF70EFFA0EB0900FC
:103A8000022801D903209DE628688001F4D4D4E9F6
:103A900007010843616AA26A890106EB520241EA02
:103AA0000241084394F82C1040EA0160C8F8000075
:103AB00001203866FEF7F0FE044607E03DE0FEF721
:103AC000EBFE001B022801D903207BE62868800159
:103AD000F5D532E0FEF7E0FE001B022801D90320F5
:103AE00070E628688001F5D427E0012823D0D8F8B3
:103AF0000000E26900F4800191421AD1226A00F0CC
:103B00003F01914215D147F6C071626A0140B1EBA5
:103B1000821F0ED1A26A00F4403106EB5202B1EBD3
:103B2000024F06D194F82C1000F07060B0EB016FDA
:103B300003D0012046E6012044E6002042E60000D2
:103B40000438024000004742800E474200700040A7
:103B500010B50446002C02D0607F10B106E00120B1
:103B600010BD00202077204600F042F80220607748
:103B70002068C168C943C90631D5CA21416221689C
:103B800053204862204602F0ECF9C8B920688168E9
:103B9000164A114081602068816862681143D4E947
:103BA00004231A43114381602168E068086120689A
:103BB0000169228941EA02410161204602F0F4F9DB
:103BC00048B921680A6C22F480220A6421680A6CD0
:103BD000A3691A430A642268FF21516200E00020B1
:103BE0000028BDD10121617710BD0000BFFF8FFF0C
:103BF0001FB50021009101910291039100680849CD
:103C000088420CD102200090000203906846FFF722
:103C1000FBFB08B1FDF776FD0249012008601FBDDE
:103C2000002800403C0E474270B504460B46207FFA
:103C3000012805D0012626770220607712B108E01E
:103C4000022070BD5878C10603D500F0EF000A309D
:103C50005870A2B19878D97840EA01455878197817
:103C6000000240EA413005432168CA2048622168C9
:103C700053204862204602F074F988B117E0D878E2
:103C800002F064F90204587802F060F942EA002276
:103C9000987802F05BF90243187842EA4035E3E78E
:103CA0000748054020684560204602F07DF900B9CC
:103CB00066772268FF2151620021217770BD0000E4
:103CC0003FFFFF002DE9F04104460D46207F01280B
:103CD00021D04FF0010884F81C8002206077002773
:103CE000E2B120688068400600D4EF70A878297897
:103CF00040EA01466878E978000240EA81500643CC
:103D00002168CA204862216853204862204602F098
:103D100028F9C8B12BE00220BDE8F0812068806856
:103D2000400600D4EF70287802F010F90204687899
:103D300002F00CF942EA0022A87802F007F90243E7
:103D4000E87842EA8056DBE70D48064020680660C6
:103D50002068816821F480218160D5E90310014346
:103D60002068826811438160204602F01DF908B97D
:103D700084F81D802268FF2151622777CCE700007C
:103D80007F7F7F0070B505460A482968C860FEF746
:103D900083FD04464FF47A7606E0FEF77DFD001BB6
:103DA000B04201D9032070BD2868C0688006F4D5F0
:103DB000002070BD5F7F010070B50446002C09D063
:103DC000606A002540B125616561A56294F85100E3
:103DD00040B10CE0012070BD6068B0F5827FF4D086
:103DE000E561F2E784F85050204600F045F80220E3
:103DF00084F851002068016821F040010160A0882A
:103E0000218900F4827001F404410843A18901F47E
:103E100000610843217C01F002010843217D01F08B
:103E200001010843218B01F400710843217F01F057
:103E30003801084394F8201001F080010843218DD7
:103E400001F40051084321680860A069042101EAD7
:103E5000104094F8241001F01001084321684860D4
:103E60002068C16921F40061C1616565012084F8A1
:103E70005100002070BD000010B586B0044614212A
:103E800001A8FCF781FB14492068884221D1002158
:103E90001248026842F480420260006800F48040E8
:103EA00000900E481038026842F00202026000687A
:103EB00000F0020000904FF4604001900220029058
:103EC0000391032004900520059001A90448FEF702
:103ED000F3FB06B010BD000000380040403802403F
:103EE000000402407047704770B590F83C20012AEA
:103EF00031D0012680F83C60022280F83D20026823
:103F00005468936824F070050C682C435460134C7B
:103F10000268A24214D0B2F1804F11D0104CA242DC
:103F20000ED0104CA2420BD00F4CA24208D00F4C26
:103F3000A24205D00E4CA24202D00E4CA24204D1A5
:103F400023F080034968194391603C30467000219A
:103F50000170002070BD022070BD00000000014013
:103F60000004004000080040000C00400004014034
:103F7000004001400018004010B50446002C03D05A
:103F800094F83D0010B107E0012010BD002084F836
:103F90003C00204600F016F8022084F83D00211D68
:103FA000206802F07BFD01203D3460726070A070DB
:103FB000E07020716071A071E071207220700020AB
:103FC00010BD000008B500680649884208D10648BF
:103FD000016841F008010160006800F008000090ED
:103FE00008BD0000000C00404038024090F83D1031
:103FF000012901D001207047022180F83D1000689E
:104000001349884214D0B0F1804F11D01149884231
:104010000ED0114988420BD01049884208D010496F
:10402000884205D00F49884202D00F49884209D101
:10403000816801F00701062908D0016841F00101FB
:10404000016003E0016841F0010101600020704758
:10405000000001400004004000080040000C004047
:1040600000040140004001400018004090F83D105D
:10407000012901D001207047022180F83D1001681C
:10408000CA6842F00102CA6000681449884214D02C
:10409000B0F1804F11D0124988420ED011498842A8
:1040A0000BD01149884208D01049884205D01049E8
:1040B000884202D00F49884209D1816801F0070186
:1040C000062908D0016841F00101016003E00168A0
:1040D00041F0010101600020704700000000014034
:1040E0000004004000080040000C004000040140B3
:1040F000004001400018004070B50446002594F8C7
:104100003C00012817D0012684F83C60022084F886
:104110003D002068826822F0770222F47F428260AC
:104120000868502838D00DDC202853D005DC90B327
:10413000102811D14EE0022070BD30284AD040280E
:104140000AD13DE0602831D070280CD0B0F5805FF6
:1041500003D0B0F5005F12D001253C34667000201A
:104160002070284670BDCB68D1E90121206802F09B
:1041700010FD2068816841F077018160EDE7CB6830
:10418000D1E90121206802F004FD2068816841F432
:1041900080418160E1E71DE0CA684968206802F05B
:1041A000DBFD5021206802F0FEFCD6E7CA684968B2
:1041B000206802F0E2FD6021206802F0F4FCCCE708
:1041C000CA684968206802F0C7FD4021206802F0F3
:1041D000EAFCC2E722680146104602F0E4FCBCE7B4
:1041E00070472DE9F04104462068C56806694FF024
:1041F0000007B10714D5A90712D5F91E01610120E6
:10420000207720688069800703D02046FFF7E8FF09
:1042100005E0204600F0BCF8204600F04CF9277776
:10422000700717D5680715D521686FF0040008617D
:10423000022020772068806910F4407F03D0204658
:10424000FFF7CEFF05E0204600F0A2F8204600F080
:1042500032F92777300716D5280714D521686FF073
:1042600008000861042020772068C069800703D017
:104270002046FFF7B5FF05E0204600F089F820460C
:1042800000F019F92777F00617D5E80615D521684B
:104290006FF010000861082020772068C06910F4D2
:1042A000407F03D02046FFF79BFF05E0204600F04B
:1042B0006FF8204600F0FFF82777F00708D0E807EE
:1042C00006D021686FF001000861204600F062F915
:1042D000300608D5280606D521686FF080000861F1
:1042E0002046FFF7FFFD700608D5680606D5216851
:1042F0006FF040000861204600F056F9B0060AD57C
:10430000A80608D521686FF0200008612046BDE8A6
:10431000F041FFF7E8BDBDE8F081000010B586B0C0
:104320000446142101A8FCF72FF91549206888429A
:1043300024D11448016841F080010160006800F058
:10434000800000904FF4E050019002200290012183
:1043500003910490059001A90B48FEF7ADF90B48B5
:10436000FFF744FE0021094800F0A6F804210748A1
:1043700000F0A2F80821054800F09EF806B010BD34
:10438000000C004030380240001C0240B40D0020F8
:10439000704770B504460D46002694F83C0001288D
:1043A0000FD0012084F83C006AB1042A1FD0082AEB
:1043B00032D00C2A44D00126002084F83C0030463C
:1043C00070BD022070BD2946206802F0F5FB206810
:1043D000816941F0080181612068816921F004014F
:1043E0008161206881692A6911438161E4E7294676
:1043F000206802F015FC2068816941F40061816148
:104400002068816921F480618161206881692A695D
:1044100041EA02218161CFE72946206802F03AFC97
:104420002068C16941F00801C1612068C16921F0BB
:104430000401C1612068C1692A691143C161BBE7F8
:104440002946206802F05EFC2068C16941F40061E1
:10445000C1612068C16921F48061C1612068C169BE
:104460002A6941EA0221C161A6E710B50446002C81
:1044700003D094F83D0010B107E0012010BD0020EA
:1044800084F83C00204600F015F8022084F83D0036
:10449000211D206802F002FB01203D346072607033
:1044A000A070E07020716071A071E07120722070C6
:1044B000002010BD7047704710B50446002909D090
:1044C00004290AD008290BD094F8410001280AD009
:1044D000012010BD94F83E00F8E794F83F00F5E79E
:1044E00094F84000F2E70220A9B3042937D0082944
:1044F00038D084F841000122206802F03DFB1E49BB
:1045000020681E4A884201D0904203D1436C43F494
:10451000004343642068884213D0B0F1804F10D02C
:10452000174988420DD0174988420AD01649884257
:1045300007D0904205D01549884202D014498842DC
:1045400013D1816801F00701062912D0016841F0FA
:10455000010101600DE0FFE784F83E00CBE784F83D
:104560003F00C8E784F84000C5E7016841F0010159
:104570000160002010BD0000000001400004014067
:104580000004004000080040000C004000400140D2
:104590000018004000680349884201D1FEF782B943
:1045A0007047000000000140704738B5044694F899
:1045B0004200202801D0022038BD51B14AB101206B
:1045C000206300206063204602F0BEFD014611B169
:1045D00005E0012038BD206B012802D001210846EA
:1045E00038BD206802684068009020680C3050E8B0
:1045F000002F42F0100240E80023002BF5D1EEE737
:1046000070B5054612492868884217D1114C2078A8
:1046100038B14C2210491148FBF71DFF00202070D3
:1046200007E00E484C220C494C38FBF714FF0120E0
:1046300020704C2208490A48FFF7B7FF094928684B
:10464000884204D1BDE87040074800F065BB70BDEA
:1046500000100140140400204C160020E416002035
:10466000FC0D0020001401408C0E0020704700005B
:10467000F8B5044622681068D168536900F00F0647
:10468000002E08D1850606D58D0604D52046BDE846
:10469000F84002F06BBC0025002E66D003F0010646
:1046A00001F49077374360D0C20705D0CA0503D51F
:1046B000626C42F001026264420705D5DA0703D05A
:1046C000626C42F002026264820705D5DA0703D009
:1046D000626C42F004026264020707D501F0200216
:1046E000324303D0626C42F008026264626C002ABA
:1046F00031D0800604D5880602D5204602F036FC6B
:1047000020684069C0F38010616C090700D438B399
:10471000204602F0E9FB2068406940061CD520686D
:10472000143050E8001F21F0400140E80012002A38
:10473000F5D1E06B60B159490165E06BFDF7FFFD14
:10474000002808D0E06B016D01B0BDE8F0400847DB
:104750002046FFF78BFFF8BD2046FFF787FFF8BD27
:104760002046FFF783FF6564F8BD236B012B7DD1E5
:10477000C3067BD5CB067FD5106850680090506982
:104780004FF0200340064FF0020644D5E16B086865
:10479000406880B20028E7D0A28D8242E4D9E0854B
:1047A000C869B0F5807F2DD020680C3050E8001F1C
:1047B00021F4807140E80012002AF5D120681430FD
:1047C00050E8001F21F0010140E80012002AF5D155
:1047D0002068143050E8001F21F0400140E800122A
:1047E000002AF5D184F84230256320680C3050E867
:1047F000001F21F0100140E80012002AF5D1E06B03
:10480000FDF756FD6663A08DE18D401A81B220460A
:10481000FFF7F6FEF8BDA08DE18D401A81B2E08D64
:104820000028F7D00029F5D020680C3050E8002F80
:1048300022F4907240E80027002FF5D12068143050
:1048400050E8002F22F0010240E80027002FF5D1A8
:1048500084F84230256320680C3050E8002F22F0A5
:10486000100240E80023002BF5D100E004E066636D
:104870002046FFF7C5FEF8BD020606D50A0604D598
:104880002046BDE8F84002F0A9BC4006F3D5480632
:10489000F1D52046BDE8F84002F04DBB9F6D000801
:1048A00070B50446002C04D094F84100002510B1E6
:1048B00006E0012070BD84F84050204600F024F846
:1048C000242084F841002068C16821F40051C160AF
:1048D000204602F0AFFB2068016921F4904101619C
:1048E0002068416921F02A0141612068C16841F4D2
:1048F0000051C1606564202084F8410084F84200C2
:104900006563002070BD00002DE9F04F87B00446BC
:10491000142102A8FBF738FE8648854B143822681C
:1049200084490225002706154FF003094FF0070BB5
:104930004FF0006A4FF400389A4261D10A6842F0A1
:1049400010020A60096801F010010191016841F04C
:1049500002010160016801F002010191016841F06A
:1049600001010160006800F00100019080200290C8
:1049700003950497CDF81490CDF818B002A96E48AD
:10498000FDF79AFE2802029003950497CDF8149043
:10499000CDF818B002A96948FDF78EFE694D684848
:1049A0002860C5F804A0AF60EF602E616F61AF6151
:1049B000EF61C5F820806F622846FDF7BBFD08B1A6
:1049C000FCF7A0FEE563AC635D485E4D30306035BA
:1049D0002860C5F804A04020A860EF602E616F61D8
:1049E000AF61EF61C5F820806F622846FDF7A2FD38
:1049F00008B1FCF787FEA563AC6307B0BDE8F08F94
:104A0000514B9A4237D14B49091F0A6842F4802220
:104A10000A60096801F480210191016841F00401F4
:104A20000160006800F0040001904FF440600290C3
:104A300003950497CDF81490CDF818B002A9434817
:104A4000FDF73AFE3F4D4248C0352860C5F804A046
:104A5000AF60EF602E616F61AF61EF614FF4403086
:104A600028626F622846FDF765FD08B1FCF74AFE33
:104A7000E563AC63C1E7374B9A42BED10A6842F0A6
:104A800020020A60096801F020010191016841F0EB
:104A900040010160006800F0400001904FF4844044
:104AA000029003950497CDF814900820069002A96F
:104AB0002948FDF701FE2248284D603828604FF054
:104AC0002069C5F80490AF60EF602E616F61AF613F
:104AD0008015E861C5F820806F622846FDF72AFD41
:104AE00008B1FCF70FFEE563AC6315481B4D1830A9
:104AF00060352860C5F804904020A860EF602E6102
:104B00006F61AF61EF61C5F820806F622846FDF7E5
:104B100011FD08B1FCF7F6FDA563AC630022052189
:104B20004720FDF751FF4720FDF740FF65E70000F4
:104B300000100140443802400004024000000240DE
:104B400088640240D40E0020004800400008024063
:104B5000286002400014014000180240F40F0020B9
:104B600090F84230202B01D00220704721B11AB1B9
:104B70000023036302F0E8BA0120704710B5006813
:104B80000649884208D101F05DFEBDE810404C2284
:104B900003490448FFF7E4BF10BD000000100140C6
:104BA0004C160020FC0D00207047000037B504466D
:104BB00094F84100202801D002203EBD019959B34C
:104BC00052B32162A284E28400206064212384F82D
:104BD0004130A56B114BEB63A56B114B2B64A56B9F
:104BE000104BEB64A36B186520681346001DA56B82
:104BF00002462846FDF708FD21686FF04000086076
:104C00002068143050E8001F41F0800140E8001295
:104C1000002AF5D100203EBD01203EBD9D6E00085A
:104C2000DF6E0008AF6D000870477047FEE70000B8
:104C30002748284990F84200012814D0652818D048
:104C400003281CD0672820D0042824D0682828D026
:104C500005282CD0692830D0072834D06B2801D102
:104C60004880888070470120488040F20110888089
:104C700070476520488040F26510888070470320A7
:104C8000488040F20310888070476720488040F2D7
:104C9000671088807047042048804FF482708880B5
:104CA0007047682048804FF4B470888070470520B2
:104CB000488040F20510888070476920488040F2A3
:104CC00069108880704707204880888070470000FE
:104CD000D0110020C0030020F0B40023002A18D90E
:104CE0000A24302537269C46B4EB107F04D905EB07
:104CF000107701F8137003E006EB107701F81370DA
:104D0000000101EB430787F801C05B1CDBB2934253
:104D1000EAD3F0BC7047000010B50446044800F028
:104D20000FF82046BDE8104088220149FFF73DBC3E
:104D30004811002088220149FFF737BC48110020A4
:104D40002DE9F0470446002C70D07D4D2068E860C6
:104D50002079287405F108073879A52866D105213E
:104D6000204604F029FB01285CD1B7F80510093171
:104D7000204604F001FB0128F6D16079A17940EAD0
:104D800001207881E11D40F20623A0F2062298421C
:104D900071D023DC40F205136A4EA0F205124FF0E9
:104DA00000084FF00109984253D00EDC032841D08F
:104DB00004DC012829D0022834D138E0A0F5807025
:104DC00001383DD003282DD13DE0FC2A47D0FD2AF3
:104DD00059D0FE2A5FD0FF2A24D164E058488030A1
:104DE000052A74D008DC012A69D0022A75D0032A6A
:104DF00079D0042A16D179E0062A6BD0072A6AD026
:104E0000082A69D0FE2A0DD189E0086868614868DF
:104E1000A8610889A883887AA877387B000902D01E
:104E200086F81A9082E086F81A807FE086E008789B
:104E3000E8777BE0424820222030FBF70CFB75E04E
:104E40000868286472E0088825F8440F8878A870FC
:104E50006CE0088825F8470F8878A87066E0384825
:104E60000D224A30FBF7F7FA97F84200642803D284
:104E700086F8139003E01EE001D986F81380B7F896
:104E80004400308352E02E484FF0100200F15700EA
:104E9000FBF7E1FA4AE0086845F8670F4868686080
:104EA0008868A86042E0086845F8730F8888A88081
:104EB0008879A8713AE0087885F87A0036E00868C1
:104EC00045F87B0F8888A8808879A8712EE012E0C9
:104ED00003E008E015E018E01DE00A68C0F80220D1
:104EE0008988C18022E0096881601FE00A68C26089
:104EF000898801821AE0124828229230FBF7ABFA27
:104F000014E0097880F83A1010E00A6840F83B2F66
:104F1000898881800AE0097880F8411006E00A4813
:104F20000A6802604A68426089688160B7F80500D3
:104F30000934015DA52901D1044404E7BDE8F087E7
:104F4000C81100202C1100205D1300202DE9F04134
:104F500006460F4614460025DFF8488013E006EBAE
:104F6000850090ED000A0F4806F0DEFA002318F8DD
:104F70000300606022685006FCD55B1CDBB2042B8A
:104F8000F5D36D1CADB2BD42E9D30020064A115CD9
:104F9000616021684906FCD5401CC0B20428F6D3E4
:104FA000BDE8F0814006002090ED00082DE9F04FAB
:104FB000DDE90BC8DDE90D9ADDE90967002404E0AD
:104FC000C4F1020B00F80B50641C032C02DA0D5DD7
:104FD000002DF5D110F8031F62F302010170018862
:104FE00063F389110180417866F3850141708188FE
:104FF00067F309018180B0F805106CF38C01A0F80B
:105000000510C18868F34F11C180B0F8091069F329
:105010008C01A0F8091041896AF34F114181BDE864
:10502000F08F70EE600A90ED031AD0ED041A71EE65
:10503000611AB0EE081A20EE010A80EE212A81EDF5
:10504000002A90ED030AD0ED041A60EE810A30EEDA
:10505000610A80EE801A81ED011A704701800021FB
:10506000818001724180C18001824161018341835D
:1050700080F82010704700000FB410B50298A0F21D
:1050800001209DF825109DF8242041EA022100EB23
:10509000C00202EB00121B4800EBC20041809DF8E9
:1050A00027109DF8262041EA022181809DF82910D1
:1050B0009DF8282041EA0221C1809DF82A10017242
:1050C0004188028A104B8C1A9C4203DA018B491CDE
:1050D000018305E0511A994202DA018B491E0183CE
:1050E0004188B0F9182001EB4231416141880182C9
:1050F000418C491C4184012180F8201010BC5DF8CE
:1051000014FB00007017002090E8FFFF30B5039CEF
:10511000050A25706070080AA070E170100A2071FD
:105120006271180AA071E37130BD00000180002196
:10513000416081724180018181819FED040A80ED8F
:10514000070A0183018480F82210704700000000E4
:105150004188818100EE101AB8EE400A80ED070AFE
:1051600000210183704700000FB430B50398A0F20E
:1051700005202A4A52F820104B888B819DF829106F
:105180009DF8283041EA032152F8203059809DF8DB
:105190002B109DF82A3041EA032152F8203009B241
:1051A00059609DF82D109DF82C3041EA032152F8EA
:1051B0002030198152F820309DF82E10997252F843
:1051C00020104B888C891C1B154B9C4202DA0C8BDF
:1051D000641C0C8352F820108C894D88641B9C42FF
:1051E00002DA0B8B5B1E0B8352F820104B88B1F94F
:1051F000184003EB443300EE103AB8EEC00A81EDDC
:10520000070A52F820108B8C5B1C8B8452F820000C
:10521000012180F8221030BC5DF814FB2804002026
:105220009CE6FFFF70B504469FED1F1A258804F128
:105230002800A5F20125082D1CD2DFE805F00404A2
:1052400004041C1C1C1C012914D100EE103AF8EEB9
:10525000C00A00EE102AB8EEC00AFBF7D5FABDEE80
:10526000C00A10EE100A00B200EE100AB8EEC00A32
:1052700084ED040A70BD0129FCD100EE103AF8EE6D
:10528000C00A00EE102AB8EEC00AFBF7BDFABDEE68
:10529000C00A10EE100A00B200EE100AB8EEC00A02
:1052A00084ED040A70BD000000F8FF4541617047BD
:1052B00030B5039C050A25706070080AA070E17083
:1052C000100A20716271180AA071E37130BD0000EC
:1052D00070B504463048824223D122882F4DA2F572
:1052E0000072053A04F1780008D0012A1AD0022A87
:1052F0002CD0032A15D101293CD046E001290AD13E
:10530000D4ED010AF8EEE00A00F0CCFCBDEEC00AD4
:1053100010EE100A2084208C000A287094F82000D7
:10532000687070BD01290AD1D4ED010AF8EEE00AD7
:1053300000F0B8FCBDEEC00A10EE100A2084208CEC
:10534000000AA87094F82000E87070BD01290AD105
:10535000D4ED010AF8EEE00A00F0A4FCBDEEC00AAC
:1053600010EE100A2084208C000A287194F8200086
:10537000687170BDD4ED010AF8EEE00A00F092FC0D
:10538000BDEEC00A10EE100A2084208C000AA8711D
:1053900094F82000E87170BD140D0020E80300208F
:1053A00010B50F480D490160032141600021816063
:1053B000C1604FF4102202614FF400124261017685
:1053C00041768176C17601774177FCF79FFD002811
:1053D00003D0BDE81040FCF795B910BD0064004053
:1053E000EC0C002010B50F480D490160032141600D
:1053F00000218160C1604FF4102202614FF400125D
:105400004261017641768176C17601774177FCF77A
:105410007DFD002803D0BDE81040FCF773B910BD36
:1054200000680040140D002008B51D48016841F4D3
:1054300080010160016801F480010091016841F47C
:1054400000110160006800F40010009000220521A6
:105450000C20FDF7B9FA0C20FDF7A8FA002205216F
:105460003920FDF7B1FA3920FDF7A0FA0022052115
:105470004420FDF7A9FA4420FDF798FA00220521FF
:105480004520FDF7A1FA4520FDF790FA00220521FD
:105490004620FDF799FABDE808404620FDF786BA98
:1054A0003038024010B5C0B000222421202007F07F
:1054B0003FFD394C206000222421402007F038FDB8
:1054C000606000222421202007F032FDA0601C2211
:1054D000324939A8FBF704F8002139A806F08FFCFF
:1054E000E0621C222D491C3132A8FAF7F9FF002195
:1054F00032A806F084FCE0601C22284938312BA831
:10550000FAF7EEFF00212BA806F079FC20611C229F
:105510002249543124A8FAF7E3FF002124A806F019
:105520006EFC60611C221D4970311DA8FAF7D8FF7E
:1055300000211DA806F063FCA0611C2217498C31D4
:1055400016A8FAF7CDFF002116A806F058FCE06176
:105550001C221249A8310FA8FAF7C2FF00210FA898
:1055600006F04DFC20621C220C49C43108A8FAF751
:10557000B7FF002108A806F042FC60621C22074920
:10558000E03101A8FAF7ACFF002101A806F037FCD2
:10559000A06240B010BD00000000002028E7000815
:1055A000F0B587B0142102A8FAF7EEFF00262A48CA
:1055B000016841F002010160016801F002010191FE
:1055C000016841F040010160016801F04001019172
:1055D000016841F001010160016801F001010191E0
:1055E000016841F008010160016801F008010191C2
:1055F000016841F004010160016801F004010191BA
:10560000016841F080010160006800F080000190B5
:10561000124F4FF48055002229463846FDF734F9E1
:10562000012402944FF404100390049402A90C483E
:10563000FDF742F8029503940496059602A93846B0
:10564000FDF73AF8062100220846FDF7BDF90620CD
:10565000FDF7ACF907B0F0BD30380240000402405D
:105660000018024010B586B0142101A8FAF78CFF8B
:10567000002400941A4819490160446003218160A4
:105680000721C160046144618461FEF761FA08B1D9
:10569000FCF738F88DF804408DF805408DF8064089
:1056A00004940594012201A90D48FEF70BFB08B1F3
:1056B000FCF728F801208DF800008DF801008DF826
:1056C00002008DF80340012269460548FEF7ACFA56
:1056D000002801D0FCF716F806B010BD00280040E5
:1056E0003C0D002010B511480F4901604FF4827144
:1056F0004160002181604FF40062C26002220261B9
:1057000001224261520282613822C2610162416219
:1057100081620A21C162FEF74FFB002803D0BDE879
:105720001040FBF7EFBF10BD003800405C0D0020BB
:1057300010B58EB000240A940B940C940D94089428
:1057400009941C2101A8FAF71FFF2648244901608B
:10575000446084604FF6FF71C16004618461FEF7AC
:105760000BFC08B1FBF7CEFF4FF480500A900AA95A
:105770001C48FEF7C1FC08B1FBF7C4FF1948FEF74F
:1057800074FE08B1FBF7BEFF0894099408A91548F8
:10579000FEF7AAFB08B1FBF7B5FF60200190029469
:1057A00003940594002201A90E48FEF7F2FD08B10A
:1057B000FBF7A8FF042201A90A48FEF7EAFD08B199
:1057C000FBF7A0FF082201A90648FEF7E2FD08B199
:1057D000FBF798FF0348FEF7A1FD0EB010BD0000D7
:1057E000000C0040B40D002010B50C480A490160BF
:1057F0004FF4E131416000218160C16001610C2200
:1058000042618161C161FFF74BF8002803D0BDE818
:105810001040FBF777BF10BD00100140FC0D0020C9
:1058200010B50D480B4901600C49416000218160B1
:105830004FF40052C260D21002610C2242618161B9
:10584000C161FFF72DF8002803D0BDE81040FBF739
:1058500059BF10BD00480040440E0020A086010042
:1058600010B50C480A4901604FF4E1314160002154
:105870008160C16001610C2242618161C161FFF7F9
:105880000FF8002803D0BDE81040FBF73BBF10BD68
:10589000001401408C0E002010B500220F49104862
:1058A00002F02CFB08B1FBF72DFF0E490C4802F06B
:1058B0007CFD08B1FBF726FF0B49094801F0DAFF30
:1058C00008B1FBF71FFF064802F044FE002803D092
:1058D000BDE81040FBF716BF10BD0000C00400205B
:1058E000D02100208C05002010050020FEE70000DC
:1058F00070B510EE102A6FF040434FF480051A4443
:105900000123F1EE400AB0EE001AB0EE082AAA42D6
:105910000BD200220A604B6070EEC10AC0ED000A93
:1059200030EE020A80ED010A70BD10EE102A304CF4
:105930004FF4000614440222F7EE001AB4420AD2D1
:105940000B604A6070EEE10AC0ED000A30EE010A19
:1059500080ED010A70BD10EE103A032413F1814F5F
:105960000DD8B5EEC00AF1EE10FA08D20A604C600C
:10597000C0ED000A30EE210A80ED010A70BDB5EEDF
:10598000C00A0423F1EE10FA0DDB10EE102AB2F17A
:105990007E5F08DA0C604B6071EEC00AC0ED000A51
:1059A00080ED010A70BD10EE102A0524A2F17E528E
:1059B000B2420AD20B604C6071EE400AC0ED000AA0
:1059C00030EE610A80ED010A70BD10EE102AA2F1DE
:1059D0008042AA42F8D80C6006224A6072EE400A61
:1059E000C0ED000A30EE410A80ED010A70BD0000F2
:1059F000FFFF7F40FEE700000148FDF75AB90000B5
:105A0000CC38002008B507F08DFD0090084C094DFA
:105A10000026A08C2988884202D184F82260A684BE
:105A2000A08C28806421684607F028F8F1E7000080
:105A3000E81C0020BC0400209FED0A1A80ED001A2B
:105A400080ED031A80ED090AC0ED0A0AB7EE000ADC
:105A500080ED070A80ED081A80ED0B0A80ED011A2F
:105A60007047000000000000D0ED071AD0ED000ADA
:105A700021EEA01A80ED011AD0ED090A90ED032A5B
:105A800041EE820AC0ED040AD0ED0A1A30EEA12AD6
:105A9000C0EE821AC0ED061A30EE412AB0EE410A7D
:105AA00001EE820A80ED020AB7EE001A31EE611AA9
:105AB00061EE200AC0ED050AC0ED030A80ED000A80
:105AC0007047000070B504462068056C00EB41107B
:105AD000D0F8081B0C4EB54205D9090403D54FF484
